:020000040800F2
:10000000085800209D010008A1330008C52F0008F2
:100010009D33000879040008D5490008000000005D
:10002000000000000000000000000000D13F0008B8
:1000300095040008000000007136000861450008C2
:10004000B7010008B7010008B7010008E136000851
:10005000B7010008B7010008B7010008B7010008A0
:10006000B7010008B7010008B7010008B701000890
:10007000B7010008B7010008B7010008B701000880
:10008000B7010008B7010008B7010008B701000870
:10009000B7010008B7010008B7010008B701000860
:1000A000B7010008B7010008B7010008B701000850
:1000B000B7010008B7010008B7010008B701000840
:1000C000B7010008B7010008B7010008B701000830
:1000D000B701000891490008B7010008B7010008FE
:1000E000B7010008D5360008B7010008B7010008BD
:1000F000B7010008B7010008B7010008B701000800
:10010000B7010008B7010008B7010008B7010008EF
:10011000B7010008B7010008B70100083D46000814
:10012000B70100087D040008B7010008B701000806
:10013000B7010008B7010008B7010008B7010008BF
:10014000B7010008B7010008B7010008B7010008AF
:10015000B701000889040008B70100089D4900089C
:10016000B7010008B7010008B7010008B70100088F
:10017000B7010008B7010008B7010008000000003F
:10018000B7010008B7010008DFF80CD000F000F953
:1001900000480047F94900080858002006488047F1
:1001A00006480047FEE7FEE7FEE7FEE7FEE7FEE75C
:1001B000FEE7FEE7FEE7FEE72946000889010008A2
:1001C0002DE9F05F0546002092469B46884606468C
:1001D000814640241BE0284641464746224600F01F
:1001E0008FF853465A46C01A914110D3114618460B
:1001F000224600F076F82D1A67EB01084F4622469A
:100200000120002100F06DF817EB00094E41201E7F
:10021000A4F10104DFDC484631462A464346BDE8E6
:10022000F09F40EA01039B0703D009E008C9121FB1
:1002300008C0042AFAD203E011F8013B00F8013BA0
:10024000521EF9D27047D2B201E000F8012B491ECC
:10025000FBD270470022F6E710B513460A46044663
:100260001946FFF7F0FF204610BD30B505462A4677
:100270000B4612F8010B13F8014B08B1A042F8D05D
:100280001CB1002802D06D1CF1E7284630BD421C8D
:1002900010F8011B0029FBD1801A704770B5064683
:1002A00006F0C2FD046805460A220021304600F02F
:1002B00037F82C6070BD30B50B4601460020202277
:1002C000012409E021FA02F59D4205D303FA02F563
:1002D000491B04FA02F52844151EA2F10102F1DCC3
:1002E00030BD202A04DB203A00FA02F100207047DA
:1002F0009140C2F1200320FA03F319439040704764
:10030000202A04DB203A21FA02F00021704721FA6A
:1003100002F3D040C2F120029140084319467047D1
:100320002DE9F04791460F4680460446002614F812
:10033000015B2DB100F03EF80068405DC007F6D1CA
:100340002B2D02D02D2D18D0641E4A46394620464A
:1003500000F034F827B13968A14201D1C7F8008014
:1003600071054FF002040BD54042002803DD06F072
:100370005BFD0460A007BDE8F08746F48066E4E713
:100380000028F8DA06F050FD04606FF00040F2E754
:10039000064C074D06E0E06840F0010394E80700D2
:1003A00098471034AC42F6D3FFF7F2FE748A000887
:1003B000948A000800487047207200082DE9F05F19
:1003C00082460078002715468B460AF10104B9469B
:1003D000302801D09DB113E014F8010B01277828D3
:1003E00003D0582801D045B10AE00DB1102D07D136
:1003F0000027102514F8010B02E0082500E00A256B
:100400000026B0460EE005FB080005FB06F10127BB
:1004100001EB10461FFA80F8B6F5803F00D3B946CD
:1004200014F8010B294600F018F80028EBDABBF1AC
:10043000000F05D00FB1641E00E05446CBF8004019
:10044000B9F1000F06D006F0EFFC02210160C81ED2
:10045000BDE8F09F48EA0640FAE73A2800D2303873
:1004600020F02002412A01D3A2F13700884201D3B3
:100470004FF0FF3070470000FEE7000040F22460BC
:10048000C2F2000000F070BB40F28460C2F20000D3
:1004900000F06ABB704700002DE9F04381B00646CA
:1004A000147803F007000D46089F40F2401990466B
:1004B000C2F20009DFE800F004132231404F5E6D04
:1004C00099F8240061B2421E18BF0122002948BFDA
:1004D0000246B0B2A9B203F0A7FA013F6CD099F876
:1004E0002400731C421E18BF0122610648BF024649
:1004F000A9B298B203F098FA013F5DD099F82400B0
:10050000B31C421E18BF0122A10648BF0246A9B271
:1005100098B203F089FA013F4ED099F82400F31CF9
:10052000421E18BF0122E10648BF0246A9B298B296
:1005300003F07AFA013F3FD099F82400331D421EA0
:1005400018BF0122210748BF0246A9B298B203F0A2
:100550006BFA013F30D099F82400731D421E18BF7A
:100560000122610748BF0246A9B298B203F05CFAC3
:10057000013F21D099F82400B31D421E18BF01226B
:10058000A10748BF0246A9B298B203F04DFA013F55
:1005900012D099F82400F31D421E18BF0122E10772
:1005A00018BF0246A9B298B203F03EFA013F03D049
:1005B00018F8014F083683E701B0BDE8F08300006A
:1005C00072B600BFFEE7000080B540F21863C2F2C9
:1005D00000035A7A002A1CBF012080BD93F809C08D
:1005E0008646002003F80C005A7A03EB8202C2F818
:1005F00004E05A7A1A44107293F809C00CF101020F
:100600005A720CF130020A7042F63A72A1F80120D7
:10061000C87080BD2DE9F04F85B040F24018C2F29D
:100620000008D8F818108A6901E000BF9268002A13
:1006300000F0B1801388834202D8578887421DD2C8
:100640009268002A00F0A7801388834202D8578856
:10065000874213D29268002A00F09D80138883425B
:1006600002D85788874209D29268002A00F0938006
:1006700013888342DAD857888742D7D35268C01A82
:10068000B8F90A50B8F91E3002EBC00E9EF802A06D
:10069000B8F91C4012F8309091F814C0DEF80460EC
:1006A000EF1A012F0390049208DBACEB070BBBF1B0
:1006B000010F49DB07FB0A6602E000BFE3461D4667
:1006C000B8F90E706344FF433B44012B04DBABEBF2
:1006D000030BBBF1010F37DBB8F90C0009EB040782
:1006E000C043B8F90830384420EAE070A342A9EBCF
:1006F00000090BDD181B20F00703A9EB000906EB2E
:10070000E0061C4400F0070701E000BF0027B9F134
:10071000010F19DBBBF1000F16D0CDF808E000BFC8
:100720002046294632463B46CDF80090FFF7B4FEFE
:100730005644BBF1010B05F10105F1D1D8F81810B1
:10074000DDF808E091F814C04B7D63451AD9DDE966
:100750000342B8F81C00B8F81E1012F8347098F86C
:10076000246001EB0C0207440B44013E91B2BAB283
:100770009BB218BF01260096744602F0F9FFD8F824
:100780001810A6469EF80100897DB8F81C2011FBC0
:100790000020A8F81C0005B0BDE8F08F40F2401121
:1007A000C2F20001D1F818C0DCF818203AB90020D4
:1007B000704700BF9268002A04BF0020704713886A
:1007C000834202D8518881421AD29268002AEED020
:1007D0001388834202D85188814211D29268002A3C
:1007E000E5D01388834202D85188814208D29268AA
:1007F000002ADCD013888342DCD851888142D9D3C7
:100800005168C01A11F830009CF816104843704720
:100810000120088070470000806938B90020002856
:1008200018BF0120704700BF8068F8B102888A4273
:1008300002D842888A42F2D28068B8B102888A42DD
:1008400002D842888A42EAD2806878B102888A4215
:1008500002D842888A42E2D2806838B102888A424D
:10086000E2D842888A42DFD3D9E700BF00200028BF
:1008700018BF01207047000080B582B040F24010E0
:10088000C2F200004FF0000CC0F81CC00020002194
:1008900080224023CDF800C002F06AFF02B080BD84
:1008A000002808BF70472DE9F04F85B040F2401591
:1008B000C2F20005A9698346487DAA8B0290688C24
:1008C000039200F00C020C2A18BF082A02D1097DFD
:1008D0004A0806E0042A03D1097D4A1E01E000BF50
:1008E0000022E98B8B1AEB839BF80010002900F0A3
:1008F0009F80019247F6FE794FF0000A0A4658465B
:1009000053B2B3F1FF3F09DD0A2A10D0013053463C
:10091000027803F1010A42B909E000BF0AF10103BC
:100920000230027803F1010A0AB14B45E8DB0024EA
:10093000BAF1000F19D45E46574600BF48B2B0F175
:10094000FF3F03DD0136013FC8B204E07078023694
:10095000023F40EA0120A96980B24968884731789E
:10096000044411B1B7F1FF3FE8DC688C00F00301EB
:100970000129204605D0022912BF002004EBD470C3
:100980004010A98BBAF1010FA1EB0006E88BAE83F2
:10099000049027DB59465746D8460CE001F102087F
:1009A0004978AA6941EA00201168023F80B288476D
:1009B000002F414616DD18F8012B50B2B0F1FF3F71
:1009C000ECDD0D2AA7F10107F2D00A2A06D1A869A9
:1009D000E98B407D0844E883EAE700BFA969C0B21B
:1009E0000968E4E7049BEB831BF80A00D3440D2855
:1009F00001D00A2810D1688C00F0030001380228C9
:100A0000039828BF0020A8839BF800000A2807D17C
:100A100002980344EB8301E03019A8839BF800009F
:100A200020B11BF8011F00297FF466AF688C019A82
:100A3000991820F00300E983688405B0BDE8F04F01
:100A400070470000B0B540F24014C2F20004658C5B
:100A5000A18345F002036384E283FFF721FF6584ED
:100A6000B0BD000080B540F24010C2F200002E215F
:100A70007F2201700021C0F23F02C0E9021247F25A
:100A80004822C0F60002C0E906210121417480F825
:100A9000241003F05FF8002080BD000040F24012F7
:100AA000C2F2000201469069002918BF91617047A7
:100AB00002F0ECBF70B5866D044600F0DBFA94F8E6
:100AC0003510022928D105462068216C026822F0E1
:100AD00016020260426922F08002426109B9A16CEB
:100AE00019B1016821F008010160016821F00101DC
:100AF000016000BF20680068C00715D000F0BAFA96
:100B0000401B0628F6D320206065032084F83500BA
:100B1000002184F8341070BD802060650120002120
:100B200084F8341070BD00BFE06D3F2101FA00F081
:100B3000B060012084F835000020002184F83410D2
:100B400070BD000090F83510022909D1052180F808
:100B500035100068016821F0010101600020704734
:100B60008021416501207047F0B581B00446002026
:100B7000009040F21800C2F200000268D4E916604A
:100B800048F2B51337680821C1F64E338140394227
:100B9000A2FB03250CD0226813685B0708D51368F5
:100BA00023F004031360B160616D41F001016165E0
:100BB00001218140394208D022685269120604D5C9
:100BC000B160616D41F002016165042181403942EB
:100BD00008D022681268920704D5B160616D41F0B7
:100BE0000401616510218140394217D020680268F4
:100BF000120713D5B16002680168520308D4C90511
:100C000008D4016821F008010160216C21B905E0D8
:100C100008033FD4216C09B120468847E16D2020AC
:100C200000FA01F23A4241D020680368DB063DD564
:100C3000B26094F835300268052B1BD122F0160201
:100C40000260426922F080024261226C0AB9A26C01
:100C50001AB1026822F0080202603F208840B060AA
:100C6000012084F83500216D0020002984F834002B
:100C700052D157E00168520310D4C90512D401685B
:100C800021F010010160012084F83500002084F873
:100C9000340007E0A16C0029BED1BFE7080301D4EE
:100CA000616C00E0E16B09B120468847606DC8B314
:100CB000606DC0072ED0052084F835002068A90A91
:100CC000026822F001020260009A01328A42009218
:100CD0001AD80268D20717D0009A01328A420092CD
:100CE00012D80268D2070FD0009A01328A420092CD
:100CF0000AD80268D20707D0009A01328A420092CD
:100D000002D80268D207DFD1012084F83500002024
:100D100084F83400E16C29B1204601B0BDE8F04010
:100D2000084700BF01B0F0BD2DE9F041044600F0D6
:100D3000A1F9ECB10546022084F8350000202168B5
:100D400084F83400086820F0010008602168086811
:100D5000C00711D000F08EF9401B0528F6D90325F5
:100D600020230320636584F83550BDE8F08100BF7F
:100D70000120BDE8F08100BF086848F23F02CFF2D1
:100D80001002D4E9013500EA020C04F10C0898E8DD
:100D9000C10143EA0C032B431843D4E9072E304327
:100DA00038431043626A40EA0E00042A40EA08030E
:100DB0001CD1206BD4E90A2E40EA0E0018430860CB
:100DC0004869BEF1000F20F0030040EA020040F045
:100DD000040C11D0B8F5005F36D0B8F1000F45D142
:100DE000022A46D0012A3BD032B942E00B60486962
:100DF00020F0070040EA020C01F0F8004AF6AB22AE
:100E00001038CAF6AA22A0FB02231A0948F60413D6
:100E1000C0F600039A5C40F2FF335F284FF03F00BA
:100E2000C1F814C021EA030100FA02F088BF0431BE
:100E3000C4E916128860002301250020636584F848
:100E40003550BDE8F08100BF032AD5D801254023E5
:100E50000120DFE802F0030E030500BF82E700BFB8
:100E6000AEF1C070B0FA80F0400904E0032A04D368
:100E7000C2D1CEF300600028BED00125402301205E
:100E8000636584F83550BDE8F0810000B0B50446D4
:100E900000F0F0F8054640F20C00C2F200000078C5
:100EA000611C18BF044400BF00F0E4F8401BA042DE
:100EB000FAD3B0BD2DE9F04F82B000F13E4241F6C9
:100EC000004502F1FF77C4F20205082243F6004E06
:100ED0004FEAB726A84208BF0722C4F2010E072E28
:100EE00038BF4FEAB7220125002600274FF000083F
:100EF000009208E008F101080437B8F1100F06F17C
:100F0000020600F0A7800C6805FA08F914EA090F38
:100F1000F0D0D1F804B003220BF0030CACF10104C3
:100F2000B240012C6FEA020A10D88268CC6802EA4B
:100F30000A02B440224382604268CBF3001422EAE2
:100F4000090204FA08F42243426005E0BCF1030FF1
:100F500002D14FF0030C20E0C2688C6802EA0A025A
:100F6000B4402243BCF1020FC26016D16FF00302FD
:100F700002EA58020244D2F820C007F01C050F23F1
:100F80000C69AB402CEA030304FA05F52B4313620A
:100F9000D1F804B001250BF0030C02680CFA06F33B
:100FA00002EA0A021A431BF4403F0260A2D0002268
:100FB00043F644030192C4F202031A684FF6084C48
:100FC00042F480421A601A68CFF6FF7C02F4804235
:100FD0000192019A28F00302724452F80C3007F093
:100FE0000C050F24AC40A343009C04FA05F52B43E9
:100FF00042F80C30DEF808204B6842EA090543F657
:101000000C4CDC0258BF22EA0905CEF80850C4F2A5
:10101000010CDCF800209C0242EA090558BF22EAD4
:101020000905CCF80050DEF804209C0342EA0905CB
:1010300058BF22EA0905CEF80450DEF80020DB0391
:1010400042EA090558BF22EA0905CEF800500125F9
:1010500050E700BF02B0BDE8F08F00000069084013
:1010600018BF012070470000002A08BF09048161F1
:101070007047000044F60C50C2F200000068704750
:1010800040F20C0044F60C51C2F20000C2F2000122
:1010900000780A68104408607047000080B543F685
:1010A0000040C4F20200016841F40071016001686F
:1010B00041F480610160016841F4807101600320A6
:1010C00000F0C8F80F2000F005F800F061F80020EB
:1010D00080BD000070B586B0002543F64001019543
:1010E000C4F202010A68044642F020020A6009685C
:1010F00001A801F0200101910199694600F010FA60
:10110000049E002E18BF012600F02AFA4DF68361D6
:10111000B040C4F21B31A0FB01014FF0FF3000EBE7
:10112000914140F2E46041F20042C2F20000C4F298
:10113000000240F2E733C0E90021C0E90253056133
:10114000856101F00FF9054610B1284606B070BD63
:1011500040F2E460C2F2000001F034F905460028D4
:10116000F3D1372000F036F80F2C0DD83720214668
:101170000022002500F042F840F21000C2F2000008
:101180000460284606B070BD0125284606B070BD33
:1011900082B0002043F640010190C4F202014A6887
:1011A00042F480424A604A6802F480420192019A05
:1011B00000900868002240F08050086008680F2105
:1011C00000F08050009000986FF0010002B000F035
:1011D00015B80000002848BF7047C1B200F01F00DA
:1011E000012202FA00F04EF20012CEF2000242EAB0
:1011F000D10121F0030108607047000010B54EF6E0
:101200000C5CCEF2000CDCF80030C3F3022E8EF042
:101210000704042C28BF0424BEF103034FF0FF3E53
:101220000EFA04F438BF0023A14399400EFA03F3E9
:101230009A43114300F00F0200F160430901043AA0
:1012400003F564436244002848BF02F10C0319709F
:1012500010BD00004EF60C51CEF200010A684FF6A8
:10126000FF031A4060F30A2242F0806040F0FD70F4
:1012700008607047F0B581B00446006810F0050FB3
:101280002DD06827C4F2472743F670060020C4F229
:1012900002063860FFF7EEFE054600BF56F8700CF8
:1012A000000105D5FFF7E6FE401B0228F6D93FE016
:1012B000D4E90110000740EA811070610120386014
:1012C000FFF7D8FE054600BF56F8700C000105D4A4
:1012D000FFF7D0FE401B0228F6D929E020688007DE
:1012E0004FF0000058D543F67006C4F20206009095
:1012F00056F8300C47F2000740F0805046F8300CAA
:1013000056F8300CC4F2000700F0805000900098AE
:10131000386840F480703860FFF7ACFE054600BFC7
:101320003868C00508D4FFF7A5FE401B0228F7D98E
:10133000032001B0F0BD00BF306810F4407013D03E
:10134000E16801F4407188420ED0306840F6406197
:10135000C4F24721012220F440700A6000220A6092
:1013600030603068C00719D1E06856F8681C4FF645
:10137000FF4300F4407221F4F811C0F6FF730340FC
:10138000B2F5407F08BF194346F8681C31686FF317
:101390001F3008433060002001B0F0BDFFF76AFE47
:1013A000054641F2883700BF30688007DCD4FFF77C
:1013B00061FE401BB8424FF00300F5D9ECE7000096
:1013C0002DE9F041002800F08B8043F60808C4F2B4
:1013D00002080446D8F8F8030D4600F007008842DA
:1013E00007D288F8F853D8F8F80300F00700A842AD
:1013F00076D12068810717D5410705D5D8F80010A8
:1014000041F4E051C8F80010010705D5D8F80010E4
:1014100041F46041C8F80010D8F80010A26821F02B
:10142000F0011143C8F80010C0073FD1D8F8F80305
:1014300000F00700A84207D988F8F853D8F8F80355
:1014400000F00700A8424BD12068410707D5D8F823
:101450000010E26821F4E0511143C8F800100007C1
:1014600008D5D8F80000216920F4604040EAC100A6
:10147000C8F8000000F09CF8D8F8001047F22422C9
:10148000C1F30311C0F60002515C40F2180220FAC9
:1014900001F140F21000C2F200000068C2F2000246
:1014A0001160FFF717FE0020BDE8F0816068811E23
:1014B000022907D258F8081C89015CBF0120BDE849
:1014C000F08111E0012807D158F8081C89035CBF9E
:1014D0000120BDE8F08107E058F8081C890703D413
:1014E0000120BDE8F08100BFD8F8001021F0030111
:1014F0000843C8F80000FFF7BDFD064641F28837F3
:10150000D8F80000616800F00C00B0EB810F8DD0BE
:10151000FFF7B0FD801BB842F2D90320BDE8F0818F
:101520000F22026043F60802C4F20202136803F0BD
:1015300003034360136803F0F0038360136803F44C
:10154000E053C360D2F800C04FF4E05303EADC0379
:101550000361D2F8F80300F007000860704700004C
:1015600040F2180043F60801C2F20000C4F2020182
:101570000068096847F23422C1F38221C0F60002F4
:10158000515CC8407047000040F2180043F6080163
:10159000C2F20000C4F202010068096847F2342276
:1015A000C1F34231C0F60002515CC84070470000F0
:1015B00010B543F60404C4F20204606800F00C01A4
:1015C00042F200400829C0F2F40007D0042918BFF5
:1015D00010BD41F20020C0F27A0010BD216801F078
:1015E0003F02216823684902C3F3881106D4A1FB96
:1015F00000010023FEF7E4FD07E000BF41F20020F8
:10160000C0F27A004843B0FBF2F021680222C1F335
:10161000014102EB4101B0FBF1F010BD2DE9F041B9
:1016200082B0002868D00446007843F60006C00760
:10163000C4F202060BD0B06800F00C00042840F0A1
:101640009F803068800302D56068002854D02078DD
:1016500080071AD5B06810F00C0F09D0B06800F000
:101660000C00082840F0A6807068400200F1A280BB
:101670003068800702D5E06801283DD130682169D3
:1016800020F0F80040EAC10030602078000737D42D
:10169000207840074CD4A56955B3B06800F00C0021
:1016A000082840F0BB80012D26D07068E16900F465
:1016B00080028A4220D1216A00F03F028A421BD177
:1016C00047F6C071626A0140B1EB821F14D1A16A72
:1016D0004FF6FF73C903994300F44032A1F58031FE
:1016E0008A4209D1E16A00F07060B0EB016F03D16A
:1016F000002002B0BDE8F081012002B0BDE8F08119
:101700006069002840F20000C4F2472076D0012131
:10171000C0F8801EFFF7AEFC054600BF706F800763
:10172000B6D4FFF7A7FC401B0228F7D9DDE000BFC5
:10173000306C10F080580AD100200190306C40F0DD
:1017400080503064306C00F080500190019847F276
:101750000007C4F200073868C00541D4386840F477
:1017600080703860FFF786FC054600BF3868C0050A
:1017700036D4FFF77FFC401B0228F7D9B5E000BF45
:10178000B06800F00C00082803D1706840023FF5F3
:1017900058AF6068B0F5803F07D0B0F5A02F40F09B
:1017A0008D80306840F480203060306840F48030B4
:1017B00030608DE0E068002852D00020C4F247205D
:1017C00001210160FFF756FC054600BF3068800725
:1017D0003FF554AFFFF74EFC401B0228F6D984E0DA
:1017E000A068012805D005284ED1306F40F00400D4
:1017F0003067306F40F0010030674FE00021C0F8E3
:10180000801EFFF737FC0546706F80077FF540AFFD
:10181000FFF730FC401B0228F6D966E00027C4F22F
:10182000472700203866FFF725FC022D05460BD11F
:10183000306880015ED5FFF71DFC401B02284FF089
:101840000300F5D955E700BF306880017FF550AF40
:10185000FFF710FC401B02284FF00300F4D948E7C3
:101860000020C4F2472000210160FFF703FC054679
:10187000306880077FF509AFFFF7FCFB401B0228AB
:101880004FF00300F4D934E7316F002821F0010153
:101890003167316F21F0040131674DD0FFF7EAFB6A
:1018A000054641F2883700BF306F800756D4FFF7F6
:1018B000E1FB401BB842F7D917E000BF31680028B0
:1018C00021F480313160316821F4802131604FD0C2
:1018D000FFF7D0FB054600BF306880033FF5B7AE89
:1018E000FFF7C8FB401B6428F6D9032002B0BDE80F
:1018F000F08100BF04F11C052FCD084340EA82109F
:10190000D9034FF6FF729143A1F5803140EA05609B
:101910000843706001203866FFF7ACFB044600BF47
:10192000306880013FF5E4AEFFF7A4FB001B0228FE
:101930004FF00300F4D9DCE6FFF79CFB054641F2CB
:10194000883700BF306F800708D5FFF793FB401B37
:10195000B8424FF00300F5D9CBE600BFB8F1000F55
:101960007FF499AE306C20F08050306493E600BF75
:10197000FFF780FB054600BF306880037FF567AE48
:10198000FFF778FB401B64284FF00300F4D9B0E662
:1019900070470000006800EB8100006D7047000098
:1019A000006800EB810002657047000010B581B04F
:1019B00040F21803C2F20003D3F800C044F6D35338
:1019C000C1F26203ACFB033C4FEADC2C4FF47A73A8
:1019D0000CFB03FECDF800E0037F4FF0020C012B5F
:1019E00000F0848080F81DC00468CA23636253231A
:1019F0006362A3685B054FD4A36823F48063A3608C
:101A0000E36863F4906323F48063E360CDF800E05F
:101A1000009B013B0093009B002B5FD0E3685B07BA
:101A20001AD4009B013B0093009B002B56D0E36827
:101A30005B0711D4009B013B0093009B002B4DD012
:101A4000E3685B0708D4009B013B0093009B002BDD
:101A500044D0E3685B07DBD5A3684FF0000C23F0AC
:101A60000703A360A3681A43A260616143F60041C3
:101A7000C4F201010A6842F480020A608A6842F4F2
:101A800080028A60A16841F48041A160A16841F4AC
:101A90008061A160012124E0009B013B0093009B39
:101AA000E3B1E3685B07A7D5009B013B0093009B74
:101AB000A3B1E3685B079FD5009B013B0093009BAC
:101AC00063B1E3685B0797D5009B013B0093009BE4
:101AD00023B1E3685B07DFD48EE700BF03214FF03B
:101AE000030CFF226262417700210177604601B05A
:101AF00010BD00007047000010B5044643F61440C6
:101B0000C4F201004FF4800101602068C1684905FA
:101B100008D5C16861F4906121F48061C1602046FC
:101B2000FFF7E8FF0120607710BD0000704700005C
:101B300010B5044643F61440C4F201004FF40031DE
:101B4000016020688168C90444BFC1685FEAC1516F
:101B50000AD48168890444BFC1685FEA81510FD407
:101B60000120607710BD00BFC16861F4C07121F42D
:101B70008071C1602046FFF7D9FF2068E9E700BF08
:101B8000C16861F4207121F40071C1602046FFF743
:101B9000FFFE0120607710BD10B5006840684FEA75
:101BA0001043C0F3042E00F03F0CC0F34234CB705E
:101BB00081F801E081F802C00C700AB1002010BD6C
:101BC000DCB2240904EB840403F00F0303EB4403A9
:101BD000020ACB704FEA1E1343EA830302F00F029E
:101BE00002EB43024A704FEA1C1242EA820200F002
:101BF0000F0000EB42008870002010BD10B5006897
:101C0000836A4B6003696FF3DF338B600068C0F356
:101C10000543C0F3062E00F07F0CC0F380540B7018
:101C200081F801E081F802C0CC700AB1002010BD3B
:101C3000020C1B0943EA830302F00F0202EB43028A
:101C4000040A0A704FEA1E1202EB820204F00F032C
:101C500003EB42024A704FEA1C1202EB820200F0D0
:101C60000F0000EB42008870002010BDB0B50028C6
:101C70005FD00446407F20B900202077204600F046
:101C800071F8022060772168C868C0065ED4CA2057
:101C9000486253204862C868400615D4C86840F0BE
:101CA0008000C860FFF7E6F92168CA6852060BD4C5
:101CB000054600BFFFF7DEF9401BB0F57A7F49D833
:101CC0002168C8684006F5D588684FF6BF72CFF620
:101CD0008F7210408860D4E9010CD4E90335626941
:101CE00028438D681043284388600B61086940EAE7
:101CF0000C400861C86820F08000C86088688006D1
:101D00001AD447F65F70C0F20100C860FFF7B2F95D
:101D1000054600BF2168C86880060DD4FFF7AAF900
:101D2000401BB0F57A7FF5D9042060772068FF2149
:101D300041620120B0BD00BF086C20F4802008641F
:101D4000A0690A6C10430864FF2048620120607794
:101D50000020B0BD042060772068C168FF21416287
:101D60000120B0BD80B584B0006842F60002C4F224
:101D70000002002190420291019101D004B080BD87
:101D8000022000904FF4807003906846FFF772FACB
:101D9000002818BFFEF714FC40F63C60C4F2472050
:101DA00001210160032005210022FFF727FA03200B
:101DB000FFF710FA292005210022FFF71FFA29203A
:101DC000FFF708FA04B080BD2DE9F04781B040F27A
:101DD0001803C2F200031B6844F6D355C1F2620532
:101DE000A3FB0535EB0A4FF47A7503FB05FECDF82E
:101DF00000E0037F012B4FF0020300F02D814377B9
:101E0000D0F800C0002ADCF8083003F0400203D00C
:101E100042B90022CA7007E0C2B94FF0000881F849
:101E2000038016E0CA7892054C780B788D782402EE
:101E300044EA03432B44CC691A4391F820304D699E
:101E4000224342EA036242EA05045AE0CA784FEAB2
:101E500082580E784FF0CD09A6F10A04E2B202FBD7
:101E600009F2D30A4F7803EB8303A4EB43034FF04B
:101E7000010A8D780AEBD222092E88BF43EA0216A6
:101E8000A7F10A03F2B2DEB206FB09F6F40A04EB8C
:101E90008404A3EB44030AEBD624092F88BF43EA4A
:101EA0000417FBB21B0243EA0242A5F10A03DCB2AB
:101EB00004FB09F4E60A06EB86060AEBD424A3EB3E
:101EC0004603092D88BF43EA041591F82040EBB280
:101ED0001A44A4F10A03DDB205FB09F5EE0A06EB8C
:101EE0008606A3EB46030AEBD525092C88BF43EAF7
:101EF0000514CB694D6943EA08032B431A4342EAB0
:101F000004644A688B694D6ACA21CCF824105321B5
:101F1000CCF82410DCF80810B5F5807F3ED121F410
:101F20008071CCF80810DCF80C1061F4C07121F459
:101F30008071CCF80C1000990139009100990029AA
:101F400000F08280DCF80C10C9071DD1009901391E
:101F500000910099002977D0DCF80C10C90713D143
:101F6000009901390091009900296DD0DCF80C101E
:101F7000C90709D10099013900910099002963D05E
:101F8000DCF80C10C907D6D0CCF81C400CF1440585
:101F90004FF480514FF480743BE000BF21F4007196
:101FA000CCF80810DCF80C1061F4207121F40071F9
:101FB000CCF80C10CDF800E000990139009100999F
:101FC000002941D0DCF80C1089071AD40099013996
:101FD00000910099C1B3DCF80C10890711D4009965
:101FE00001390091009979B3DCF80C10890708D405
:101FF000009901390091009931B3DCF80C10890780
:10200000DAD5CCF820400CF148054FF400514FF4DC
:1020100000741A432A60DCF8082000232243CCF81D
:102020000820DCF808201143CCF8081043F60041E2
:10203000C4F201010A6842F400320A608A6842F47C
:1020400000328A60012101E003210323FF22CCF842
:102050002420417700210177184601B0BDE8F087C0
:102060002DE9F0410446007F01284FF0020008BF2F
:10207000BDE8F0810123237760773AB14878CA78C8
:102080008E78000240EA024842E000BF48784FF0F4
:10209000CD0CC20642BF00F0EF000A304870CA788B
:1020A0004FF0010EA2F10A03DFB207FB0CF7FD0AA5
:1020B00005EB8505A3EB45038E780EEBD727092AA0
:1020C00088BF43EA0712A0F10A03DFB207FB0CF74F
:1020D000FD0A05EB8505A3EB45030EEBD725092883
:1020E00088BF43EA0510C0B2D2B2000240EA0248FB
:1020F000A6F10A00C2B202FB0CF2D30A03EB83037F
:10210000A0EB43000EEBD222092E88BF40EA021654
:102110000F782168CA20486253204862C868400688
:1021200014D4C86840F08000C860FEF7A3FF21689F
:10213000CA6852060AD40546FEF79CFF401BB0F55C
:102140007A7F35D82168C8684006F5D5F0B240EAF4
:1021500008007A0320F0C00010434860C86820F0EF
:102160008000C8608868800618D447F65F70C0F2A7
:102170000100C860FEF77EFF054600BF2168C86801
:1021800080060BD4FEF776FF401BB0F57A7FF5D9B9
:10219000042060772168012003E000BF0120607700
:1021A0000020FF224A6200212177BDE8F08100BFB4
:1021B000042060772168C8680120F2E72DE9F04724
:1021C0000446007F01284FF0020008BFBDE8F087F9
:1021D0000D460121217760772168886800F0400072
:1021E00032B158B94FF0000885F8038009E000BF0C
:1021F00080B94FF0000885F803800EE0E8784FEAD8
:1022000080586A78287895F802A0120242EA0049BC
:1022100041E000BFE8784FEA805828784FF0CD0CB5
:10222000A0F10A03DEB206FB0CF6F70A6A7807EBA8
:102230008707A3EB47034FF0010E95F802A00EEBC2
:10224000D626092888BF43EA0610A2F10A03DEB2A7
:1022500006FB0CF6F70A07EB8707A3EB47030EEB29
:10226000D626092A88BF43EA0612D2B2C0B21202A9
:1022700042EA0049AAF10A00C2B202FB0CF2D30AF8
:1022800003EB8303A0EB43000EEBD222BAF1090F5C
:1022900088BF40EA021ACA20486253204862C868D0
:1022A000400615D4C86840F08000C860FEF7E2FE22
:1022B0002168CA6852060BD4064600BFFEF7DAFE54
:1022C000801BB0F57A7F43D82168C8684006F5D5F1
:1022D0005FFA8AF040EA090047F67F7240EA080098
:1022E000C0F27F0210400860886820F48020886077
:1022F000D5E903028B68104318438860C86820F052
:102300008000C8608868800618D447F65F70C0F205
:102310000100C860FEF7AEFE054600BF2168C86830
:1023200080060BD4FEF7A6FE401BB0F57A7FF5D9E8
:10233000042060772168012003E000BF012060775E
:102340000020FF224A6200212177BDE8F08700BF0C
:10235000042060772168C8680120F2E77047000018
:1023600070470000002804BF0120704710B50446E4
:1023700090F83D0028B9002084F83C00204600F089
:102380001FF8022084F83D002068211D02F05CF94E
:10239000012084F8460084F83E0084F83F0084F869
:1023A000400084F8410084F8420084F8430084F837
:1023B000440084F8450084F83D00002010BD000072
:1023C0007047000090F83D1001291CBF01207047A4
:1023D000022180F83D10006841F2FF72C168C4F22A
:1023E0000002904241F00101C1600DDC40F2FF713A
:1023F000C4F20001884215DCB0F1804F2AD040F2CF
:102400000041C4F2000123E040F2FF31C4F20101B7
:10241000884213DC41F60001C4F20001884219D061
:10242000002113E040F60001C4F20001884211D0FF
:1024300040F60041C4F200010AE000BF44F200018E
:10244000C4F20101884205D040F20041C4F201010A
:10245000884206D1816801F00701062904BF0020E7
:102460007047016841F001010160002070470000E1
:102470007047000070B504460068C5680669B1077A
:1024800016D515F0020113D06FF002010161012190
:1024900021778069800703D02046FFF7E9FF05E038
:1024A000204600F08FF8204600F08EF800202077BC
:1024B000700719D515F0040016D020686FF00401DC
:1024C000016102212177806910F4407F04D0204609
:1024D000FFF7CEFF06E000BF204600F073F820466D
:1024E00000F072F800202077300717D515F00800AB
:1024F00014D020686FF00801016104212177C069C0
:10250000800703D02046FFF7B3FF05E0204600F028
:1025100059F8204600F058F800202077F00619D529
:1025200015F0100016D020686FF01001016108212D
:102530002177C06910F4407F04D02046FFF798FF50
:1025400006E000BF204600F03DF8204600F03CF8D1
:1025500000202077F00718BF15F0010002D13006E7
:1025600009D412E020686FF001010161204600F0FB
:102570002DF8300609D515F0800006D020686FF0E0
:10258000800101612046FFF7E9FE700609D515F0CC
:10259000400006D020686FF040010161204600F045
:1025A0001FF8B00658BF70BD15F0200008D0216894
:1025B0006FF0200220460A61BDE87040FFF7D0BEF0
:1025C00070BD00007047000070470000006841F2D5
:1025D0000041C4F20001884218BF7047FEF750BDA9
:1025E0007047000081B090F84230202B08D10029BC
:1025F0004FF0010318BF002A06D1184601B07047FA
:102600000223184601B0704701230363002343638C
:10261000816222218285C285436480F8421002696A
:1026200001681AB1CA6842F48072CA604A6942F00D
:1026300001024A61CA6842F02002CA60026B012AA4
:1026400030D1002200920A680092496800910099F6
:10265000016851E8031F026841F0100142E80313CA
:10266000DBB1016851E8031F026841F0100142E844
:10267000031393B1016851E8031F026841F0100190
:1026800042E803134BB1016851E8031F026841F0AF
:10269000100142E80313002BDAD10023184601B0E1
:1026A000704700BF0123184601B0704770B540F273
:1026B0002C74C2F20004A04212D040F27474C2F230
:1026C0000004A04218BF70BD40F23800C2F2000002
:1026D00040F60C758068C2F2000500260AE000BFD3
:1026E00040F23800C2F2000040F60C554068C2F2D9
:1026F000000500266E5429460022002302F070FADD
:10270000204629464FF4007284F84060BDE87040CE
:10271000FFF768BF70470000B0B582B0044600689C
:102720000168C368426901F02F05202D03F02005E0
:1027300006D12DB1204602B0BDE8B04002F030B85D
:102740005FEA017C1EBF02F0010E03F4907212EBEF
:102750000E0253D1226B012A05D111F0100218BFCD
:1027600013F0100236D10A0622D513F080021FD0D2
:1027700094F8411021293FD1A168B1F5805F03D1C0
:102780002169002900F07282216A4A1C22620978BC
:102790004160E18C01390A04E1842DD1C16821F046
:1027A0008001C160C16841F04001C16002B0B0BDAC
:1027B000490621D513F040011ED0C16821F0400127
:1027C000C1602021204684F8411002B0BDE8B0402D
:1027D00000F0F6BB0021019101680191416801916F
:1027E00001994069400613D4A08DE18DE28D002A45
:1027F00018BF884240F0BC8102B0B0BDCA0718BF04
:1028000013F4807240F0B8804A0700F1BB80C0E04A
:10281000E06B016849688AB2002AEDD0A38D9A4224
:10282000EAD2E185C069B0F5807F00F09C80206825
:1028300050E8030F216820F4807041E80302DAB108
:10284000206850E8030F216820F4807041E80302FB
:1028500092B1206850E8030F216820F4807041E8AD
:1028600003024AB1206850E8030F216820F4807009
:1028700041E80302002ADAD1206850E8050F2168F8
:1028800020F0010041E80502DAB1206850E8050FA8
:10289000216820F0010041E8050292B1206850E86B
:1028A000050F216820F0010041E805024AB12068C7
:1028B00050E8050F216820F0010041E80502002AD8
:1028C000DAD1206850E8050F216820F0400041E887
:1028D0000502DAB1206850E8050F216820F04000B9
:1028E00041E8050292B1206850E8050F216820F008
:1028F000400041E805024AB1206850E8050F216810
:1029000020F0400041E80502002ADAD1202084F8B6
:10291000420000202063206850E8030F216820F067
:10292000100041E80302DAB1206850E8030F216883
:1029300020F0100041E8030292B1206850E8030F34
:10294000216820F0100041E803024AB1206850E8F5
:10295000030F216820F0100041E80302002ADAD1B9
:10296000E06BFEF7A7F802206063A08DE18D401AAE
:1029700081B2204675E100BF626C42F001026264E0
:102980004A0706D5BEF1000F03D0626C42F0020286
:1029900062648A0706D5BEF1000F03D0626C42F074
:1029A00004026264BCF1000F09D545EA0E02B2FAD6
:1029B00082F2520903D1626C42F008026264626CD6
:1029C000002A3FF419AF11F0200118BF002D03D0E9
:1029D000204601F0E5FE20684069616C00F040008F
:1029E00001F00801401800F0B58000BF206850E8F1
:1029F000030F216820F4907041E80302BAB3206805
:102A000050E8030F216820F4907041E8030272B38C
:102A1000206850E8030F216820F4907041E8030219
:102A20002AB3206850E8030F216820F4907041E831
:102A30000302002ADAD11AE0206850E8050F216865
:102A400020F0010041E80502DAB1206850E8050FE6
:102A5000216820F0010041E8050292B1206850E8A9
:102A6000050F216820F0010041E805024AB1206805
:102A700050E8050F216820F0010041E80502002A16
:102A8000DAD1206B012824D1206850E8030F216897
:102A900020F0100041E80302DAB1206850E8030F8B
:102AA000216820F0100041E8030292B1206850E84C
:102AB000030F216820F0100041E803024AB12068AA
:102AC00050E8030F216820F0100041E80302002ABB
:102AD000DAD1202084F84200002020632068406979
:102AE00040063FD5206850E8050F216820F04000DF
:102AF00041E80502DAB1206850E8050F216820F0AE
:102B0000400041E8050292B1206850E8050F2168B5
:102B100020F0400041E805024AB1206850E8050F66
:102B2000216820F0400041E80502002ADAD1E06B7C
:102B3000C0B144F29571C0F600010165FEF702F8DC
:102B400000283FF459AEE06B016D02B0BDE8B04023
:102B5000084700BF2046FFF7DDFD0020606402B09B
:102B6000B0BD00BF204602B0BDE8B040FFF7D2BD07
:102B7000401A216851E8031F226821F4907142E84D
:102B80000313DBB1216851E8031F226821F490711F
:102B900042E8031393B1216851E8031F226821F42E
:102BA000907142E803134BB1216851E8031F22687A
:102BB00021F4907142E80313002BDAD1216851E827
:102BC000051F226821F0010142E80513DBB12168ED
:102BD00051E8051F226821F0010142E8051393B175
:102BE000216851E8051F226821F0010142E8051320
:102BF0004BB1216851E8051F226821F0010142E82C
:102C00000513002BDAD1202184F842100021216322
:102C1000216851E8031F226821F0100142E80313E4
:102C2000DBB1216851E8031F226821F0100142E85E
:102C3000031393B1216851E8031F226821F01001AA
:102C400042E803134BB1216851E8031F226821F0C9
:102C5000100142E80313002BDAD1022281B2204690
:102C6000626302B0BDE8B040FFF720BD216A31F8D1
:102C7000022B6FF35F22426021628AE5002804BFC5
:102C80000120704710B5044690F8410028B9002093
:102C900084F84000204600F021F8242084F8410008
:102CA0002068C16821F40051C160204601F0F8FDA0
:102CB0002068016921F490410161416921F02A01F4
:102CC0004161C16841F40051C1600020202160646D
:102CD00084F8411084F84210606310BD2DE9F04380
:102CE00087B00446006841F20041C4F201010026A9
:102CF0008842CDE90566CDE90366029632D041F2FD
:102D00000001C4F20101884240F09980002043F69E
:102D100030010190C4F202014A6942F010024A6196
:102D20004A6902F010020192019A01900A6842F089
:102D300001020A60096801F00101019101994FF453
:102D4000C06102910221CDE9031003200590072004
:102D500006900020C4F2020002A9FEF7ABF8252479
:102D600065E000BF43F630000196C4F202004169FD
:102D700046F2284841F0200141614169C4F202084D
:102D800001F02001019101990196016841F00401CF
:102D90000160006802A900F0040001900198C020C1
:102DA00002900220CDE9030603200590082006903A
:102DB0000020C4F2020000F50060FEF77BF840F24C
:102DC0002465C2F200054FF020674FF48069284661
:102DD000C5E90087C5E90266C5E90496C5E9066646
:102DE000C5E90866FDF7A0FF002818BFFDF7E8FB5E
:102DF000E563AC6340F2846508F17800C2F2000537
:102E00004021C5E9000705F10800002280E806021C
:102E10002846C5E90522C5E907226A62FDF784FF55
:102E2000002818BFFDF7CCFBA563AC634724204600
:102E300005210022FEF7E2F92046FEF7CBF907B0A4
:102E4000BDE8F083704700002DE9F041044690F89A
:102E5000410020281CBF0220BDE8F0810D4600295A
:102E60004FF0010000F0AA801646002A08BFBDE816
:102E7000F081002060642120984684F84100FEF72C
:102E8000F9F8A684E684A1680646B1F5805F02D110
:102E90002069002862D02F460025E08C002861D0F0
:102EA00018F1010018D0B8F1000F37D1216808E0FF
:102EB00017F8010B4860E08C0138E084E08C0028B2
:102EC00051D00868000673D5002FF1D135F8020BF8
:102ED00000276FF35F20EDE7216802E00868000635
:102EE00009D40868000606D4086800065CBF0868B4
:102EF0005FEA0060F2D51FB117F8010B05E000BFD3
:102F000035F8020B00276FF35F204860E08C013832
:102F1000E084E08C0028E4D125E000BF216800BFF8
:102F20000868000608D4FEF7A5F8801B404541D884
:102F30002168C868F4E700BF17B117F8010B04E077
:102F400035F8020B00276FF35F204860E08C0138F2
:102F5000E084E08C0028E3D105E000BF0027E08C8E
:102F600000289DD12168086840061FD4B8F1000FE1
:102F70001ED018F101000FD10868400616D4086869
:102F8000400613D40868400610D4086840064FF085
:102F90000000F1D50FE000BFFEF76CF8801B404544
:102FA00008D82068C16800684006F5D5002002E016
:102FB000FEF760F80320202184F84110BDE8F0817D
:102FC00070470000FEE7000080B582B0002001904D
:102FD00043F63000C4F202000168002241F480018F
:102FE00001600068052100F48000019001983920FB
:102FF000FEF704F93920FEF7EDF8452005210022FF
:10300000FEF7FCF8452002B0BDE88040FEF7E2B8CC
:1030100010B540F26814C2F2000440F21C00611CBA
:10302000C2F20000FDF7D0FA207010BD10B547F6CF
:103030005C32C0F6000204204FF4007101F086FDFE
:1030400040F23804C2F2000447F674326060C0F601
:10305000000204204FF4007101F078FDA06044F2FA
:10306000691048F60C12C0F60000C0F600020021FC
:1030700001F00AFEE06044F2292048F65412C0F63E
:103080000000C0F60002002101F0FEFD206144F2C4
:10309000693048F67812C0F60000C0F60002002140
:1030A00001F0F2FD606144F2014048F65022C0F6A2
:1030B0000000C0F60002002101F0E6FDA06144F22C
:1030C000595048F69C12C0F60000C0F600020021DC
:1030D00001F0DAFDE06144F2711048F63012C0F6FA
:1030E0000000C0F60002002101F0CEFD206210BDFC
:1030F0002DE9F04786B0002743F63000CDE904778C
:103100000097C4F20200016841F2000541F010018D
:1031100001600168C4F2020501F0100100910099FC
:1031200000970168002241F00401016001684FF43A
:103130007F4901F00401009100990097016841F076
:1031400080010160016801F0800100910099009701
:10315000016841F001010160016801F00101009185
:1031600000990097016841F00201016000684FF486
:103170007F4100F00200009000982846FDF774FFA0
:10318000A5F540642046C02100224FF0C008FDF79D
:103190006BFF1E2001AECDE901074FF0010A284662
:1031A0003146CDF80CA0FDF785FE6020CDE9010782
:1031B0000220039028463146FDF77CFE2846314622
:1031C000CDE9019ACDE90377FDF774FE204631463B
:1031D000CDE9018ACDE90377FDF76CFE06B0BDE8C5
:1031E000F087000070B596B0002501A82821CDE930
:1031F0000D55CDE90B55FDF72DF840F27014C2F2D4
:10320000000442F60001C4F20001204640F8041F09
:103210007F21FF22C0E90151C0E90325C0E905551E
:10322000FEF724FD002818BFFDF7CAF90434204634
:1032300000210025FEF7AEFB45F2500188426FD019
:103240002046002145F25002FEF7AAFB0CA92046B9
:103250000122ADF830508DF83250CDE90F55FEF710
:10326000ADFF002818BFFDF7ABF940F20110C0F226
:1032700001000B900BA9204601220125FEF7F0FE6C
:10328000002818BFFDF79CF90020ADF804008DF868
:1032900006000290CDE90400CDE9060008904FF445
:1032A00080700A9001A9204601228DF82450FEF773
:1032B0008BFD002818BFFDF783F92046002100226E
:1032C0000025FEF773FB002818BFFDF779F940F2DF
:1032D0000406C2F20006708831791595CDE91355C0
:1032E000CDE91155ADF844008DF8461011A92046DE
:1032F0000022FEF763FFF08841F2630201095143A7
:10330000C90C4FF4FA6201FB1200318811958DF857
:103310004700ADF8451011A920460022FEF7A0FE97
:1033200016B070BD80B540F22C7041F20001C2F2BF
:103330000000C4F2010100234FF00C0C4FF4E13205
:1033400080E80E00C0E90333C0E905C3C361FFF79D
:1033500095FC002808BF80BDBDE88040FDF730B96E
:1033600080B540F2747041F20041C2F20000C4F234
:10337000010100234FF00C0C4FF4E13280E80E0005
:10338000C0E90333C0E905C3C361FFF777FC002838
:1033900008BF80BDBDE88040FDF712B9FEE7000020
:1033A000FEE70000B0B582B040F20044C4F202046F
:1033B000204680210122FDF757FE0A25009500983E
:1033C000A8B100BF009801380090009878B100982B
:1033D00001380090009850B1009801380090009892
:1033E00028B100980138009000980028EAD12046C2
:1033F00040210122FDF738FE01950198A8B100BFD8
:10340000019801380190019878B101980138019034
:10341000019850B1019801380190019828B10198A4
:103420000138019001980028EAD12046402100226D
:1034300002B0BDE8B040FDF717BE0000F0B583B0A4
:1034400040F20045C4F2020504462846402100220D
:103450000026FDF709FE0A2705E000BF6400072EDD
:1034600006F101065ED2E0B2C20928468021FDF7CE
:10347000FBFD00970098A0B10098013800900098DB
:1034800078B1009801380090009850B10098013848
:103490000090009828B1009801380090009800280A
:1034A000EAD1284640210122FDF7DEFD019701986F
:1034B000A8B100BF019801380190019878B1019836
:1034C00001380190019850B101980138019001989C
:1034D00028B101980138019001980028EAD12846C6
:1034E00040210022FDF7C0FD029702980028B5D0C8
:1034F00002980138029002980028AFD00298013853
:10350000029002980028A9D00298013802900298EF
:103510000028A3D002980138029002980028E7D131
:103520009CE700BF03B0F0BDB0B582B040F20044EC
:10353000C4F20204204680210122FDF795FD2046B9
:1035400040210122FDF790FD0A2500950098A0B1C9
:10355000009801380090009878B1009801380090E8
:10356000009850B1009801380090009828B1009858
:103570000138009000980028EAD1204680210022DE
:10358000FDF772FD01950198A8B100BF01980138BF
:103590000190019878B1019801380190019850B1DB
:1035A000019801380190019828B1019801380190E3
:1035B00001980028EAD120464021002202B0BDE84F
:1035C000B040FDF751BD0000B0B582B040F20044FC
:1035D000C4F20204204640210022FDF745FD2046AA
:1035E00080210022FDF740FD0A2500950098A0B13A
:1035F000009801380090009878B100980138009048
:10360000009850B1009801380090009828B10098B7
:103610000138009000980028EAD12046402101227C
:10362000FDF722FD204680210122FDF71DFD0195B9
:103630000198A0B1019801380190019878B10198E2
:1036400001380190019850B101980138019001981A
:1036500028B101980138019001980028EAD102B000
:10366000B0BD0000000000000000000000000000ED
:10367000EFF30980BFF36F8F154B1A681EF0100F20
:1036800008BF20ED108A20E9F04F10602DE90900F5
:103690004FF0500080F31188BFF34F8FBFF36F8F4F
:1036A00002F0FAFB4FF0000080F31188BDE809003A
:1036B00019680868B0E8F04F1EF0100F08BFB0ECB2
:1036C000108A80F30988BFF36F8F704700BF00BF77
:1036D0006400002040F27410C2F20000FEF728BA25
:1036E00040F27410C2F20000FEF706BAB0B586B020
:1036F00040F27015C2F2000500202C1DCDE9040037
:10370000CDE90200CDE9000001A920460022FEF724
:1037100075FA28B9694620460022FEF73DFA18B12D
:10372000012006B0B0BD00BF02986322C0F1FF00C7
:10373000504348F281029DF80310C8F28002A0FBBA
:10374000020201F5FA6040F20401C2F20001BDF884
:103750000130C8809DF804000B80BDF805308870EA
:10376000D009A1F803302870002006B0B0BD0000D9
:103770002DE9F04381B07F2823D889463F2920D8FE
:1037800004461044DDF820807F2888BFC4F1800201
:1037900003EB090011193F2888BFC9F1400300203D
:1037A0008EB29FB2002500BF484481B22046324607
:1037B0000B46CDF8008000F007F80135E8B28742EB
:1037C000F2D201B0BDE8F0832DE9F04F84B07F283C
:1037D0004FF07F0C28BF60467F2A38BF94463F29B0
:1037E0004FF03F0228BF11463F2B38BF1A46B0EBBF
:1037F0000C0538BFACEB0005541A4FF0FF37DDF86D
:1038000034804FF0FF3388BF0127029798BF8C1A8E
:10381000604538BF01232E04039369D00FFA84FA60
:10382000BAF1000F00F0A4800FFA85FE7546D64568
:10383000D8BFCAF10005EFB205EBD71540F2C017AB
:10384000C2F2000797F80090B8FA88F701927A0957
:10385000A8F10107B7FA87F76DB2B9F1000F08BFF9
:103860007A09CEF10007019B6D100FFA87FB0092D9
:103870001FFA81F9B9F13F0F22D800BF1FFA80F873
:10388000B8F17F0F1CD84FF68072C0F20F0202EA27
:10389000011240F2C41812FA80F2C2F2000801F0DC
:1038A000070318F80260012404FA03F3009C26EAD7
:1038B0000307002C18BF46EA0307019B08F80270B3
:1038C00082B2624508BF99454ED02AB25A45C8BF58
:1038D000A5EB0A05039EC8BF30445245029ABCBFFF
:1038E000114475441FFA81F9B9F13F0FC6D9E7E7D2
:1038F00040F2C0178A428A46C2F2000788BF924649
:1039000038BF1146844538BF60463E784FF680790F
:10391000B8FA88F740F2C414C0F20F094FEA571EF4
:10392000A8F10105002E4FEA01164FF0010CC2F27A
:103930000004B5FA85F508BF4FEA551E06EA0905E9
:10394000054301F00702635D0CFA02F223EA020765
:10395000BEF1000F18BF43EA0207514501F1010112
:1039600006F110066755E9D304B0BDE8F08F00BF3B
:1039700040F2C01384458146C2F2000388BFE1468D
:1039800038BF60468A4238BF11461F78B8FA88F3BC
:10399000A8F101065B09B6FA86F6002F08BF730985
:1039A00001F00707012640F2C41506FA07F701F0F7
:1039B0003806C2F20005F943013005EB061C00BFD2
:1039C0000CEB000515F8014C461E04EA0102002B21
:1039D00018BF44EA07024E4505F8012CC4D21CF872
:1039E0000020002B02EA010618BF42EA07064845FC
:1039F0000CF80060B8D26A78461C02EA0104002B79
:103A000018BF42EA07044E456C70ADD2AA78002B6D
:103A100002EA010618BF42EA0706821C04304A4542
:103A2000AE70CDD3A0E700007F2898BF3F2901D911
:103A3000704700BFB0B540F2C013C2F2000393F864
:103A400000C0B2FA82F3013A5B09B2FA82F2BCF129
:103A5000000F08BF53096FF0700201F0070E02EA71
:103A6000011140F2C4150844C2F200054FF0010CE8
:103A70002A5C0CFA0EF122EA0104002B18BF42EA7C
:103A800001042C54BDE8B04070470000F0B581B08F
:103A900040F2C410C2F20000441E0025FFF744FDAE
:103AA0007820FFF7CBFCFFF77DFC0020FFF7C6FC7A
:103AB000FFF778FCA5F15000C0B2FFF7BFFCFFF79D
:103AC00071FCFFF781FDFFF72FFD7820FFF7B6FCB3
:103AD000FFF768FC0020FFF7B1FCFFF763FC002054
:103AE000FFF7ACFCFFF75EFCFFF76EFDFFF71CFD78
:103AF0007820FFF7A3FCFFF755FC0020FFF79EFCA2
:103B0000FFF750FC1020FFF799FCFFF74BFCFFF785
:103B10005BFDFFF709FD7820FFF790FCFFF742FC03
:103B20004020FFF78BFCFFF73DFC8026274600BFB7
:103B300017F8010FFFF782FCFFF734FC013EF7D1C5
:103B4000FFF742FD0135082D04F18004A6D101B034
:103B5000F0BD000080B56420FDF798F9FFF7E4FCA4
:103B60007820FFF76BFCFFF71DFC0020FFF766FCD9
:103B7000FFF718FCAE20FFF761FCFFF713FCFFF71F
:103B800023FDFFF7D1FC7820FFF758FCFFF70AFC74
:103B90000020FFF753FCFFF705FC2020FFF74EFC49
:103BA000FFF700FCFFF710FDFFF7BEFC7820FFF7E2
:103BB00045FCFFF7F7FB0020FFF740FCFFF7F2FBA7
:103BC0001020FFF73BFCFFF7EDFBFFF7FDFCFFF7D5
:103BD000ABFC7820FFF732FCFFF7E4FB0020FFF797
:103BE0002DFCFFF7DFFBB020FFF728FCFFF7DAFB27
:103BF000FFF7EAFCFFF798FC7820FFF71FFCFFF7C0
:103C0000D1FB0020FFF71AFCFFF7CCFBC820FFF721
:103C100015FCFFF7C7FBFFF7D7FCFFF785FC782003
:103C2000FFF70CFCFFF7BEFB0020FFF707FCFFF7D8
:103C3000B9FB0020FFF702FCFFF7B4FBFFF7C4FC61
:103C4000FFF772FC7820FFF7F9FBFFF7ABFB0020D2
:103C5000FFF7F4FBFFF7A6FB1020FFF7EFFBFFF7E2
:103C6000A1FBFFF7B1FCFFF75FFC7820FFF7E6FB55
:103C7000FFF798FB0020FFF7E1FBFFF793FB4020E5
:103C8000FFF7DCFBFFF78EFBFFF79EFCFFF74CFC1A
:103C90007820FFF7D3FBFFF785FB0020FFF7CEFB73
:103CA000FFF780FB8120FFF7C9FBFFF77BFBFFF7E6
:103CB0008BFCFFF739FC7820FFF7C0FBFFF772FBA6
:103CC0000020FFF7BBFBFFF76DFBFF20FFF7B6FB04
:103CD000FFF768FBFFF778FCFFF726FC7820FFF77B
:103CE000ADFBFFF75FFB0020FFF7A8FBFFF75AFBD8
:103CF000A020FFF7A3FBFFF755FBFFF765FCFFF7DD
:103D000013FC7820FFF79AFBFFF74CFB0020FFF72E
:103D100095FBFFF747FBC020FFF790FBFFF742FB47
:103D2000FFF752FCFFF700FC7820FFF787FBFFF757
:103D300039FB0020FFF782FBFFF734FBA620FFF7DB
:103D40007DFBFFF72FFBFFF73FFCFFF7EDFB782034
:103D5000FFF774FBFFF726FB0020FFF76FFBFFF771
:103D600021FBA820FFF76AFBFFF71CFBFFF72CFCE9
:103D7000FFF7DAFB7820FFF761FBFFF713FB00206A
:103D8000FFF75CFBFFF70EFB3F20FFF757FBFFF74A
:103D900009FBFFF719FCFFF7C7FB7820FFF74EFB85
:103DA000FFF700FB0020FFF749FBFFF7FBFAA42019
:103DB000FFF744FBFFF7F6FAFFF706FCFFF7B4FB4B
:103DC0007820FFF73BFBFFF7EDFA0020FFF736FB0B
:103DD000FFF7E8FAD320FFF731FBFFF7E3FAFFF72D
:103DE000F3FBFFF7A1FB7820FFF728FBFFF7DAFAD8
:103DF0000020FFF723FBFFF7D5FA0020FFF71EFB9B
:103E0000FFF7D0FAFFF7E0FBFFF78EFB7820FFF714
:103E100015FBFFF7C7FA0020FFF710FBFFF7C2FA08
:103E2000D520FFF70BFBFFF7BDFAFFF7CDFBFFF740
:103E30007BFB7820FFF702FBFFF7B4FA0020FFF7C7
:103E4000FDFAFFF7AFFAF020FFF7F8FAFFF7AAFA4A
:103E5000FFF7BAFBFFF768FB7820FFF7EFFAFFF7F1
:103E6000A1FA0020FFF7EAFAFFF79CFAD920FFF742
:103E7000E5FAFFF797FAFFF7A7FBFFF755FB782066
:103E8000FFF7DCFAFFF78EFA0020FFF7D7FAFFF70B
:103E900089FA2220FFF7D2FAFFF784FAFFF794FBA2
:103EA000FFF742FB7820FFF7C9FAFFF77BFA002003
:103EB000FFF7C4FAFFF776FADA20FFF7BFFAFFF749
:103EC00071FAFFF781FBFFF72FFB7820FFF7B6FAB7
:103ED000FFF768FA0020FFF7B1FAFFF763FA122044
:103EE000FFF7ACFAFFF75EFAFFF76EFBFFF71CFB7C
:103EF0007820FFF7A3FAFFF755FA0020FFF79EFAA4
:103F0000FFF750FADB20FFF799FAFFF74BFAFFF7BC
:103F10005BFBFFF709FB7820FFF790FAFFF742FA07
:103F20000020FFF78BFAFFF73DFA2020FFF786FA13
:103F3000FFF738FAFFF748FBFFF7F6FA7820FFF7AC
:103F40007DFAFFF72FFA0020FFF778FAFFF72AFA39
:103F50008D20FFF773FAFFF725FAFFF735FBFFF720
:103F6000E3FA7820FFF76AFAFFF71CFA0020FFF760
:103F700065FAFFF717FA1420FFF760FAFFF712FA55
:103F8000FFF722FBFFF7D0FA7820FFF757FAFFF789
:103F900009FA0020FFF752FAFFF704FAAF20FFF703
:103FA0004DFAFFF7FFF9FFF70FFB40F2C410C2F222
:103FB00000004FF48061FCF74DF9BDE88040FFF749
:103FC00065BD0000000000000000000000000000CF
:103FD000074B19680868B0E8F04F80F30988BFF311
:103FE0006F8F4FF0000080F31188704700BF00BF53
:103FF00064000020F0B581B041F20004C4F2020474
:1040000020460221FDF72AF8B0FA80F04009450069
:1040100020460421FDF722F8002820464FF0080131
:1040200008BF0435FDF71AF8002820464FF01001AC
:1040300008BF0835FDF712F8002820464FF0200190
:1040400008BF1035FDF70AF8012820464FF040015F
:1040500008BF45F02005FDF701F8012808BF45F02D
:1040600040054FF00006B5B30A2000F0E1FC204601
:104070000221FCF7F3FFB0FA80F040094700204628
:104080000421FCF7EBFF002820464FF0080108BF91
:104090000437FCF7E3FF002820464FF0100108BF6B
:1040A0000837FCF7DBFF002820464FF0200108BF4F
:1040B0001037FCF7D3FF012820464FF0400108BF1E
:1040C00047F02007FCF7CAFF012808BF47F0400768
:1040D000BD4208BF2E46F0B201B0F0BD70B541F24E
:1040E0000005044640B2C4F202050022B0F1FF3FD1
:1040F00028464FF48071C8BF0122FCF7B5FF0126A6
:1041000026EA941228464FF40071FCF7ADFF26EA28
:10411000541228464FF48061FCF7A6FF26EA1412D9
:1041200028464FF40061FCF79FFF26EAD402284698
:104130004FF48051FCF798FF26EA940228464FF48A
:104140000051FCF791FF26EA540228464FF48041C3
:10415000FCF78AFF26EA040228464FF40041BDE836
:104160007040FCF781BF0000012000F061FCFBE71C
:1041700086B0234840F2070B019021A0031D0ECB0F
:1041800000690DF1080C00270FF2880AC2F2000B3B
:104190000FF2840901AD23A64FF000088CE80E0051
:1041A00005901BE040F20600C2F2000002785FEAD0
:1041B000086048F64A2053469BF80040C0F60000CD
:1041C00008BF034628464946009402F019FE3046CF
:1041D000294602F005FE0A2000F02AFC00F038FC17
:1041E000B842DFD300F034FC00F5FA77FFF77EFA2F
:1041F0005FFA88F0B0FA80F04FEA5018D2E700BFBB
:10420000202020200000000000000000000000002E
:10421000000000002E000000253032642573253098
:104220003264000025730000FCF71CFC47F63C30AC
:10423000C0F60000FCF732FC40F2380948F6CC1A10
:1042400048F6EE1B48F6D51448F6362548F6F6161D
:1042500048F6432748F63B28C2F20009C0F6000A98
:10426000C0F6000BC0F60004C0F60005C0F600065C
:10427000C0F60007C0F6000809E000BF4021002298
:10428000FCF7E0FBFCF714FC0A2000F0D1FB99F8E6
:1042900000000528F8D8DFE800F007295B5F63031A
:1042A000FCF7EAFA4046E9E7D9F8240018B900F02B
:1042B000CFFBC9F82400FCF7DFFA48F6EA10C0F695
:1042C000000040210022FCF7BDFBFCF7F1FB00F0F1
:1042D000BFFBD9F8241001F5FA618842D4D301203C
:1042E00089F800000020C9F82400CDE7D9F828009B
:1042F00018B900F0ADFBC9F82800FCF7BDFA48F684
:10430000F210C0F6000040210022FCF79BFB504653
:1043100040211022FCF796FB584640212022FCF752
:1043200091FB204640213022FCF78CFBFCF7C0FBC0
:1043300000F08EFBD9F8281001F6B8318842A3D3DB
:10434000022089F800000020C9F828009CE700BF7F
:10435000FCF792FA284691E7FCF78EFA30468DE793
:10436000FCF78AFA384689E740F238054FF0010831
:10437000C2F200050426032705244FF00009FFF7C9
:1043800039FE02381E2815D8DFE800F0181414147E
:1043900014141E14141414141414101414141414D7
:1043A0001414141414141414141424002878022857
:1043B00008BF2C70012000F03BFBE0E728780228C2
:1043C00008BF2E70F6E700BF2878022808BF2F70BC
:1043D000F0E700BF2878012802D82F70EAE700BF75
:1043E0006978032808BF002906D0032804BF0129E3
:1043F00085F80190DEE700BF85F80180DAE700006C
:10440000ADF5007D40F22C7040F60C51C2F2000078
:10441000C2F200014FF40072FEF7E4F840F274704B
:1044200040F60C71C2F20000C2F200014FF40072BB
:10443000FEF7D8F840F2380840F23009C2F200081E
:104440006D460FF2EC0A0FF2F40BC2F200093DA622
:104450003EA740A403E000BF0A2000F0E9FAD8F824
:104460000400294600220A2300F02CFB80B92DA06D
:10447000294602F0B5FC2846FBF709FF82B240F25C
:104480007470C2F2000029464FF6FF73FEF7DCFCA1
:10449000D8F80800294600220A2300F013FB002860
:1044A000DAD15046294602F09BFC28465946FBF7D4
:1044B000DCFEA84204D92846FBF7F0FEC9F800004C
:1044C00028463146FBF7D1FEA84284BF4FF0FF30AB
:1044D000C9F8000028463946FBF7C7FEA8420BD9A9
:1044E000053000BF017839B1417829B1817819B11F
:1044F000C17804300029F5D128462146FBF7B5FEE6
:10450000A842A9D3063800BF01780029A4D0417879
:104510000029A1D0817800299ED0C17804300029DB
:10452000F2D199E755415254313A25730000000009
:1045300055415254363A257300000000434F4E4E09
:1045400045435400434C4F53454400004469737045
:104550003A000000474D5400012000F069FAFBE7E3
:1045600080B54EF21000CEF20000006802F044FA6E
:10457000012808BF80BDBDE8804001F0ADBD00004E
:10458000B0B592B0002443F640000B94CDE9094445
:104590000594CDE90344CDE901440094C4F202003E
:1045A0000168022541F080510160006800F08050F0
:1045B0000090009847F200000094C4F200000168E7
:1045C00041F4804101600068A82100F4804000901F
:1045D0000098052006904FF4803007900120089045
:1045E0004FF480000D9004200E90119006A80C95B9
:1045F000CDE90F15FDF712F810B172B6FEE700BF56
:104600000F20CDE901054FF4A05004904FF48050E5
:10461000059001A805210394FCF7D2FE10B172B6F3
:10462000FEE700BF12B0B0BD4EF68850CEF20000DB
:10463000016841F4700101607047000040F2E460DD
:10464000C2F20000FDF716BF10B540F6FF3E03684A
:10465000C4F2000E40F2004C7045C4F2010C27DC9D
:10466000B0F1804F31D040F20042C4F200029042DB
:104670002BD040F60002C4F20002904225D041F651
:10468000FF72C4F20002904229DC70453CDCB0F1BC
:10469000804F5FD040F20042C4F20002904259D0F5
:1046A00040F60002C4F20002904253D056E000BF30
:1046B00040F60042C4F20002904206D0604504D0A9
:1046C0000022C4F201029042D9D14A6823F070035B
:1046D000134341F6FF72C4F200029042D5DD43F667
:1046E000FF72C4F20102904222DC42F20002C4F2E4
:1046F000000290422ED00022C4F20102904229D042
:10470000604527D02AE000BF40F60042C4F2000214
:1047100090421FD041F60002C4F20002904219D02C
:1047200041F60042C4F20002904213D016E000BFEE
:1047300044F20002C4F2010290420BD044F600029F
:10474000C4F20102904205D044F20042C4F20102D8
:10475000904203D1CA6823F44073134323F08002CC
:104760004B69D1F800E08C681A430260C46240F4DF
:104770008062C0F828E0624504BF09690163012135
:1047800041610169C90708BF10BD016921F001013C
:10479000016110BD806B0021C185C184FDF7BABFE6
:1047A00081B090F84210222921D183680246B3F5E6
:1047B000805F09D152F8281F52F8183C002B63D0B3
:1047C00003685B680AE000BF52F8281F13B9036949
:1047D000002BF5D003685B6803F07F030B70116852
:1047E00001311160C18D01390A04C18502D001B0C7
:1047F000704700BF0168CA6822F02002CA60CA6818
:1048000022F48072CA604A6922F001024A612021C2
:1048100080F8421000214163026B012A3CD1016300
:10482000016851E8031F026821F0100142E80313F8
:10483000DBB1016851E8031F026821F0100142E872
:10484000031393B1016851E8031F026821F01001BE
:1048500042E803134BB1016851E8031F026821F0DD
:10486000100142E80313002BDAD101680A68D2066E
:1048700006D5002200920A680092496800910099CA
:10488000818D01B0FDF712BF026852686FF35F229D
:1048900021F8022B8162A5E701B0FEF7D3BA000030
:1048A00010B504460068D4E902C22369016921F405
:1048B000405111430161626943EA0C01E36911430C
:1048C000C268194349F20C639A431143C1604169BC
:1048D000A26921F4407141F20043114340F4806227
:1048E000C4F201039A42416102D1FCF74DFE01E09E
:1048F000FCF736FEE16963681922B1F5004FA0FBB1
:10490000020123D15A00DB0FFBF75AFC48F21F517A
:10491000C5F2EB11A0FB01235A094FF69C73C0F6B8
:10492000FF7303F1805302FB0300322303EBC0004B
:10493000A0FB01014FF4F87000EA111000EB021027
:10494000C1F3421108442168886010BD9A009B0F92
:10495000FBF736FC48F21F51C5F2EB11A0FB012317
:104960005A094FF69C73C0F6FF7302FB0300322313
:1049700003EB0010A0FB0101F02000EA511000EB56
:104980000210C1F3431108442168886010BD000083
:1049900040F22C70C2F20000FDF7BEBE40F274700F
:1049A000C2F20000FDF7B8BE40F21400C2F20000EF
:1049B0000121017000787047012070470020704786
:1049C00040F21400C2F2000001210170007870472B
:1049D00000207047FEE7000080B582B0019040F2F1
:1049E0002C70C2F2000001A901224FF6FF73FEF7FE
:1049F0002BFA019802B080BDFCF750FBFFF7C0FD19
:104A0000FEF776FBFEF7E0FAFEF702FBFEF7A8FCE6
:104A1000FEF7E8FBFEF786FC0020FFF75FFB00F0E7
:104A20001FF8FEF703FB00F02FF800BFFEE70000C1
:104A3000EFF3058100291CBF6FF0050070470028C7
:104A400004BF0020704780B501F0DCF8002080BD75
:104A5000EFF30580002808BF01F0DEBF01F0E2BFE0
:104A6000EFF3058000281CBF6FF00500704740F28F
:104A7000BC10C2F200000168002911BF4FF0FF30E6
:104A8000012101600020704710B5EFF30580002878
:104A90001CBF6FF0050010BD40F2BC10C2F2000058
:104AA000016801291CBF4FF0FF3010BD4EF61F51A9
:104AB000CEF2000100240C700221016001F06CF9BB
:104AC000204610BD10B582B01C46B0FA80F3B1FA92
:104AD00081F25B095209EFF3058CBCF1000F42EA49
:104AE000030219D0002C18BF0124224315D1002243
:104AF000019201AA01F050FE01281BD10198B0B12A
:104B00004EF60450CEF200004FF080510160BFF32A
:104B10004F8FBFF36F8F0AE022B16FF0030002B036
:104B200010BD00BF224601F065FD012806D100201E
:104B300002B010BD6FF0020002B010BD6FF00100B6
:104B4000002C08BF6FF0020002B010BD70B582B03B
:104B5000154600294FF00004EFF3058218BF002826
:104B600002D1204602B070BD002AFAD1B5B1D5E914
:104B700002321BB3502A26D32A6922B36E6901FB85
:104B800000F4A6424FF00004EBD3009401F000FBC8
:104B900006460028E5D02C6807E000BF002200246C
:104BA00001F0B2FA06460028DBD03046214600F07C
:104BB000A7FF3446204602B070BD00BF1AB92A696B
:104BC0000AB96A6922B10024204602B070BD00BF54
:104BD0000022002401F098FA06460028DBD1C0E745
:104BE000B0B582B01C46B0FA80F3B1FA81F5EFF3AC
:104BF00005825B096D09002A43EA05020AD0002CF0
:104C000018BF012422430BD06FF00305284602B0E1
:104C1000B0BD00BFF2B16FF00305284602B0B0BDD1
:104C20000022019201AA002301F038FC012821D1C1
:104C3000019828B34EF60450CEF200004FF0805198
:104C40000160BFF34F8FBFF36F8F0025284602B07E
:104C5000B0BD00BF22460023002501F009FB01285A
:104C6000D4D06FF00105002C08BF6FF00205284674
:104C700002B0B0BD6FF00205284602B0B0BD00BF63
:104C80000025284602B0B0BD2DE9F04184B08E4623
:104C900000240394EFF3058150B149B94FF00004AB
:104CA00052B19369002B08BF1823382B16D9002462
:104CB000204604B0BDE8F08180251823002103AF11
:104CC0000093AAB27346019701F02AFE03990128C6
:104CD00008BF0C46204604B0BDE8F0811179C90731
:104CE00024D15769D2E902864FEA970C1168002F48
:104CF000654608BF8025B8F1000F13D05C2E15D390
:104D000012690024002A18BF002FD1D0CDE900324B
:104D100062467346CDF8088001F032FE04B0BDE86B
:104D2000F08100BF16B91269002AC8D000242046BD
:104D300004B0BDE8F08100002DE9F041044600F028
:104D4000EFFD40F26406C2F20006F06840F6AC05E2
:104D50000130F0603068C2F2000558B130690028B7
:104D600040F007813068E16AC06A884298BF3460C9
:104D7000FFE000BF3460F068012840F0FA80284668
:104D800000F074FD05F1140000F070FD05F128003D
:104D900000F06CFD05F13C0000F068FD05F15000ED
:104DA00000F064FD05F1640000F060FD05F178009D
:104DB00000F05CFD05F18C0000F058FD05F1A0004D
:104DC00000F054FD05F1B40000F050FD05F1C800FD
:104DD00000F04CFD05F1DC0000F048FD05F1F000AD
:104DE00000F044FD05F5827000F040FD05F58C7083
:104DF00000F03CFD05F5967000F038FD05F5A0705B
:104E000000F034FD05F5AA7000F030FD05F5B47032
:104E100000F02CFD05F5BE7000F028FD05F5C8700A
:104E200000F024FD05F5D27000F020FD05F5DC70E2
:104E300000F01CFD05F5E67000F018FD05F5F070BA
:104E400000F014FD05F5FA7000F010FD05F5027094
:104E500000F00CFD05F5077000F008FD05F50C707D
:104E600000F004FD05F5117000F000FD05F5167069
:104E700000F0FCFC05F51B7000F0F8FC05F5207057
:104E800000F0F4FC05F5257000F0F0FC05F52A7043
:104E900000F0ECFC05F52F7000F0E8FC05F534702F
:104EA00000F0E4FC05F5397000F0E0FC05F53E701B
:104EB00000F0DCFC05F5437000F0D8FC05F5487007
:104EC00000F0D4FC05F54D7000F0D0FC05F55270F3
:104ED00000F0CCFC05F5577000F0C8FC05F55C70DF
:104EE00000F0C4FC05F5617000F0C0FC05F56670CB
:104EF00000F0BCFC05F56B7000F0B8FC05F57070B7
:104F000000F0B4FC05F5757000F0B0FC05F57A70A2
:104F100000F0ACFC05F57F7000F0A8FC05F58260A0
:104F200000F0A4FC05F2244000F0A0FC05F5876029
:104F300000F09CFC05F24C4000F098FC40F2941804
:104F4000C2F20008404600F091FC08F11407384610
:104F500000F08CFC06F1640000F088FC06F13C00D7
:104F600000F084FC06F1500000F080FCC6F81C80C4
:104F700037627068716A421CE06A726088426264DB
:104F800088BF706200EB800005EB8000211D00F0FF
:104F9000AFFC00F0E9FC306988B13068E16AC06AB2
:104FA000884228BFBDE8F0814EF60450CEF20000E2
:104FB0004FF080510160BFF34F8FBFF36F8FBDE89B
:104FC000F081000040F2640540F6AC064EF604584D
:104FD000C2F20005C2F20006CEF200084FF0805780
:104FE00003E000BF204600F0D7FCA868D0B100F075
:104FF00097FCA86CC468201D00F00AFCE868013822
:10500000E860A8680138A86000F0AEFC94F8590088
:105010000228EAD00128E5D070B9206B00F0BCFC72
:10502000E0E700BF30680228DFD3C8F80070BFF3A4
:105030004F8FBFF36F8FD8E74FF0500080F3118888
:10504000BFF36F8FBFF34F8FFEE700002DE9F047EE
:105050000A9C8246206B16460F46DDE908599100EE
:10506000A5229846FBF7EFF8206B002F00EB860097
:10507000A0F1040020F0070656D0387884F83400F8
:10508000387800284BD0787884F835007878002874
:1050900045D0B87884F83600B87800283FD0F87842
:1050A00084F83700F878D0B3387984F83800387944
:1050B000A8B3787984F83900787980B3B87984F81E
:1050C0003A00B87958B3F87984F83B00F87930B3EE
:1050D000387A84F83C00387A08B3787A84F83D004E
:1050E000787AE0B1B87A84F83E00B87AB8B1F87A44
:1050F00084F83F00F87A90B1387B84F84000387B20
:1051000068B1787B84F84100787B40B1B87B84F843
:105110004200B87B00281CBFF87B84F843000020C5
:1051200084F8430003E000BF002084F83400002727
:10513000201D372D28BF3725E562C4E9135700F03D
:10514000A1FB04F1180000F09DFBC5F13800A0613F
:1051500030465146424624616462676584F858705F
:1051600000F042FBB9F1000F206018BFC9F8004001
:10517000BDE8F08708480068006880F308884FF0B1
:10518000000080F3148862B661B6BFF34F8FBFF39F
:105190006F8F00DF00BF000008ED00E081B000204D
:1051A000009040F23400C2F2000000684FF050015D
:1051B00081F31188BFF36F8FBFF34F8F013007D09A
:1051C000FEE700BF009830B9009820B9009810B9E8
:1051D00000980028F6D001B07047000088B040F277
:1051E000DC0AC2F2000A0DF11009EB46DAF80800F9
:1051F00005681DB1C068046801E000BF002400F02C
:1052000043FE01F009FCDAF810100646884220D36C
:10521000002DCAF8106051D0A6424FD301F00EFD08
:10522000DAF80800C068C7683D1D284600F0F0FAAB
:1052300097F82800410745D400F0FE0087F82800C1
:1052400084E000BF6860DAF8080039462D6100F09C
:105250001DFBDAF80800016831B3C068C56804684E
:105260002F1D384600F0D4FA296A2846884795F859
:1052700028004007EDD5A8692044A042E2D8DAF81A
:105280000000002800F04881002004A931C101F08D
:10529000B3FBDAF8000049460022002300F0E8FFE3
:1052A0000028D6D138E100BFDAF80C10CAF8106037
:1052B000CAE9021001F0C2FC1AE100BF65B1002288
:1052C00010E000BFB8693F610119B14279601FD990
:1052D0000AF1080021E000BFDAF80C000068B0FA1B
:1052E00080F04209DAF80000A11B00F061FC01F037
:1052F000A5FC002840F0FC804EF60450CEF20000E1
:105300004FF080510160BFF34F8FBFF36F8FEFE01D
:10531000311B814206D20AF10C000068294600F0D8
:10532000B5FA13E0DAF80000002800F0138100203D
:1053300004A991C101F060FBDAF80000494600229F
:10534000002300F095FF002800F00481396A3846F8
:105350008847CDE00098B0F1FF3F07DCDDE9012090
:10536000039990470098002800F1C280029E70695E
:1053700010B1301D00F04CFA01F04EFBDAF81010BD
:10538000074688420DD30098CAF8107009283FD903
:10539000AEE000BF6860DAF8080021462D6100F039
:1053A00075FADAF80800016841B3C068C568D0F83A
:1053B00000802C1D204600F02BFA296A28468847D9
:1053C00095F828004007ECD5A86940444045E1D84D
:1053D000DAF80000002800F095800020CDE90408EC
:1053E000069501F009FBDAF8000049460022002387
:1053F00000F03EFF0028D4D184E000BFDAF80C10A2
:10540000CAE902100098CAF81070092800F27080EA
:10541000DFE800F00606064448620606444800BF7E
:1054200096F82800019A40F00101B06986F828102A
:105430008318314641F8043FBB42366106D9974292
:105440000AF1080007D293420AD204E0BA1A824253
:1054500006D20AF10C00006800F018FA48E000BF1C
:10546000316A3046884796F82800400740D5DAF878
:10547000000000285AD00198B1690696084400211E
:10548000CDE9041001F0B8FADAF80000494600222C
:10549000002300F0EDFE58BB48E000BF96F828005E
:1054A00022E000BF96F8280040F00101019886F83C
:1054B00028100028B06143D0384431460AF10C026C
:1054C00041F8040F3661B84288BF0AF1080210683B
:1054D00000F0DCF90CE000BF96F82800810703D447
:1054E000304600F059FA03E000F0FE0086F828008C
:1054F000DAF800005946002201F07CF800287FF419
:1055000029AF73E64FF0500080F31188BFF36F8F1F
:10551000BFF34F8FFEE700BF4FF0500080F31188BC
:10552000BFF36F8FBFF34F8FFEE700BF4FF0500008
:1055300080F31188BFF36F8FBFF34F8FFEE700BF7B
:105540004FF0500080F31188BFF36F8FBFF34F8F80
:10555000FEE700BF4FF0500080F31188BFF36F8F5C
:10556000BFF34F8FFEE70000F0B581B0044600F0B6
:10557000D7F994F94560012E0FDB04F1240500BF33
:10558000286850B1284601F01FFB002818BF00F022
:1055900083FBF0B2013E0128F2D8FF2684F8456073
:1055A00000F0E2F900F0BCF994F94470012F0EDB31
:1055B00004F11005286850B1284601F005FB0028C9
:1055C00018BF00F069FBF8B2013F0128F2D884F857
:1055D000446001B0BDE8F04000F0C6B970B50446C3
:1055E00000F052FC40F2181CC2F2000CDCF804007F
:1055F00050B19CF80000002818BF4FF000404FF059
:10560000000574BB8DE000BF41F20C10C2F2000037
:10561000C21D22F0070210F00701A0EB020318BF21
:10562000104600224FF47055CCE90602002918BF3D
:1056300003F57055411921F00701A1F10803CCF8D9
:10564000043041E90222191AC0E9003101208CF826
:1056500000004FF00040CCE90211002C4FF0000593
:105660005FD020405DD124F0070000F110026007F8
:1056700008BF04F10802002A4FF0000551D0DCF801
:10568000080082424DD8604650F818EFDEF804500A
:1056900095422CD2DEF80010C1B174464D68954297
:1056A00018D20B68B3B15D68954217D21868A8B1DB
:1056B0004568954216D20468A4B16568954215D232
:1056C0002168A6460029E9D111E000BF0CF11800BD
:1056D0000DE000BF8E46204609E000BF9E4608460A
:1056E00005E000BF8646184601E000BFA646DCF88C
:1056F00004108E4514D00168DEF80040AB1A112B5F
:1057000004604DD30EEB0205680719D04FF050002E
:1057100080F31188BFF36F8FBFF34F8FFEE700BF99
:10572000002501F08BFA68075BD04FF0500080F342
:105730001188BFF36F8FBFF34F8F00BFFEE700BF2D
:105740000CF118006B60CEF8042000BF0368AB4278
:105750000AD21868A8420BD20368AB4204D2186878
:105760001A46A842F2D304E00246184601E000BF00
:105770001A4653686C68D618AE4202D11C441546CE
:1057800054602B19834207D1DCF80430984203D0CF
:10579000D0E9000323446B60AA42286018BF15605B
:1057A00001F10805DEF80400DCE90212091A914251
:1057B000CCF8081038BFCCF80C109CF80010002969
:1057C00018BF40F00040CEF80400DCF810000021C3
:1057D0000130CEF80010CCF8100001F02FFA680765
:1057E000A3D1284670BD0000034645F29D10C0F6C7
:1057F00000004FF0807C21F0010103E903106FF0FD
:10580000020043F8240CA3F1440043F8202C704715
:10581000D0E9013201699A60D1F804C082688445F8
:10582000536008BF4A6000220261086801380860BE
:105830000868704744F61073C2F20003036044F630
:105840001050C2F200000860802010607047000015
:1058500045F26C33C2F20003036044F66C70C2F28E
:10586000000008604FF48070106070474FF0FF3107
:10587000024642F8081F00214260C0E9032201608D
:1058800070470000002101617047000010B5D1F899
:1058900000E01EF1010213D000F1080462681368F1
:1058A000734511D853681C68744511D85A68146838
:1058B00074450FD854682368A4467345EED90BE0AD
:1058C0000269D2F804C007E09446224604E000BF13
:1058D0009C4601E094461A46C1F804C0CCF8081072
:1058E0008A605160086101680131016010BD0000EB
:1058F000D0F800C0436808619A684B608A609A6873
:10590000996051600CF1010101607047DFF80C00F3
:10591000016841F4700101607047000088ED00E00B
:105920004FF0500080F31188BFF36F8FBFF34F8F9C
:1059300040F23400C2F2000001684A1C026009B162
:10594000704700BF4EF60450CEF20000006800061B
:1059500008BF70474FF0500080F31188BFF36F8F7E
:10596000BFF34F8FFEE7000040F23400C2F20000A8
:10597000016839B10139016018BF7047002080F318
:10598000118870474FF0500080F31188BFF36F8F7C
:10599000BFF34F8FFEE7000070B5002808BF70BD51
:1059A00040F21815C2F200050446287854F8041C89
:1059B000002818BF4FF0004008420DD0A4F108069F
:1059C00032689AB14FF0500080F31188BFF36F8FA7
:1059D000BFF34F8FFEE700BF4FF0500080F31188F8
:1059E000BFF36F8FBFF34F8FFEE700BF21EA0000C8
:1059F00044F8040C00F048FA54F8041CA868084461
:105A0000A86005F1180000BF0368B3420AD2186805
:105A1000B04225D20368B34204D218681A46B04295
:105A2000F2D301E0024618465368D418B44202D1BA
:105A30001944164651607318834206D16B68984228
:105A400003D0D0E9000319447160B242306018BF3E
:105A50001660686901306861BDE8704001F0EEB819
:105A60001A465368D418B442E5D1E1E74EF210006B
:105A7000CEF2000000210160816040F21801C2F204
:105A80000001096844F6D352C1F26202A1FB02127E
:105A90004FF0FF3101EB9211416007210160704727
:105AA00040F23810EFF305811029C2F2000011D343
:105AB0004EF2F032CEF20002895C0278914209D2B5
:105AC0004FF0500080F31188BFF36F8FBFF34F8FFB
:105AD000FEE700BF4EF60C51CEF2000109684068A7
