:020000040800F2
:10000000185200205D020008431600084B14000837
:10001000411600088D030008591F00080000000069
:100020000000000000000000000000009D0100082A
:100030008F03000800000000F9010008A91C000857
:1000400077020008770200087702000877020008AC
:10005000770200087702000877020008770200089C
:10006000770200087702000877020008770200088C
:10007000770200087702000877020008770200087C
:10008000770200087702000877020008770200086C
:10009000770200087702000877020008770200085C
:1000A000770200087702000877020008770200084C
:1000B000770200087702000877020008770200083C
:1000C000770200087702000877020008770200082C
:1000D000770200087702000877020008770200081C
:1000E000770200087702000877020008770200080C
:1000F00077020008770200087702000877020008FC
:1001000077020008770200087702000877020008EB
:10011000770200087702000877020008691D0008CE
:1001200077020008770200087702000877020008CB
:1001300077020008770200087702000877020008BB
:1001400077020008770200087702000877020008AB
:10015000770200087702000877020008770200089B
:10016000770200087702000877020008770200088B
:1001700077020008770200087702000800000000FC
:100180007702000877020008DFF80CD000F0ECF8E6
:1001900000480047B31F0008185200202C4B196874
:1001A0000868B0E8F04F80F30988BFF36F8F4FF015
:1001B000000080F3118870470000000008480068C4
:1001C000006880F308884FF0000080F3148862B65E
:1001D00061B6BFF34F8FBFF36F8F00DF00BF00BF6B
:1001E00008ED00E0DFF80C00016841F470010160E7
:1001F000704700BF88ED00E0EFF30980BFF36F8F19
:10020000134B1A681EF0100F08BF20ED108A20E96A
:10021000F04F106009B44FF0500080F31188BFF325
:100220004F8FBFF36F8F02F0CDFD4FF0000080F3D2
:10023000118809BC19680868B0E8F04F1EF0100F6B
:1002400008BFB0EC108A80F30988BFF36F8F704746
:1002500028000020EFF30580704700000648804723
:1002600006480047FEE7FEE7FEE7FEE7FEE7FEE79B
:10027000FEE7FEE7FEE7FEE7591D000889010008DA
:100280002DE9F05F0546002092469B4688460646CB
:10029000814640241BE0284641464746224600F05E
:1002A00053F853465A46C01A914110D31146184686
:1002B000224600F03AF82D1A67EB01084F46224615
:1002C0000120002100F031F817EB00094E41201EFB
:1002D000A4F10104DFDC484631462A464346BDE826
:1002E000F09F40EA01039B0703D009E008C9121FF1
:1002F00008C0042AFAD203E011F8013B00F8013BE0
:10030000521EF9D27047D2B201E000F8012B491E0B
:10031000FBD270470022F6E710B513460A460446A2
:100320001946FFF7F0FF204610BD202A04DB203AD3
:1003300000FA02F1002070479140C2F1200320FA38
:1003400003F3194390407047202A04DB203A21FA36
:1003500002F00021704721FA02F3D040C2F12002DE
:100360009140084319467047064C074D06E0E06887
:1003700040F0010394E8070098471034AC42F6D3EC
:10038000FFF706FF044F0008244F0008FEE7704700
:100390002DE9F0470446167803F00700DFF8548192
:1003A000089D91460F46082805D2DFE800F00416A4
:1003B000293C4F627588300602D598F81C2006E06B
:1003C00098F81C00012801D0012200E00022B9B2F7
:1003D000A0B201F069FA6D1E76D0700602D598F8C9
:1003E0001C2006E098F81C00012801D0012200E042
:1003F0000022601CB9B280B201F056FA6D1E76D0B0
:10040000B00602D598F81C2006E098F81C000128D8
:1004100001D0012200E00022A01CB9B280B201F09C
:1004200043FA6D1E63D0F00602D598F81C2006E052
:1004300098F81C00012801D0012200E00022E01CF5
:10044000B9B280B201F030FA6D1E50D0300702D53B
:1004500098F81C2006E098F81C00012801D0012221
:1004600000E00022201DB9B280B201F01DFA6D1E1D
:100470003DD0700702D598F81C2006E098F81C00C3
:10048000012801D0012200E00022601DB9B280B233
:1004900001F00AFA6D1E2AD0B00702D598F81C2088
:1004A00006E098F81C00012801D0012200E000229B
:1004B000A01DB9B280B201F0F7F96D1E17D0F00798
:1004C00003D098F81C2007E011E098F81C000128E0
:1004D00001D0012200E00022E01DB9B280B201F09B
:1004E000E3F96D1E03D019F8016F083463E7BDE826
:1004F000F0870000EC490020002200F001B8000065
:1005000030B50E4B054601205C7A002C14D1587A88
:100510001C54587A03EB800045605D7A03F10800B3
:100520002A54587A421C5A72303008703A20487067
:100530002F208870CC70002030BD00000C4E0020B1
:100540000A2805D00D2805D003490969096808471C
:1005500000F088B870470000EC4900207CB51E4CC4
:10056000054629462069806900F038F8002831D016
:1005700041680088281A01EBC0056968A878CDE9B0
:10058000000120692A78B4F91610037DB4F914002B
:1005900000F064FF2169487D097D884212D9227FDD
:1005A000012A01D0012200E000220092A28A2B78C9
:1005B000E68A1A44304483B2701881B292B2A08A9B
:1005C00001F0C2F82269B4F914006978927D11FB38
:1005D0000200A0827CBD0000EC49002006E00288F9
:1005E0008A4202D842888A4202D280680028F6D124
:1005F0007047000070B5094D04462146286980699E
:10060000FFF7ECFF002808D041680088201A11F895
:1006100030002969897D10FB01F070BDEC49002094
:1006200001200880704710B58069FFF7D7FF0028C8
:1006300000D0012010BD10B50021084600F0D6F80A
:10064000402380220021BDE810400846AFF300801F
:1006500038B500249BB292B289B280B2009401F006
:1006600073F838BD00B500F0A5F80249CA8A1044F5
:10067000C88200BDEC4900202DE9FC47060054D09B
:1006800000F098F8374C8146B4F9148000F098F8DF
:10069000E18A0746C81BE0823DE000BF47F6FF71D4
:1006A000304600F016F982460146304600F0F8F870
:1006B0000546A07E00F0030001283CD0022836D079
:1006C0000020A18A6A46081AA082ADF80000691EBF
:1006D0000844ADF80400E08AADF80200A9F1010178
:1006E0000844ADF806005146304600F0BFF8BDF8AA
:1006F0000200E0825146304600F0B0F806443078FF
:100700000A281AD00D2818D0BDF800002844A0826D
:10071000307818B1761C30780028BFD1E08A384490
:10072000E082608B20F003006083BDE8FC8705EB6E
:10073000D5704010C5E72846C3E7A07E00F003004F
:1007400001280BD0022809D00020A08230780A2886
:10075000DED1E18A01EB0900E082D9E7A4F8148038
:10076000F4E70000EC490020024B9982DA82FFF79F
:1007700083BF0000EC49002070B5064609481346C7
:100780000D46B0F91A0040F0020000F05FF8044690
:100790001A4629463046FFF7E7FF2046BDE870407D
:1007A00000F054B8EC49002001490969496808473C
:1007B000EC49002001480069407D7047EC49002069
:1007C00009490020897E01F00C020749042A0969C1
:1007D00006D0082A01D00C2A01D1087D40087047B4
:1007E000087D401E70470000EC49002070B50D46A2
:1007F00001F0B4FB0446284601F0B6FB204370BD6F
:100800000B4910B52E2008700A4800217F22018074
:10081000418082803F22C2808182C182064901617B
:1008200001214172017701F0C3F8002010BD0000E2
:10083000A8000020EC490020C84E0008024A1169B7
:1008400000B1106108467047EC490020024AB2F935
:100850001A10508308467047EC490020002000E041
:10086000401C491EFCD2704701F04AB870B50B4BD2
:10087000126804469A821214DA820D460BE000BF19
:1008800014F8010B7F2804D914F8011B6D1E41EAEE
:100890000020FFF755FE6D1EF2D570BDEC4900201B
:1008A00070B50D4604004FF000060CD10FE0641C3B
:1008B0006D1E7F2804D914F8011B6D1E41EA00202B
:1008C000FFF772FF0644207808B1002DEFDA3046BA
:1008D00070BD002208E0401C7F2B02D9401C521C36
:1008E00001E00A2B04D0521C03780BB18A42F2DBE0
:1008F0001046704770B5044600F010F90546601CBC
:1009000002D004480078044400F008F9401BA042DB
:10091000FAD370BD180000202DE9F84FDFF8BCA114
:100920000022012503264FF00F090AF1040BAAF15A
:10093000040E00BF0B6805FA02F42340A34270D1F5
:100940000F7907F00307012F01D0022F16D1876816
:100950004FEA420806FA08FC27EA0C07D1F80CC057
:100960000CFA08FC4CEA070CC0F808C04768A7431B
:100970000C79C4F3001494403C4344600C79E44384
:10098000A4070AD0C4684FEA420C06FA0CF7BC432D
:100990008F6807FA0CF72743C7600C7904F003044B
:1009A000022C12D1D40800EB840CDCF8204057074D
:1009B000FF0E09FA07F824EA0804D1F8108008FAB3
:1009C00007F848EA0408CCF8208004684FEA420C93
:1009D00006FA0CF7BC430F7907F0030707FA0CF788
:1009E000274307604C6814F4403F70D03C4C2768A4
:1009F00047F480472760246822F0030704F480440A
:100A00000094384C07EB040CDCF8084897074FEAD1
:100A1000177809FA08F7BC43334FB84202D10027D0
:100A200024E054E0314FB84201D101271EE0304F9D
:100A3000B84201D1022719E02E4FB84201D1032755
:100A400014E02D4FB84201D104270FE02B4FB842DC
:100A500001D105270AE02A4FB84201D1062705E057
:100A6000284FB84201D1072700E0082707FA08F706
:100A70002743CCF80878DAF800405746D1F804C08C
:100A80009C435FEACC2C00D51C433C60DBF8004063
:100A90005F46D1F804C09C435FEA8C2C00D51C4310
:100AA0003C60DEF800407746D1F804C09C435FEA22
:100AB0008C3C00D51C433C60084F083F3C68D1F893
:100AC00004C09C435FEACC3C00D51C433C60521CF4
:100AD000102AFFF42FAFBDE8F88F0000083C01405A
:100AE000443802400030014000000240000402404F
:100AF00000080240000C02400010024000140240B6
:100B000000180240001C02400069084000D001208B
:100B100070470AB1816170470904FBE701488068AA
:100B200070470000180000200248816802781144D4
:100B300081607047180000200B4810B5016841F42F
:100B400000710160016841F480610160016841F455
:100B500080710160032000F09FF80F2000F006F87C
:100B600000F050F8002010BD003C024030B50546B2
:100B70001F4887B00024016841F02001016000682F
:100B800006A900F02000009001A800F031F90498B7
:100B9000A8B100F04DF940001649174AB0FBF1F139
:100BA0001648491E026040F2E732C0E90324C0E95A
:100BB0000114846100F034FB040003D015E000F060
:100BC00037F9E9E70D4800F059FB04000DD1372053
:100BD00000F034F8102D07D200222946372000F00B
:100BE0003BF80748056000E0012407B0204630BD0F
:100BF0004038024040420F0000140040D000002066
:100C00001C0000200C4882B0016841F48041016062
:100C1000006800F4804000900748001F016841F020
:100C2000805101600068002200F0805000900F2188
:100C3000901E02B000F010B844380240002809DBD2
:100C400000F01F02012191404009800000F1E020E6
:100C5000C0F8001170470000F0B40E4B1B680C4642
:100C6000C3F30223C3F10705042D00D90425191D80
:100C7000072901D2002300E0DB1E012606FA05F158
:100C8000491E214099409E40761E16403143F0BCDB
:100C900001F070B90CED00E0064900F007020868A9
:100CA0004FF6FF03184040EA0220034A1043086051
:100CB000704700000CED00E00000FA052DE9F04758
:100CC0000E46050065D0DFF81481D8F80000F7B2B1
:100CD00000F00700B04207D288F80070D8F8000092
:100CE00000F00700B04254D128683D4C810712D56E
:100CF000400703D5206840F4E050206028780007C2
:100D000003D5206840F4604020602068A96820F086
:100D1000F000084320602878C0072DD0304968686B
:100D20000839012812D0022813D0032811D00968ED
:100D3000890700292DDA216821F003010143216090
:100D4000FFF7ECFE814641F2883A0EE0096889031C
:100D5000EFE709688901ECE7FFF7E0FEA0EB090186
:100D6000514502D90320BDE8F0872068696800F08A
:100D70000C00B0EB810FEFD1D8F80010404601F025
:100D80000701B14207D90770006800F00700B042C0
:100D900001D00120E7E72878400705D52068E968F9
:100DA00020F4E050084320602878000706D520682A
:100DB000296920F4604040EAC100206000F048F852
:100DC0002168084AC1F30311515CC8400649086014
:100DD00006480068FFF7CAFE0020C4E7003C024056
:100DE00008380240B4480008240000201C000020FD
:100DF0000F2202600C4A136803F003034360136878
:100E000003F0F0038360136803F4E053C3601268D7
:100E10004FF4E05303EAD20202610448006800F094
:100E2000070008607047000008380240003C02409C
:100E30000448054900680968044AC1F38221515CED
:100E4000C84070472400002008380240C448000809
:100E5000154810B5006810F00C02144813D041106A
:100E6000042A0FD0082A0ED10F4C241F22682368B1
:100E700002F03F025B0207D52068C0F38810A0FB98
:100E8000010106E0084610BD2168C1F38811A1FBED
:100E900000010023FFF7F4F92168C1F30141491C67
:100EA0004900B0FBF1F010BD083802400024F40006
:100EB0002DE9F84F04006ED02078DFF84C93C0077E
:100EC000A9F104054AD009F104000168C1F38101C8
:100ED000012908D00068C0F3810002280AD1D9F89E
:100EE0000000400206D52868800337D560680028D6
:100EF000E1D033E06068B0F5803F10D0B0F5A02FAE
:100F0000286810D020F480302860286820F48020E1
:100F100028606068A8B1FFF701FE06460DE028686A
:100F200040F48030F4E740F480202860F7E700BF09
:100F3000FFF7F4FD801B642873D828688003F7D579
:100F40000CE0FFF7EBFD064605E000BFFFF7E6FD0E
:100F5000801B6428F0D828688003F7D42078DFF855
:100F6000AC8280074FF0000A3ED5A748001D0168FB
:100F700011F00C0F08D00068C0F3810002280BD1DB
:100F8000D9F80000400207D42868800716D5E06829
:100F9000012800D112E033E1E068B8B10120C8F8BF
:100FA0000000FFF7BBFD064605E000BFFFF7B6FDFA
:100FB000801B0228C0D828688007F7D528682169D7
:100FC00020F0F80040EAC10028600DE0C8F800A059
:100FD000FFF7A4FD064604E0FFF7A0FD801B0228F2
:100FE0001FD828688007F7D42078000722D5864FBD
:100FF00087486169703771B101210160FFF78EFD8B
:10100000064604E0FFF78AFD801B022809D83868ED
:101010008007F7D50EE0C0F800A0FFF77FFD064679
:1010200005E082E0FFF77AFD801B02287DD8386852
:101030008007F7D42078400768D5DFF8CCB10027C7
:101040000BF13C0BDBF80000C0000BD4DBF8001008
:1010500041F08051CBF80010DBF80000012700F0D0
:10106000805000906B4E3068C00510D4306840F45A
:1010700080703060FFF752FD009005E0FFF74EFDF5
:101080000099401A022850D83068C005F6D55E4E47
:10109000A0686C3601280FD00528306810D020F0E9
:1010A00001003060306820F004003060A068B8B102
:1010B000FFF734FD00900FE0306840F00100F4E7E6
:1010C00040F004003060F7E7FFF728FD0099411A6F
:1010D00041F28830814266D830688007F4D50EE04E
:1010E000FFF71CFD009007E0FFF718FD0099411A7B
:1010F00041F28830814256D830688007F4D42FB14D
:10110000DBF8001021F08051CBF80010A069C8B3C3
:101110003D49091D0968C1F3810102294AD002280D
:10112000504607D0C8F8600000E03CE0FFF7F6FC4E
:1011300004463BE04746C8F86000FFF7EFFC064670
:1011400005E000BFFFF7EAFC801B02282BD82868C7
:101150008001F7D4D4E907010843A16A2E4A49085F
:1011600002EB0141626A41EA8211084394F82C10B3
:1011700040EA0161C9F8001001203866FFF7CEFC93
:10118000044606E03EE000BFFFF7C8FC001B022853
:1011900009D828688001F7D534E000BFFFF7BEFC0E
:1011A000001B022802D90320BDE8F88F28688001BF
:1011B000F4D427E00128F7D0D9F80000E26900F460
:1011C000800191421CD1226A00F03F01914217D167
:1011D00047F6C071626A0140B1EB821F10D1A26A6A
:1011E0004FF0FF3300F4403103EB5202B1EB024FFA
:1011F00006D194F82C1000F07060B0EB016F01D0B4
:101200000120D1E70020CFE7043802400000474228
:10121000800E4742007000400000FFFF704770479B
:1012200010B5040003D094F83D0010B107E0012090
:1012300010BD002084F83C00204600F01EF802207B
:1012400084F83D00211D206800F094FD012084F801
:10125000460084F83E0084F83F0084F8400084F89B
:10126000410084F8420084F8430084F8440084F884
:10127000450084F83D00002010BD704790F83D10F7
:10128000012901D001207047022180F83D1001683A
:10129000CA6842F00102CA6000681149884214D04D
:1012A000B0F1804F11D00F4988420ED00E498842CC
:1012B0000BD00E49884208D00D49884205D00D490F
:1012C000884202D00C49884204D1816801F00701AC
:1012D000062903D0016841F0010101600020704738
:1012E000000001400004004000080040000C0040E5
:1012F00000040140004001400018004070472DE903
:10130000F04104460068C66805694FF00007A90768
:1013100013D5B10711D5F91E01610120207720688E
:1013200080698007204602D0FFF7E8FF04E000F064
:101330007EF8204600F07CF82777680716D57007FE
:1013400014D521686FF0040008610220207720681E
:10135000806910F4407F204602D0FFF7CFFF04E001
:1013600000F065F8204600F063F82777280715D5C8
:10137000300713D521686FF008000861042020773A
:101380002068C0698007204602D0FFF7B7FF04E05D
:1013900000F04DF8204600F04BF82777E80616D508
:1013A000F00614D521686FF010000861082020773E
:1013B0002068C06910F4407F204602D0FFF79EFFEE
:1013C00004E000F034F8204600F032F82777E80710
:1013D00008D0F00706D021686FF0010008612046B0
:1013E00000F028F8280608D5300606D521686FF0E9
:1013F000800008612046FFF711FF680608D57006D7
:1014000006D521686FF040000861204600F01CF806
:10141000A8060AD5B00608D521686FF0200008613B
:101420002046BDE8F041FFF7FABEBDE8F081704705
:101430007047000000680349884201D1FFF774BB80
:1014400070470000001400407047FEE708B50A200E
:101450000090401E0090FCD108BD00002DE9FE4325
:10146000DFF87C90DDE90A65B9F90280871801EBA5
:10147000030C7F1EA8EB0104ACF1010C002C05DD70
:101480001B1B002B2ADD04FB06554146B9F90680DB
:101490004C46ACEB080CBCF1000F03DDA3EB0C03D6
:1014A000002B1BDDB4F904C0A7EB0C07002F00DDF7
:1014B000D21BB9F900400027844208DD241A24F029
:1014C00007073844121B05EBE40504F00707002A60
:1014D00004DDCDE90065029700F004F8BDE8FE8365
:1014E000EC4900202DE9F84F1E46DDE90A95174624
:1014F000884683460024DDF830A009E004EB0801AB
:1015000053462A4658460097FEF742FF4D44641C56
:10151000B442F3DBBDE8F88F10B504490448FEF788
:10152000EBFF0249491E087010BD0000C9000020F1
:10153000B400002010B50B4A00210B4800F0C8FD94
:101540000A4C084A0021E0602432094800F0C0FD3E
:10155000044A206148320021064800F0B9FD60616C
:1015600010BD0000484800083D1C00080000002095
:10157000451C0008811C00082DE9F04186B01421AB
:101580006846FEF7C7FE2B480024016841F01001B1
:101590000160016801F010010591016841F08001CE
:1015A0000160016801F080010591016841F00101CD
:1015B0000160016801F001010591016841F002013B
:1015C000016000681C4F00F002004FF47F46059058
:1015D000002231463846FFF79CFADFF8608000228F
:1015E000C0214046FFF795FA1E2001258DE8310005
:1015F00069463846FFF790F96020CDE900040220E3
:10160000029069463846FFF787F90096CDE9015404
:10161000694638460394FFF77FF9C0200090CDE972
:101620000154694640460394FFF776F906B0BDE8D9
:10163000F0810000303802400010024000040240F7
:10164000FEE7FEE710B50B4C012280212046FFF794
:1016500060FAFFF7FBFE012240212046FFF759FA0E
:10166000FFF7F4FE20460022BDE810404021FFF7BE
:1016700050BA00000004024070B5144E0546002226
:1016800040213046FFF745FA0024280601D5012203
:1016900000E0002280213046FFF73BFA6806050E85
:1016A000FFF7D4FE012240213046FFF732FAFFF760
:1016B000CDFE002240213046FFF72BFAFFF7C6FE91
:1016C000641CE4B2082CE0D370BD000000040240AA
:1016D00010B50D4C012280212046FFF71AFA012295
:1016E00040212046FFF715FAFFF7B0FE00228021C7
:1016F0002046FFF70EFAFFF7A9FE20460022BDE8BC
:1017000010404021FFF705BA0004024010B50D4C0F
:10171000002240212046FFF7FCF9002280212046CC
:10172000FFF7F7F9FFF792FE012240212046FFF76D
:10173000F0F9012280212046FFF7EBF9BDE81040C7
:10174000FFF784BE000402402DE9F8431F46DDF890
:1017500020900D46064680281FD2402D1DD2B0187D
:10176000802802D3C6F1800082B2E819402802D353
:10177000C5F1400087B2002406EB02080BE02819EF
:1017800083B281B21FFA88F23046CDF8009000F0A3
:1017900006F8641CE4B2BC42F1D9BDE8F8832DE937
:1017A000FC4F1D4614460E460746802800D37F276F
:1017B000802C00D37F24402E00D33F26402D00D321
:1017C0003F25A74201D2E01B00E0381B0FFA80F949
:1017D000AE4201D2A81B00E0701B0FFA80FA4FF056
:1017E000FF30A74201D2012100E001460191AE4243
:1017F00000D2012083464846D14501DCCAF10000F1
:1018000000EBD07040F34F08B9F1000F23D0BAF1CC
:10181000000F35D0C9F100000090314638460B9AD0
:1018200000F042F8A74201D1AE4227D000994046CD
:10183000884506DDA8EB0A010FFA81F801993944C1
:101840008FB25045E9DA08EB09000FFA80F806EB91
:101850000B0086B2E1E7B54202D22846354686B291
:10186000BC4200D2A7B234B206E0A1B238460B9A0D
:1018700000F01AF8641C24B2AC42F6DDBDE8FC8F1F
:10188000B54200D2AEB2BC4202D220463C4687B23C
:101890003DB206E0A8B231460B9A00F005F86D1C87
:1018A0002DB2A542F6DDE9E770B5802813D24029B4
:1018B00011D20B4B012401F007051E79AC40094BF6
:1018C000C90800EBC1100EB132B101E0012A03D00A
:1018D000195CA143195470BD195C2143FAE700005B
:1018E000AA0000200C4A002028B1FF224FF480619A
:1018F0000248FEF708BD0022F8E700000C4A00206D
:1019000070B50E4D002400BF04F1B000C0B200213C
:1019100000F016F80021084600F012F8002110200F
:1019200000F00EF805EBC4104022802100F020F8F2
:10193000641CE4B2082CE7D370BD00000C4A002000
:1019400070B50D460446FFF7C3FE7820FFF794FEFE
:10195000FFF778FE2846FFF78FFEFFF773FE20465D
:10196000FFF78AFEFFF76EFEBDE87040FFF7CEBEC0
:1019700070B514460D460646FFF7AAFE7820FFF71D
:101980007BFEFFF75FFE2046FFF776FEFFF75AFE6D
:10199000002406E0305DFFF76FFEFFF753FE641C86
:1019A000A4B2AC42F6D3BDE87040FFF7AFBE000072
:1019B00010B56420FEF79EFF0021AE20FFF7C0FFA8
:1019C00000212020FFF7BCFF00211020FFF7B8FF07
:1019D0000021B020FFF7B4FF0021C820FFF7B0FFBF
:1019E00000210846FFF7ACFF00211020FFF7A8FFF9
:1019F00000214020FFF7A4FF00218120FFF7A0FF76
:101A00000021FF20FFF79CFF0021A020FFF798FF97
:101A10000021C020FFF794FF0021A620FFF790FFD0
:101A20000021A820FFF78CFF00213F20FFF788FF4F
:101A30000021A420FFF784FF0021D320FFF780FFBF
:101A400000210846FFF77CFF0021D520FFF778FF33
:101A50000021F020FFF774FF0021D920FFF770FF6D
:101A600000212220FFF76CFF0021DA20FFF768FF3A
:101A700000211220FFF764FF0021DB20FFF760FF49
:101A800000212020FFF75CFF00218D20FFF758FF89
:101A900000211420FFF754FF0021AF20FFF750FF73
:101AA0000020FFF721FFFFF72BFF034800210180F3
:101AB00041800121417110BDAA00002070B5324E55
:101AC000002402213046FFF71FF800B90224042148
:101AD0003046FFF719F808B944F0040408213046ED
:101AE000FFF712F808B944F0080410213046FFF758
:101AF0000BF808B944F0100420213046FFF704F831
:101B0000012801D144F0200440213046FEF7FCFFBB
:101B1000012801D144F04004002C31D00A2000F00B
:101B20005AFA002502213046FEF7EEFF00B90225E1
:101B300004213046FEF7E8FF08B945F00405082106
:101B40003046FEF7E1FF08B945F0080510213046A0
:101B5000FEF7DAFF08B945F0100520213046FEF700
:101B6000D3FF012801D145F0200540213046FEF782
:101B7000CBFF012801D145F04005AC4201D1204600
:101B800070BD002070BD00000010024070B504461A
:101B9000294D00064FF4807101D5002200E001229A
:101BA0002846FEF7B6FF60064FF4007101D500220B
:101BB00000E001222846FEF7ACFFA0064FF480614A
:101BC00001D5002200E001222846FEF7A2FFE00630
:101BD0004FF4006101D5002200E001222846FEF703
:101BE00098FF20074FF4805101D5002200E0012228
:101BF0002846FEF78EFF60074FF4005101D5002202
:101C000000E001222846FEF784FFA0074FF4804140
:101C100001D5002200E001222846FEF77AFFE00706
:101C20004FF4004101D0002200E001222846BDE827
:101C30007040FEF76EBF000000100240012000F06F
:101C4000CAF9FBE7FEF7DCFD0B48FEF7F7FD0B4C8E
:101C5000207820B1012805D0022808D105E000F045
:101C600043F904E000F0EEF801E000F02DF90A205D
:101C700000F0B1F9ECE7000028480008000000205F
:101C8000084D00BFFFF71AFF040007D0FFF716FF4B
:101C90000028FBD12146E86800F0E0F9012000F0BF
:101CA0009AF9EFE70000002010B54FF0E02000693E
:101CB00001F0F2FC012803D0BDE8104001F02EB97C
:101CC00010BD000030B593B030216846FEF722FB0E
:101CD00014210CA8FEF71EFB1D480025016841F0E9
:101CE00080510160006800F080501190194801682F
:101CF00041F4804101600068022400F480401190AA
:101D000001200090000401908001CDE9064008AA5E
:101D10000420A82182E813000B906846FFF7C8F85A
:101D200008B172B6FEE70CA90F2081E831004FF42C
:101D3000A0500F904FF48050109005210CA8FEF792
:101D4000BDFF002801D072B6FEE713B030BD000021
:101D500040380240007000400248016841F47001C0
:101D60000160704788ED00E00148FFF7C8BA000045
:101D7000D0000020F0B50268274B284D284E294F8F
:101D8000294C4FF0804C984209D0604507D0A842BA
:101D900005D0B04203D0B84201D0A04204D122F015
:101DA000700E4A6842EA0E0298421BD0604519D074
:101DB000A84217D0B04215D0B84213D0A04211D0DB
:101DC0001A4DA8420ED01A4DA8420BD0194DA84268
:101DD00008D0194DA84205D0184DA84202D0184D80
:101DE000A84203D122F44075CA682A434D6922F003
:101DF00080022A438D68C5620D688562984201D0D1
:101E0000A04201D109690163016841F00401016048
:101E1000012141610260F0BD00000140000400406A
:101E200000080040000C0040000401400040014058
:101E3000004401400048014000180040001C0040E0
:101E40000020004010B5154CA06810B900F0D0F883
:101E5000A060FEF7F0FB0022402111A0FEF78CFCF1
:101E60001022402110A0FEF787FC2022402111A063
:101E7000FEF782FC3022402110A0FEF77DFCFEF729
:101E8000F3FC00F0B5F8A16801F6B831884203D33D
:101E9000022020700020A06010BD00000000002083
:101EA000CAA9D4CFD6A50000323230343133303411
:101EB00000000000CDF5D0C0E2F90000323230342D
:101EC000303830340000000010B5FEF7B4FB0022BB
:101ED000402103A0FEF750FCBDE81040FEF7C4BC53
:101EE0004D61696E0000000010B50D4C606810B9BE
:101EF00000F07EF86060FEF79EFB0022402109A002
:101F0000FEF73AFCFEF7B0FC00F072F8616801F5EC
:101F1000FA61884203D3012020700020606010BD68
:101F200000000020D1A1CCE2000000000248012105
:101F30000170007870470000B00000200120704759
:101F400000207047024801210170007870470000AE
:101F5000B000002000207047FEE7000001498882A1
:101F600000207047EC4900200149C88200207047DA
:101F7000EC4900200907090E002804DB00F1E020ED
:101F800080F80014704700F00F0000F1E02080F8A6
:101F9000141D704702E008C8121F08C1002AFAD1B8
:101FA00070477047002001E001C1121F002AFBD1D9
:101FB0007047FEF7C1FDFFF785FEFFF7DDFAFFF77B
:101FC000ABFA0020FFF7E2FD00F01AF8FFF7B2FAD3
:101FD00000F028F8FEE710B5EFF3058111B16FF0BE
:101FE000050403E0002408B100F038FE204610BDCF
:101FF000EFF3058008B101F063BB01F05BBB0000AB
:10200000EFF3058010B16FF00500704704480168D8
:1020100011B14FF0FF30704701210160002070477F
:102020007800002010B5EFF3058010B16FF00500C7
:1020300010BD08480168012902D04FF0FF3010BDE3
:10204000054A002182F8141D0221016000F06EFE95
:10205000002010BD780000200BE000E03EB5040039
:1020600001D0002903DA6FF0030001902BE04FF05C
:10207000FF300190EFF30580D0B1002502A8009059
:102080002B4601220295204601F084FA002201AB82
:1020900011462046009501F07DFA029898B10B494F
:1020A0004FF080500860BFF34F8FBFF36F8F0AE08F
:1020B00000230122204601F0FDF9002201AB114668
:1020C000204601F0F7F901983EBD000004ED00E064
:1020D0002DE9FF410B464FF00005EFF30581039515
:1020E00049BB40B38027182100244AB3166806B1C3
:1020F000344696691EB13146761E382E02D21679C4
:10210000F60703D0002004B0BDE8F081566906B19F
:10211000B708D2F808C0BCF1000F0DD0D5685C2D0F
:1021200018D312693AB136B18DE806103A46214605
:1021300001F095F903900DE0D6685EB912694AB9CD
:1021400003AACDE90012BAB2214601F05BF90128D9
:1021500000D003950398D6E72DE9F041134C0F46C4
:102160000546E6682068001D00F044FC681C07D1A5
:1021700037B12168BDE8F0410D48091D00F08ABC67
:1021800020683544B5424560216805D2A06BBDE8A2
:10219000F041091D00F066BC606B091D00F062FC97
:1021A000A06A854200D2A562BDE8F0812800002027
:1021B000080600202DE9F041054600F077FC2D4C83
:1021C000A068401CA06020682B4F10B1606930B33C
:1021D0002BE02560A068012827D1002606EB8600A9
:1021E00007EB800000F030FC761C382EF6D3234835
:1021F00000F02AFC2148143000F026FC1F4828304B
:1022000000F022FC1D483C3000F01EFC1B48503002
:1022100000F01AFC194860631430A06305E02068E0
:10222000E96AC06A884200D82560606A401C606222
:102230006864E86A2169884200D9206100EB800067
:1022400007EB8000291D00F025FC00F04FFC6069C1
:1022500000280CD02068E96AC06A884207D2084981
:102260004FF080500860BFF34F8FBFF36F8FBDE812
:10227000F08100002800002058010020B80500204F
:1022800004ED00E038B500F011FC104C2068C8B92E
:102290000F4800F0D9FB0E48143000F0D5FB0C4875
:1022A000E060143020610A4B0020F03B009003F105
:1022B000500210210A2000F047FE206010B105A155
:1022C00000F096FCBDE8384000F010BC640000202F
:1022D0000C070020546D72510000000030B4026CF5
:1022E0000B46002A0BD0C1681144C1608468A1422A
:1022F00001D30168C16030BC1846FDF7F2BF30BCA5
:1023000070472DE9F041856B174604460026026CA4
:1023100082B1C7B1E068FDF7E4FFE168206C091AFB
:10232000E1602268914202D2A168081AE060022F9F
:1023300016D017E02068A8B9A06801F02DFA06466B
:102340000020A0600EE06068FDF7CBFF216C6068A4
:1023500008446060A168884204D32068606001E09E
:1023600005B16D1E6D1CA5633046BDE8F08110B54A
:10237000044690F8590058B101280CD002280FD01B
:10238000502080F31188BFF34F8FBFF36F8FFEE7AC
:10239000206B00F0BFFB2046BDE8104000F0BABB48
:1023A00010BD000010484FF47051420706D0C01D08
:1023B0000D4920F00700411AC1F570510B4A002366
:1023C0000144C2E900030839183A21F007011160FD
:1023D0004B600B600B1AC0E9001393604FF0004094
:1023E0005360506170470000EC0D00209400002005
:1023F000144E154CA6F29C474FF08058DFF84C90D5
:1024000012E000BF00F052FBF068C568281D00F024
:10241000F1FAA068401EA0606068401E606000F095
:1024200065FB2846FFF7A3FF60680028EAD13868FB
:102430000128F9D9C9F80080BFF34F8FBFF36F8F20
:10244000F2E70000F40500202800002004ED00E081
:1024500070B51D46049C51B1C4F80020C4E90F01B9
:102460000121204600F0A4FD84F84C5070BD24608A
:10247000F4E700002DE9F05F8846DDE90B9415468E
:10248000834691009A460A9EA522206BFDF73BFFEA
:102490006FF00301206B01EB8501084420F0070772
:1024A000780707D0502080F31188BFF34F8FBFF318
:1024B0006F8FFEE70025B8F1000F0FD05FF000002E
:1024C000221818F8001082F8341018F8001011B112
:1024D000401C1028F4D384F8435001E084F83450B1
:1024E000382E00D33726E662C4E91365201D00F0BC
:1024F000B6FA04F1180000F0B2FA2461C6F138000F
:102500006462A061656584F8585052465946384661
:1025100000F05AFA2060B9F1000F01D0C9F800406C
:10252000BDE8F09F30B5114900E011460A688242CB
:10253000FBD34B685C18844203D140681844486060
:10254000084643681C18944209D1084C183C24687A
:10255000A24209D052681A4442600A6812680260B6
:10256000814200D0086030BD0460F9E7940000208B
:1025700070B5002441600B4D0061914206D8D11A1C
:102580008269914206D2011D286907E09A4203D26E
:10259000994201D3012403E0011DE86800F062FACA
:1025A000204670BD6400002010B5044600F07EFA9D
:1025B000A06B28B15FF0000400F098FA204610BD2F
:1025C0000124F9E730B589B03C4D6EE0049800284D
:1025D00006DADDE90601059A90470498002864DBD5
:1025E000069C606910B1201D00F004FA03A800F0F9
:1025F000D7F8024604980A2857D2DFE800F005050C
:10260000052D334A05052D3394F8280040F00100CC
:1026100084F828000599A069059B01442046FFF72E
:10262000A7FF68B3216A2046884794F8280040072E
:102630003BD5002000900598A16900234218194657
:10264000204601F0B3F9D8B9502080F31188BFF3C8
:102650004F8FBFF36F8FFEE714F8280F20F00100B3
:10266000207022E094F8280040F0010084F828004F
:102670000598A06128B1811813462046FFF778FF1E
:1026800013E0502080F31188BFF34F8FBFF36F8F9B
:10269000FEE794F82800810703D4204600F03AFAB8
:1026A00003E020F0010084F82800002204A9286833
:1026B00000F0D2FD002889D109B030BD64000020AF
:1026C0002DE9FC410F46054600F074FB01A800F01F
:1026D00067F80446019818B101F0D6F8BDE8FC810E
:1026E000254EAFB130690068D0B30027291B3A46A8
:1026F000306800F091FA01F0C7F80028EED11F49C8
:102700004FF080500860BFF34F8FBFF36F8FE5E746
:10271000A542EBD801F0B8F8F0682746C068C46855
:10272000201D00F067F994F82800410719D5A06929
:102730002B4641193A462046FFF71AFFA8B1002060
:102740000346014600902A46204601F02FF960B961
:10275000502080F31188BFF34F8FBFF36F8FFEE7D8
:1027600007E020F0010084F82800216A204688470D
:10277000B4E70127BAE700006400002004ED00E0A0
:102780000648416B096829B1416BC968C968496845
:10279000816270474FF0FF31FAE700002800002007
:1027A00070B5054600F086FF064E0446B0688442C8
:1027B00003D200F009F8012000E000202860204644
:1027C000B46070BD64000020F8B5194D20E0C06809
:1027D000C4680668201D00F00DF9216A204688476C
:1027E00094F82800400713D5A0693044B04206D9B8
:1027F00024616060211DE86800F034F908E00020E1
:102800000346014600903246204601F0CFF838B129
:10281000E86801680029DAD12969C5E90310F8BD23
:10282000502080F31188BFF34F8FBFF36F8FFEE707
:102830006400002008484068401C4FF0500080F3BE
:10284000118804D0BFF34F8FBFF36F8FFEE7BFF344
:102850004F8FBFF36F8FFEE79C000020074CE068AE
:10286000016841B1C0680021D0F80000FFF728FFDF
:10287000FFF7A8FEF3E701210020F7E7640000203E
:102880002DE9F041044600F011F994F9455004F1A6
:10289000240609E0606A48B1304600F0BDFF08B187
:1028A00000F00AFA6D1E6DB2002DF3DC4FF0FF361A
:1028B00084F8456000F01AF900F0F8F894F94450F3
:1028C00004F1100709E0206948B1384600F0A4FF80
:1028D00008B100F0F1F96D1E6DB2002DF3DC84F843
:1028E0004460BDE8F04100F001B900002DE9F0417D
:1028F0000546002700F05EFA324E306808B9FFF74F
:1029000051FD706905424ED1C5B3083568070ED038
:1029100005F00700C0F108000544680707D0502003
:1029200080F31188BFF34F8FBFF36F8FFEE72DB396
:102930007068854237D82348183001460C6801E09A
:1029400020460C466168A94202D221680029F7D1CD
:1029500031688C4227D007682168016060680837B9
:10296000411B10290FD96019420708D0502080F36D
:102970001188BFF34F8FBFF36F8FFEE713E0416005
:102980006560FFF7CFFD61687068401A7060B268DB
:10299000904200D2B060706901430020C4E9000198
:1029A000F068401CF06000F06FFF780707D05020FF
:1029B00080F31188BFF34F8FBFF36F8FFEE7384668
:1029C000BDE8F0817C00002010B5031F4FF080743B
:1029D0001C601B1F21F001011960191F044B0B60C3
:1029E00014390A60091F6FF0020244380A6010BDF2
:1029F00035280008D0E9013201699A60D0E9012345
:102A00005A604A68824201D182684A6000220261AB
:102A10000868401E0860086870470000034B0360A8
:102A200003F15C00086080201060704734070020CC
:102A3000044B036003F15C0008604FF48070106089
:102A4000704700009009002000F108014FF0FF32AC
:102A5000C0E90112C16001610021016070470021DD
:102A60000161704730B50B685A1C02D000F10802B2
:102A700002E0026904E02246546825689D42FAD9C2
:102A800053684B6099608A60516008610168491C15
:102A9000016030BD42684A6093688B6093685960FA
:102AA000916008610168491C01607047502080F303
:102AB0001188BFF34F8FBFF36F8F0A494868401CDE
:102AC000486001280CD10848006810F0FF0F07D0BB
:102AD000502080F31188BFF34F8FBFF36F8FFEE755
:102AE000704700009C00002004ED00E008494868A1
:102AF00028B1401E486001D180F3118870475020F2
:102B000080F31188BFF34F8FBFF36F8FFEE7000094
:102B10009C00002070B500282AD0164DA0F10804B2
:102B200060686969084207D1502080F31188BFF3BB
:102B30004F8FBFF36F8FFEE722683AB1502080F3CA
:102B40001188BFF34F8FBFF36F8FFEE7884360603C
:102B500000F030F960686968084468602046FFF753
:102B6000E1FC2869401C2861BDE8704000F08CBE83
:102B700070BD00007C0000204FF0E02000210161CA
:102B8000816105494FF47A720968B1FBF2F1491E7F
:102B900041610721016170472400002010B5FDF755
:102BA00059FB114910280ED300F1E02090F8F003F2
:102BB0000A78904207D2502080F31188BFF34F8FDC
:102BC000BFF36F8FFEE709480068896800F4E06092
:102BD000884207D9502080F31188BFF34F8FBFF38D
:102BE0006F8FFEE710BD00009C0000200CED00E0A0
:102BF00010B5084B002200BF53F832401CB1521CE4
:102C0000082AF9D310BD43F8321003EBC201486023
:102C100010BD00001801002070B515460E46044690
:102C2000FFF744FF94F944100020491C01D184F8B7
:102C3000440094F94510491C01D184F84500FFF780
:102C400055FFA06B28B92A46314604F1240000F054
:102C500051F82046BDE87040FFF712BE10B50200E3
:102C600014D00F48006B38B1502080F31188BFF3A7
:102C70004F8FBFF36F8FFEE700F09CF800211046E6
:102C8000FFF76AFA00F000FE002807D105494FF06F
:102C900080500860BFF34F8FBFF36F8F10BD0000EF
:102CA0002800002004ED00E002490A6A0260C968B9
:102CB000416070472800002001490120C861704729
:102CC0002800002010B50C4650B109490968183198
:102CD000FFF7C8FE2046BDE810400121FFF73CBACF
:102CE000502080F31188BFF34F8FBFF36F8FFEE743
:102CF0002800002070B514460D4668B10A490968DD
:102D00001831FFF7C7FE0CB14FF0FF3521462846BA
:102D1000BDE87040FFF720BA502080F31188BFF360
:102D20004F8FBFF36F8FFEE72800002030B587B0CC
:102D30000024039405AA04A903A80494FFF76EFED7
:102D4000DDE903010094CDE90110002315A1174826
:102D5000059A00F084FB164D0028E8621FD000F0B1
:102D6000F5FD012809D0401C19D1502080F31188AD
:102D7000BFF34F8FBFF36F8FFEE7502080F31188B2
:102D8000BFF34F8FBFF36F8F4FF0FF30A86201206A
:102D90006861EC6007B0BDE8304000F045B807B0AE
:102DA00030BD000049444C4500000000F1230008FC
:102DB000280000200248016B491C01637047000095
:102DC00028000020164810B5016B11B10121C16126
:102DD00010BD0021C1610169124A01E0B9B1491E6B
:102DE00001EB810352F82330002BF7D001EB810374
:102DF00002EB830202F1080453685B685360A3424C
:102E000001D15B685360DA680260016110BD502037
:102E100080F31188BFF34F8FBFF36F8FFEE7000081
:102E200028000020580100201CB537480168374AA7
:102E3000914207D1502080F31188BFF34F8FBFF329
:102E40006F8FFEE700683149491E884207D1502044
:102E500080F31188BFF34F8FBFF36F8FFEE72C49CC
:102E600008780190FF20087008788DF800009DF820
:102E700000009DF8002000F0F000904207D05020A4
:102E800080F31188BFF34F8FBFF36F8FFEE79DF87C
:102E90000000204C00F0500020700720A06005E0EA
:102EA0009DF8002052008DF80020401E9DF8002063
:102EB0001206F5D4A060032807D0502080F31188B3
:102EC000BFF34F8FBFF36F8FFEE74FF44070A060EA
:102ED000019808700C482030016841F470010160CD
:102EE000016841F070410160FFF746FE002060601C
:102EF000FDF778F90848016841F040410160FDF7AD
:102F00005DF900201CBD000000ED00E071C20F4122
:102F100000E400E09C00002034EF00E010B55020F9
:102F200080F31188BFF34F8FBFF36F8F00F0D0FB9A
:102F300018B104494FF080500860002080F31188D8
:102F400010BD000004ED00E038B5049D18B153B188
:102F5000CAB181B120E0502080F31188BFF34F8FB8
:102F6000BFF36F8FFEE7502080F31188BFF34F8FC0
:102F7000BFF36F8FFEE7502080F31188BFF34F8FB0
:102F8000BFF36F8FFEE739B1502080F31188BFF394
:102F90004F8FBFF36F8FFEE750241C46012384F848
:102FA00046302B460094FFF753FA204638BD000008
:102FB00070B50D46040025D0FFF778FDD4E90F2049
:102FC000216802FB0011A1600021A16321686160FA
:102FD0000A46D4E90F01401E00FB0121E1602146B1
:102FE0004FF0FF3001F8440F487004F110008DB12C
:102FF000FFF72AFD04F12400FFF726FDFFF776FD19
:10300000012070BD502080F31188BFF34F8FBFF3B4
:103010006F8FFEE721690029F0D000F0FDFB00284A
:10302000ECD004494FF080500860BFF34F8FBFF3DE
:103030006F8FE3E704ED00E02DE9FF4782B01D4606
:103040008A464FF00008040003D0BAF1000F08D000
:1030500011E0502080F31188BFF34F8FBFF36F8FC3
:10306000FEE7206C38B1502080F31188BFF34F8FFA
:10307000BFF36F8FFEE7022D0AD1E06B012807D066
:10308000502080F31188BFF34F8FBFF36F8FFEE79F
:1030900000F002FB3F4F4FF000094FF0805648B957
:1030A000049838B1502080F31188BFF34F8FBFF3DD
:1030B0006F8FFEE7FFF7FAFCA06BE16B884207D346
:1030C000022D05D00498D0B1B8F1000F1AD01EE03F
:1030D0002A4651462046FFF714F9616A19B104F1F6
:1030E000240000F099FB20B13E60BFF34F8FBFF387
:1030F0006F8FFFF7FBFC012006B0BDE8F087FFF7FC
:10310000F5FC22E06846FFF7CFFD4FF00108FFF71E
:10311000EDFCFFF74FFEFFF7C9FC94F94400401C9B
:1031200001D184F8449094F94500401C01D184F801
:103130004590FFF7DBFC04A9684600F029F930B19F
:103140002046FFF79DFB00F09FFB0020D4E7FFF730
:10315000ADFCA06BE16B884213D1FFF7C7FC04F113
:1031600010000499FFF7AEFD2046FFF789FB00F041
:103170008BFB00289ED13E60BFF34F8FBFF36F8F54
:1031800098E7FFF7B3FC2046FFF77AFB00F07CFBE3
:1031900090E7000004ED00E02DE9F0471F4690465F
:1031A0008946040003D0B9F1000F08D011E0502087
:1031B00080F31188BFF34F8FBFF36F8FFEE7206C52
:1031C00038B1502080F31188BFF34F8FBFF36F8F5A
:1031D000FEE7022F0AD1E06B012807D0502080F3D0
:1031E0001188BFF34F8FBFF36F8FFEE7FFF7D6FC59
:1031F0005020EFF3118680F31188BFF34F8FBFF398
:103200006F8FA06BE16B884206D3022F04D00020A1
:1032100086F31188BDE8F08794F94550A06B3A46D3
:1032200049462046FFF76DF8681C04D06D1C84F8F1
:1032300045500120ECE7606A0028FAD004F1240030
:1032400000F0EAFA0028F4D0B8F1000FF1D0012123
:10325000C8F80010EDE700002DE9F747002683B01D
:103260008A46040003D0BAF1000F08D011E05020C4
:1032700080F31188BFF34F8FBFF36F8FFEE7206C91
:1032800038B1502080F31188BFF34F8FBFF36F8F99
:10329000FEE700F001FADFF8F4804FF000094FF08C
:1032A000805748B9059838B1502080F31188BFF392
:1032B0004F8FBFF36F8FFEE7FFF7F8FBA56BC5B12C
:1032C00051462046FFF70AF86D1EA563206950B1EC
:1032D00004F1100000F0A0FA28B1C8F80070BFF3A4
:1032E0004F8FBFF36F8FFFF701FC012006B0BDE8E1
:1032F000F087059808B11EB106E0FFF7F7FB27E05D
:103300006846FFF7D1FC0126FFF7F0FBFFF752FDFF
:10331000FFF7CCFB94F94400401C01D184F84490A1
:1033200094F94500401C01D184F84590FFF7DEFB7D
:1033300005A9684600F02CF8002820460AD0FFF7BF
:103340009FFA00F0A1FA2046FFF72EF90028B3D02B
:103350000020CBE7FFF728F990B104F1240005998C
:10336000FFF7B0FC2046FFF78BFA00F08DFA00283B
:10337000A2D1C8F80070BFF34F8FBFF36F8F9BE7E8
:103380002046FFF77DFA00F07FFA95E704ED00E0B4
:103390002DE9F0410C46050011D0C4B1FFF786FBC2
:1033A000174BDA686E682068911B471C17D02F688E
:1033B0001B6A9F4219D0964217D8012410E0502072
:1033C00080F31188BFF34F8FBFF36F8FFEE750205C
:1033D00080F31188BFF34F8FBFF36F8FFEE7002498
:1033E000FFF784FB2046BDE8F081884205D9401AEA
:1033F00020602846FFF758FCF1E700202060DCE75A
:10340000280000202DE9FF5F8346DDE90E879946FD
:1034100016468A469000FFF769FA05001CD05C202A
:10342000FFF764FA040014D00020256384F85900E3
:10343000CDE90240CDE900874B4632465146584619
:10344000FFF718F82046FEF7B5FE012004B0BDE8EE
:10345000F09F2846FFF75EFB4FF0FF30F6E7F0B530
:1034600085B0DDE90B640A9DA6B1DCB15C2700974D
:103470002663022684F85960002604AFCDE902468F
:10348000CDE90057FEF7F6FF2046FEF793FE0498BD
:1034900005B0F0BD502080F31188BFF34F8FBFF30C
:1034A0006F8FFEE7502080F31188BFF34F8FBFF37B
:1034B0006F8FFEE72DE9F0411F4690460D4601262D
:1034C00090B10446FFF7F2FA0FB1606D386094F8DE
:1034D0005800022184F85810B8F1050F19D2DFE81E
:1034E00008F0230B0E141200502080F31188BFF354
:1034F0004F8FBFF36F8FFEE7616D294301E0616D70
:10350000491C616510E0022801D065650CE00026C9
:1035100034E0616D491C07D0502080F31188BFF35F
:103520004F8FBFF36F8FFEE7012827D1201DFFF7D4
:1035300061FA154DE06A2969884200D9286113496A
:1035400000EB800001EB8000211DFFF7A3FAA06AC9
:1035500038B1502080F31188BFF34F8FBFF36F8FC6
:10356000FEE7E06A2968C96A884207D908494FF02E
:1035700080500860BFF34F8FBFF36F8FFFF7B6FA2D
:103580003046BDE8F08100002800002058010020EE
:1035900004ED00E02DE9F0471F46DDF8209092464B
:1035A0000D4604004FF001081AD0FFF7F7FA50203B
:1035B000EFF3118680F31188BFF34F8FBFF36F8F46
:1035C0000FB1606D386094F85800022184F85810EB
:1035D000BAF1050F1AD2DFE80AF0240B0E1412001C
:1035E000502080F31188BFF34F8FBFF36F8FFEE73A
:1035F000616D294301E0616D491C616511E002289C
:1036000001D065650DE04FF0000839E0616D491C9F
:1036100007D0502080F31188BFF34F8FBFF36F8F17
:10362000FEE701282CD1A06A38B1502080F3118820
:10363000BFF34F8FBFF36F8FFEE7144D286B18B1A8
:1036400004F1180112480DE0201DFFF7D3F9E06ADC
:103650002969884200D928610E4900EB800001EBFE
:103660008000211DFFF716FAE06A2968C96A8842BE
:1036700006D90120B9F1000F01D0C9F80000E861B6
:1036800086F311884046BDE8F0870000280000203E
:10369000E0050020580100200548416919B1006B80
:1036A00018B10020704701207047022070470000C9
:1036B000280000200148C068704700002800002052
:1036C00010B5FFF76BFA0148C06810BD2800002054
:1036D0002DE9F0412E4C0027206B28B1A069401C39
:1036E000A0613846BDE8F081E668761CE66013D13B
:1036F000606B006838B1502080F31188BFF34F8FA2
:10370000BFF36F8FFEE7606BA16B6163A063206AFC
:10371000401C2062FFF734F8A06ADFF87880864208
:1037200009D3606B0068A0B1606BC068C568686849
:10373000864211D2A0622068C06A00EB800158F86E
:103740002100012800D90127E0690028C9D00127FC
:10375000C7E74FF0FF30EDE7281DFFF74BF9A86AE8
:1037600018B105F11800FFF745F9E86A21698842A8
:1037700000D9206100EB800108EB8100291DFFF7D3
:1037800089F9E86A2168C96A8842CAD30127C8E76B
:10379000280000205801002070B504004FF00001FF
:1037A00033D01B4D2868844207D0502080F3118805
:1037B000BFF34F8FBFF36F8FFEE7206D38B1401E10
:1037C0002065E36CE26A9A421FD040B11DE05020B0
:1037D00080F31188BFF34F8FBFF36F8FFEE7201D7B
:1037E000FFF708F9E06CE062C0F13800A061E06A20
:1037F0002969884200D92861064900EB800001EB65
:103800008000211DFFF746F90121084670BD000028
:10381000280000205801002070B5C068C46854B169
:1038200004F118000646FFF7E5F8144D286B50B177
:103830003146134815E0502080F31188BFF34F8FB5
:10384000BFF36F8FFEE7201DFFF7D4F8E06A296908
:10385000884200D928610B4900EB800001EB800011
:10386000211DFFF717F9E06A2968C96A884202D961
:103870000120E86170BD002070BD0000280000201C
:10388000E0050020580100202DE9F0472C4D0024D0
:103890002746286B38B1FFF709F9286B401E2863CB
:1038A000286B40B146E0502080F31188BFF34F8F62
:1038B000BFF36F8FFEE7A968224E0120D1B3A6F5B2
:1038C000916980463068E0B1F068C46804F118007E
:1038D000FFF790F8201DFFF78DF8E06A296988420C
:1038E00000D9286100EB800109EB8100211DFFF761
:1038F000D1F8E06A2968C96A8842E3D3C5F81C8018
:10390000E0E70CB1FEF73CFFAC694CB14FEA0806AA
:10391000FFF7DEFE00B1EE61641EF9D10020A86160
:10392000E86938B10849012738070860BFF34F8FAD
:10393000BFF36F8FFFF7DAF83846BDE8F087000075
:1039400028000020E005002004ED00E010B586B05E
:10395000FEF798FC114C2068B8B100200390049049
:1039600005AA04A903A8FFF763F8DDE903210220F3
:103970008DE8070000230AA10B48059AFFF76FFDA9
:10398000606010B106B0012010BD502080F3118896
:10399000BFF34F8FBFF36F8FFEE70000640000207E
:1039A000546D7220537663005D2800082DE9FF41B5
:1039B0001E46134602000A9D4FF0000016D0144C1C
:1039C0002768002F0FD0CDE900130292062917DADD
:1039D000FFF762FE02284FF000030FD00022694675
:1039E0002068FFF729FB04B0BDE8F081502080F388
:1039F0001188BFF34F8FBFF36F8FFEE72A46EEE7C4
:103A00000023324669463846FFF7C6FBEBE7000065
:103A10006400002000000000000000000000000022
:103A20000000000000000010101010101010000026
:103A300010100000001224244800000000000000C4
:103A4000000000000000001212127E2424247E24B4
:103A5000242400000000083C4A4A48380C0A0A4A5C
:103A60004A3C080800000044A4A8A8B0541A2A2A16
:103A70004A44000000000030484848506EA4949822
:103A80008976000000602020400000000000000057
:103A900000000000000204080810101010101008A8
:103AA0000804020000402010100808080808081048
:103AB00010204000000000001010D63838D610103A
:103AC0000000000000000000000808087F08080847
:103AD00000000000000000000000000000000000E6
:103AE0006020204000000000000000007E00000078
:103AF00000000000000000000000000000000000C6
:103B00006060000000000204040408081010102087
:103B100020404000000000182442424242424242FB
:103B200024180000000000083808080808080808E1
:103B3000083E00000000003C4242420204081020FF
:103B4000427E00000000003C42420204180402428F
:103B5000423C0000000000040C0C142424447F04A8
:103B6000041F00000000007E4040407844020242F2
:103B700044380000000000182440405C6242424289
:103B8000221C00000000007E4204040808101010EF
:103B9000101000000000003C42424224182442421F
:103BA000423C00000000003844424242463A0202D1
:103BB0002418000000000000000018180000000099
:103BC00018180000000000000000001000000000B5
:103BD00000101010000000020408102040201008FF
:103BE000040200000000000000007E00007E0000D3
:103BF000000000000000004020100804020408102B
:103C0000204000000000003C424262040808080016
:103C10001818000000000038445AAAAAAAAAAA5CF0
:103C2000423C00000000001010182828243C4442A8
:103C300042E70000000000F8444444784442424215
:103C400044F800000000003E4242808080808042B4
:103C500044380000000000F84442424242424242DE
:103C600044F80000000000FC4248487848484042C0
:103C700042FC0000000000FC4248487848484040B0
:103C800040E000000000003C44448080808E84447A
:103C900044380000000000E7424242427E42424275
:103CA00042E700000000007C1010101010101010EF
:103CB000107C00000000003E0808080808080808FA
:103CC000080888F0000000EE44485070504848440E
:103CD00044EE0000000000E04040404040404040D2
:103CE00042FE0000000000EE6C6C6C6C6C5454548E
:103CF00054D60000000000C7626252524A4A4A4647
:103D000046E2000000000038448282828282828281
:103D100044380000000000FC424242427C404040E7
:103D200040E000000000003844828282828282B239
:103D30004C380600000000FC4242427C48484444A3
:103D400042E300000000003E4242402018040242CC
:103D5000427C0000000000FE9210101010101010A5
:103D600010380000000000E7424242424242424214
:103D7000423C0000000000E7424244242428281866
:103D800010100000000000D654545454546C2828DD
:103D900028280000000000E74224241818182424D2
:103DA00042E70000000000EE4444282810101010E4
:103DB000103800000000007E840408081020204213
:103DC00042FC0000001E10101010101010101010F7
:103DD00010101E00000040202020101010080804C1
:103DE00004040202007808080808080808080808FF
:103DF00008087800001824000000000000000000FF
:103E000000000000000000000000000000000000B2
:103E1000000000FF00601000000000000000000033
:103E2000000000000000000000000038440C344492
:103E30004C36000000000000C0404058644242423E
:103E400064580000000000000000001C22404040B8
:103E5000221C0000000000000602023E42424242D4
:103E6000463B0000000000000000003C42427E4053
:103E7000423C0000000000000C12107C10101010DA
:103E8000107C0000000000000000003E4444384068
:103E90003C42423C00000000C040405C6242424262
:103EA00042E70000000000303000007010101010D9
:103EB000107C00000000000C0C00001C0404040432
:103EC0000404447800000000C040404E4850704850
:103ED00044EE0000000000107010101010101010C0
:103EE000107C000000000000000000FE4949494924
:103EF00049ED000000000000000000DC6242424288
:103F000042E70000000000000000003C4242424244
:103F1000423C000000000000000000D86442424221
:103F2000645840E0000000000000001A26424242AF
:103F3000261A020700000000000000EE32202020B8
:103F400020F80000000000000000003E42403C025B
:103F5000427C0000000000000010107C10101010C7
:103F6000120C000000000000000000C64242424265
:103F7000463B000000000000000000EE44442828FA
:103F80001010000000000000000000DB894A5A54B5
:103F900024240000000000000000007624181818F7
:103FA000246E000000000000000000E742242418F6
:103FB00018101060000000000000007E440810107F
:103FC000227E000000030404040404040804040422
:103FD0000404030008080808080808080808080876
:103FE0000808080800C020202020202010202020C1
:103FF0002020C000205A0400000000000000000043
:1040000000000000000000000000000000000000B0
:104010000000000008200820FFFE0820001000F823
:104020003F001110082001007FFC054009203118D5
:10403000C106010008801C80F08010FE1102FD0402
:104040001220302038A854A451249122122210208A
:1040500010A0104001000100010001000100FFFE5E
:10406000010001000280028004400440082010107A
:104070002008C0061010082004403FF8210821083D
:104080003FF8210821083FF801000100FFFE010070
:10409000010001000100010001003FF82108210892
:1040A00021083FF82108210821083FF8210A0102D0
:1040B000010200FE10801040104013FCFC001000B4
:1040C00031F03910551055109110111211121212B1
:1040D000120E140010201020102013FEFC201020BF
:1040E000102015FC18843088D04810501020105033
:1040F0005188260608101D10F09010901010FD1029
:10410000109038903410501E53F090101010101072
:10411000101010100200020007F008101420624076
:104120000280010006001FF8E808080808080808CF
:104130000FF808082080108010FE0120FE202120AA
:10414000212C3D7427A425242534252A2522450227
:1041500054FE880000003EFE22103E20227C3E4499
:104160000054FF54085408542F282844288258002B
:104170004FFE800000007FFC0100010001000100F3
:1041800001003FF8010001000100010001000100F1
:10419000FFFE0000022007203820207E20422084DD
:1041A0003F10241024102410242824282448444498
:1041B0004484810200402240124013F80440004031
:1041C000F7FC11201120112012241224141C2800A5
:1041D00047FE000022081108111000207FFE400257
:1041E00080041FE000400180FFFE0100010001008B
:1041F00005000200204010407C8000FC45042A0499
:10420000FE8400447C44441444247C444584440497
:104210007C284410082004403FF82108292825481C
:104220003FF800001FF0101010101FF010101010B9
:104230001FF0101008200820FFFE08200A200100AF
:1042400001007FF8003000C003000C00300048007F
:1042500087FE00001004108410841084108454A47D
:10426000529452949084108410841084208420846A
:10427000400480040200010000007FFC01000100F6
:10428000010001003FF801000100010001000100F0
:10429000FFFE000000007FF80010002000400180B9
:1042A0000100FFFE0100010001000100010001000A
:1042B00005000200402040107DFE80207C484484A0
:1042C00065FE5402FEA844A8A4A894A8FEAA052A44
:1042D0002926120010201020104018405488510444
:1042E00053FE9002100011FC11041104110411047A
:1042F00011FC11040000000000000000000000009C
:1043000000000000000000000000000000000000AD
:10431000000000000000000000000000000000009D
:10432000000000000000000000000000000000008D
:104330000000000008080100143A00080808010005
:10434000243A000808080100343A0008080801006F
:10435000443A000808080100543A0008080801001F
:10436000643A000808080100743A000808080100CF
:10437000843A000808080100943A0008080801007F
:10438000A43A000808080100B43A0008080801002F
:10439000C43A000808080100D43A000808080100DF
:1043A000E43A000808080100F43A0008080801008F
:1043B000043B000808080100143B0008080801003D
:1043C000243B000808080100343B000808080100ED
:1043D000443B000808080100543B0008080801009D
:1043E000643B000808080100743B0008080801004D
:1043F000843B000808080100943B000808080100FD
:10440000A43B000808080100B43B000808080100AC
:10441000C43B000808080100D43B0008080801005C
:10442000E43B000808080100F43B0008080801000C
:10443000043C000808080100143C000808080100BA
:10444000243C000808080100343C0008080801006A
:10445000443C000808080100543C0008080801001A
:10446000643C000808080100743C000808080100CA
:10447000843C000808080100943C0008080801007A
:10448000A43C000808080100B43C0008080801002A
:10449000C43C000808080100D43C000808080100DA
:1044A000E43C000808080100F43C0008080801008A
:1044B000043D000808080100143D00080808010038
:1044C000243D000808080100343D000808080100E8
:1044D000443D000808080100543D00080808010098
:1044E000643D000808080100743D00080808010048
:1044F000843D000808080100943D000808080100F8
:10450000A43D000808080100B43D000808080100A7
:10451000C43D000808080100D43D00080808010057
:10452000E43D000808080100F43D00080808010007
:10453000043E000808080100143E000808080100B5
:10454000243E000808080100343E00080808010065
:10455000443E000808080100543E00080808010015
:10456000643E000808080100743E000808080100C5
:10457000843E000808080100943E00080808010075
:10458000A43E000808080100B43E00080808010025
:10459000C43E000808080100D43E000808080100D5
:1045A000E43E000808080100F43E00080808010085
:1045B000043F000808080100143F00080808010033
:1045C000243F000808080100343F000808080100E3
:1045D000443F000808080100543F00080808010093
:1045E000643F000808080100743F00080808010043
:1045F000843F000808080100943F000808080100F3
:10460000A43F000808080100B43F000808080100A2
:10461000C43F000808080100D43F00080808010052
:10462000E43F000808080100F43F00080808010002
:10463000044000081010020014400008101002008E
:10464000344000081010020054400008101002000E
:10465000744000081010020094400008101002007E
:10466000B440000810100200D440000810100200EE
:10467000F44000081010020014410008101002005D
:1046800034410008101002005441000810100200CC
:10469000744100081010020094410008101002003C
:1046A000B441000810100200D441000810100200AC
:1046B000F44100081010020014420008101002001B
:1046C000344200081010020054420008101002008A
:1046D00074420008101002009442000810100200FA
:1046E000B442000810100200D4420008101002006A
:1046F000F44200081010020014430008FDFEFEFE04
:10470000EC46000800000000F9E2F9E2E446000887
:10471000FC460008B9D8B9D8DC46000808470008AC
:10472000D3D7D3D7D446000814470008F7D6F7D616
:10473000CC46000820470008DDD6DDD6C446000878
:104740002C470008A5D6A5D6BC4600083847000867
:10475000F8D4F8D4B446000844470008CFD4CFD4E6
:10476000AC46000850470008A7D1A7D1A4460008CE
:104770005C470008A1D1A1D19C4600086847000809
:10478000C0D0C0D09446000874470008F5CDF5CDE0
:104790008C46000880470008E2CCE2CC8446000842
:1047A0008C470008A9CAA9CA7C4600089847000897
:1047B000FBC3FBC374460008A4470008C6BFC6BFBE
:1047C0006C460008B0470008BCBCBCBC644600088E
:1047D000BC470008BCBABCBA5C460008C847000821
:1047E000E7B5E7B554460008D4470008A5B5A5B518
:1047F0004C460008E0470008F3B4F3B44446000810
:10480000EC470008C6B3C6B33C460008F8470008AA
:10481000CBB2CBB2344600080448000820007F0029
:1048200034430008104800085D050008F50500083D
:1048300021060008270600080000000010100101F2
:104840001C48000800000000F04E000800000000B6
:104850000000000000000000000000000002000056
:10486000180000000000000000000000E84E0008F2
:104870000000000000000000000000000000000038
:10488000000400000800000000000000000000001C
:10489000FC4E0008000000000000000000000000C6
:1048A00000000000000200000800000000000000FE
:1048B00000000000000000000000000001020304EE
:1048C00006070809000000000102030400000000C0
:1048D000000000008080808080008000A0A0A000F8
:1048E000000000005050F850F85050002078A070A0
:1048F00028F02000C0C81020409818006090A04008
:10490000A8906800C0408000000000002040808027
:10491000804020008040202020408000005020F86F
:1049200020500000002020F820200000000000009F
:1049300000C04080000000F80000000000000000FF
:1049400000C0C0000008102040800000708898A8B7
:10495000C8887000206020202020700070880830F7
:104960004080F8007088083008887000103050903F
:10497000F8101000F880F00808887000304080F0CF
:1049800088887000F80810204040400070888870C7
:1049900088887000708888780810600000C0C000A7
:1049A000C0C000000000C0C000C040801020408097
:1049B000402010000000F800F800000080402010A7
:1049C000204080007088081020002000708808684F
:1049D000A8A87000708888F888888800F08888F017
:1049E0008888F0007088808080887000E0908888D7
:1049F0008890E000F88080F08080F800F88080F0F7
:104A0000808080007088808098887800888888F806
:104A100088888800E04040404040E0003810101096
:104A2000109060008890A0C0A09088008080808056
:104A30008080F80088D8A8A8888888008888C8A8B6
:104A4000988888007088888888887000F08888F046
:104A50008080800070888888A8906800F08888F03E
:104A6000A09088007088807008887000F82020204E
:104A70002020200088888888888870008888888816
:104A800088502000888888A8A8A8500088885020CE
:104A9000508888008888502020202000F8081020A6
:104AA0004080F800E08080808080E000008040202E
:104AB00010080000E02020202020E0002050880086
:104AC0000000000000000000000000F8804020000E
:104AD0000000000000007008788878008080B0C86E
:104AE0008888F00000006090809060000808689856
:104AF0008888780000007088F8807000205040E0BE
:104B00004040400000007888887808708080B0C8F5
:104B1000888888008000808080808000200060205D
:104B2000202020C0808090A0C0A09000C0404040C5
:104B30004040E0000000D0A8888888000000B0D085
:104B40009090900000006090909060000000E090D5
:104B500090E0808000007090907010100000A0C065
:104B600080808000000070806010E0004040E040E5
:104B700040404000000090909090700000008888B5
:104B80008850200000008888A8A8500000008850A5
:104B90002050880000009090907010600000F81085
:104BA0002040F800204040804040200040404040ED
:104BB000404040008040402040408000689000001D
:104BC0000000000003030100CC48000802020100BD
:104BD000D448000804040100DC480008060601006F
:104BE000E448000806060100EC480008060601003B
:104BF000F448000806060100FC4800080303010011
:104C000004490008040401000C49000804040100E0
:104C100014490008060601001C49000806060100A8
:104C200024490008030301002C490008060601007E
:104C300034490008030301003C490008060601004E
:104C400044490008060601004C4900080606010018
:104C500054490008060601005C49000806060100E8
:104C600064490008060601006C49000806060100B8
:104C700074490008060601007C4900080606010088
:104C800084490008060601008C4900080606010058
:104C900094490008030301009C4900080303010034
:104CA000A449000805050100AC49000806060100FA
:104CB000B449000805050100BC49000806060100CA
:104CC000C449000806060100CC4900080606010098
:104CD000D449000806060100DC4900080606010068
:104CE000E449000806060100EC4900080606010038
:104CF000F449000806060100FC4900080606010008
:104D0000044A0008060601000C4A000804040100D9
:104D1000144A0008060601001C4A000806060100A5
:104D2000244A0008060601002C4A00080606010075
:104D3000344A0008060601003C4A00080606010045
:104D4000444A0008060601004C4A00080606010015
:104D5000544A0008060601005C4A000806060100E5
:104D6000644A0008060601006C4A000806060100B5
:104D7000744A0008060601007C4A00080606010085
:104D8000844A0008060601008C4A00080606010055
:104D9000944A0008060601009C4A00080404010029
:104DA000A44A000806060100AC4A000804040100F9
:104DB000B44A000806060100BC4A000806060100C5
:104DC000C44A000806060100CC4A00080606010095
:104DD000D44A000806060100DC4A00080505010067
:104DE000E44A000806060100EC4A00080606010035
:104DF000F44A000805050100FC4A00080606010007
:104E0000044B0008060601000C4B000802020100DA
:104E1000144B0008040401001C4B000805050100A8
:104E2000244B0008040401002C4B00080606010076
:104E3000344B0008050501003C4B00080505010046
:104E4000444B0008050501004C4B00080505010016
:104E5000544B0008040401005C4B000805050100E8
:104E6000644B0008040401006C4B000805050100B8
:104E7000744B0008060601007C4B00080606010082
:104E8000844B0008060601008C4B00080505010054
:104E9000944B0008060601009C4B00080404010026
:104EA000A44B000803030100AC4B000804040100FC
:104EB000B44B000806060100BC4B000820007E0031
:104EC000C44B0008000000005D050008F50500085F
:104ED000210600082706000800000000080801015C
:104EE000BC4E0008000000006775695461736B00D8
:104EF00064656661756C745461736B006B6579549D
:104F000061736B00244F000800000020D0000000F7
:104F1000941F0008F44F0008D00000204851000002
:104F2000A41F0008000000000000000000000000B6
:104F30000000000000000000000000000100000070
:104F400010000000000000000024F4000000000039
:104F50000000000000000000000000000000000051
:104F60000000000000000000000000000000000041
:104F70000000000000000000000000000000000031
:104F80000000000000000000000000000000000021
:104F90000000000000000000000000000000000011
:104FA0000000000000000000000000000000000001
:104FB00000000000000000000000000000000000F1
:104FC00000000000AAAAAAAA000000000000000039
:104FD00000000000010000002D1F0008451F000810
:104FE000411F0008551F00083D1F00080000000079
:044FF00000000000BD
:040000050800018965
:00000001FF
