:020000040800F2
:10000000205200209D010008591600080115000823
:1000100055160008CD020008B127000800000000B6
:10002000000000000000000000000000E1210008C6
:10003000D102000800000000211900085125000825
:10004000B7010008B7010008B7010008B7010008B0
:10005000B7010008B7010008B7010008B7010008A0
:10006000B7010008B7010008B7010008B701000890
:10007000B7010008B7010008B7010008B701000880
:10008000B7010008B7010008B7010008B701000870
:10009000B7010008B7010008B7010008B701000860
:1000A000B7010008B7010008B7010008B701000850
:1000B000B7010008B7010008B7010008B701000840
:1000C000B7010008B7010008B7010008B701000830
:1000D000B7010008B7010008B7010008B701000820
:1000E000B7010008B7010008B7010008B701000810
:1000F000B7010008B7010008B7010008B701000800
:10010000B7010008B7010008B7010008B7010008EF
:10011000B7010008B7010008B70100082D26000844
:10012000B7010008B7010008B7010008B7010008CF
:10013000B7010008B7010008B7010008B7010008BF
:10014000B7010008B7010008B7010008B7010008AF
:10015000B7010008B7010008B7010008B70100089F
:10016000B7010008B7010008B7010008B70100088F
:10017000B7010008B7010008B7010008000000003F
:10018000B7010008B7010008DFF80CD000F08CF8C8
:1001900000480047B5270008205200200648804745
:1001A00006480047FEE7FEE7FEE7FEE7FEE7FEE75C
:1001B000FEE7FEE7FEE7FEE71926000889010008D2
:1001C0002DE9F05F0546002092469B46884606468C
:1001D000814640241BE0284641464746224600F01F
:1001E00053F853465A46C01A914110D31146184647
:1001F000224600F03AF82D1A67EB01084F462246D6
:100200000120002100F031F817EB00094E41201EBB
:10021000A4F10104DFDC484631462A464346BDE8E6
:10022000F09F40EA01039B0703D009E008C9121FB1
:1002300008C0042AFAD203E011F8013B00F8013BA0
:10024000521EF9D27047D2B201E000F8012B491ECC
:10025000FBD270470022F6E710B513460A46044663
:100260001946FFF7F0FF204610BD202A04DB203A94
:1002700000FA02F1002070479140C2F1200320FAF9
:1002800003F3194390407047202A04DB203A21FAF7
:1002900002F00021704721FA02F3D040C2F120029F
:1002A0009140084319467047064C074D06E0E06848
:1002B00040F0010394E8070098471034AC42F6D3AD
:1002C000FFF766FF6C6100088C610008FEE7000024
:1002D000704700002DE9F04381B00646147803F022
:1002E00007000D46089F40F220199046C2F200090F
:1002F000DFE800F004132231404F5E6D99F82400CE
:1003000061B2421E18BF0122002948BF0246B0B2A6
:10031000A9B201F093FC013F6CD099F82400731C42
:10032000421E18BF0122610648BF0246A9B298B218
:1003300001F084FC013F5DD099F82400B31C421EFB
:1003400018BF0122A10648BF0246A9B298B201F027
:1003500075FC013F4ED099F82400F31C421E18BFD3
:100360000122E10648BF0246A9B298B201F066FC3C
:10037000013F3FD099F82400331D421E18BF0122CF
:10038000210748BF0246A9B298B201F057FC013FCD
:1003900030D099F82400731D421E18BF0122610756
:1003A00048BF0246A9B298B201F048FC013F21D0F3
:1003B00099F82400B31D421E18BF0122A10748BFAF
:1003C0000246A9B298B201F039FC013F12D099F867
:1003D0002400F31D421E18BF0122E10718BF024688
:1003E000A9B298B201F02AFC013F03D018F8014FDE
:1003F000083683E701B0BDE8F083000080B540F225
:100400008053C2F200035A7A002A1CBF012080BD2B
:1004100093F809C08646002003F80C005A7A03EBD3
:100420008202C2F804E05A7A1A44107293F809C0A2
:100430000CF101025A720CF130020A7042F63A7263
:10044000A1F80120C87080BD2DE9F04F85B040F2C1
:100450002018C2F20008D8F818108A6901E000BF1D
:100460009268002A00F0B1801388834202D857882E
:1004700087421DD29268002A00F0A7801388834229
:1004800002D85788874213D29268002A00F09D80D4
:100490001388834202D85788874209D29268002A7B
:1004A00000F0938013888342DAD857888742D7D3E5
:1004B0005268C01AB8F90A50B8F91E3002EBC00EE3
:1004C0009EF802A0B8F91C4012F8309091F814C0C0
:1004D000DEF80460EF1A012F0390049208DBACEB06
:1004E000070BBBF1010F49DB07FB0A6602E000BF07
:1004F000E3461D46B8F90E706344FF433B44012BAD
:1005000004DBABEB030BBBF1010F37DBB8F90C00DD
:1005100009EB0407C043B8F90830384420EAE0701A
:10052000A342A9EB00090BDD181B20F00703A9EB80
:10053000000906EBE0061C4400F0070701E000BFDD
:100540000027B9F1010F19DBBBF1000F16D0CDF870
:1005500008E000BF2046294632463B46CDF80090D1
:10056000FFF7B8FE5644BBF1010B05F10105F1D1CF
:10057000D8F81810DDF808E091F814C04B7D6345F9
:100580001AD9DDE90342B8F81C00B8F81E1012F8B9
:10059000347098F8246001EB0C0207440B44013ED0
:1005A00091B2BAB29BB218BF01260096744601F010
:1005B000E9F9D8F81810A6469EF80100897DB8F828
:1005C0001C2011FB0020A8F81C0005B0BDE8F08F2E
:1005D00040F22011C2F20001D1F818C0DCF8182056
:1005E0003AB90020704700BF9268002A04BF00207B
:1005F00070471388834202D8518881421AD2926888
:10060000002AEED01388834202D85188814211D249
:100610009268002AE5D01388834202D8518881422B
:1006200008D29268002ADCD013888342DCD8518833
:100630008142D9D35168C01A11F830009CF81610C5
:10064000484370470120088070470000806938B92E
:100650000020002818BF0120704700BF8068F8B153
:1006600002888A4202D842888A42F2D28068B8B1AF
:1006700002888A4202D842888A42EAD2806878B1E7
:1006800002888A4202D842888A42E2D2806838B11F
:1006900002888A42E2D842888A42DFD3D9E700BF83
:1006A0000020002818BF01207047000080B582B0EC
:1006B00040F22010C2F200004FF0000CC0F81CC045
:1006C0000020002180224023CDF800C001F05AF91B
:1006D00002B080BD002808BF70472DE9F04F85B0FB
:1006E00040F22015C2F20005A9698346487DAA8B15
:1006F0000290688C039200F00C020C2A18BF082AA2
:1007000002D1097D4A0806E0042A03D1097D4A1E68
:1007100001E000BF0022E98B8B1AEB839BF80010ED
:10072000002900F09F80019247F6FE794FF0000A01
:100730000A46584653B2B3F1FF3F09DD0A2A10D0EA
:1007400001305346027803F1010A42B909E000BFC3
:100750000AF101030230027803F1010A0AB14B45A4
:10076000E8DB0024BAF1000F19D45E46574600BFFB
:1007700048B2B0F1FF3F03DD0136013FC8B204E0EB
:1007800070780236023F40EA0120A96980B24968C8
:1007900088473178044411B1B7F1FF3FE8DC688C39
:1007A00000F003010129204605D0022912BF0020D4
:1007B00004EBD4704010A98BBAF1010FA1EB000635
:1007C000E88BAE83049027DB59465746D8460CE0A9
:1007D00001F102084978AA6941EA00201168023F44
:1007E00080B28847002F414616DD18F8012B50B221
:1007F000B0F1FF3FECDD0D2AA7F10107F2D00A2A84
:1008000006D1A869E98B407D0844E883EAE700BF88
:10081000A969C0B20968E4E7049BEB831BF80A00EE
:10082000D3440D2801D00A2810D1688C00F00300B1
:1008300001380228039828BF0020A8839BF80000F5
:100840000A2807D102980344EB8301E03019A883FA
:100850009BF8000020B11BF8011F00297FF466AF50
:10086000688C019A991820F00300E983688405B028
:10087000BDE8F04F70470000B0B540F22014C2F25E
:100880000004658CA18345F002036384E283FFF7D3
:1008900021FF6584B0BD000080B540F22010C2F297
:1008A00000002E217F2201700021C0F23F02C0E92A
:1008B000021244F62422C0F60002C0E906210121FA
:1008C000417480F8241001F04FFA002080BD000030
:1008D00040F22012C2F2000201469069002918BFBE
:1008E0009161704701F0DCB9B0B5044600F0F0F852
:1008F000054640F20000C2F200000078611C18BFFB
:10090000044400BF00F0E4F8401BA042FAD3B0BD9D
:100910002DE9F04F82B000F13E4241F6004502F170
:10092000FF77C4F20205082243F6004E4FEAB726CD
:10093000A84208BF0722C4F2010E072E38BF4FEAB3
:10094000B7220125002600274FF00008009208E09A
:1009500008F101080437B8F1100F06F1020600F0A3
:10096000A7800C6805FA08F914EA090FF0D0D1F84D
:1009700004B003220BF0030CACF10104B240012CD3
:100980006FEA020A10D88268CC6802EA0A02B44010
:10099000224382604268CBF3001422EA090204FA7F
:1009A00008F42243426005E0BCF1030F02D14FF08E
:1009B000030C20E0C2688C6802EA0A02B4402243B9
:1009C000BCF1020FC26016D16FF0030202EA5802B6
:1009D0000244D2F820C007F01C050F230C69AB407D
:1009E0002CEA030304FA05F52B431362D1F804B093
:1009F00001250BF0030C02680CFA06F302EA0A0266
:100A00001A431BF4403F0260A2D0002243F6440385
:100A10000192C4F202031A684FF6084C42F4804275
:100A20001A601A68CFF6FF7C02F480420192019AA4
:100A300028F00302724452F80C3007F00C050F2422
:100A4000AC40A343009C04FA05F52B4342F80C305C
:100A5000DEF808204B6842EA090543F60C4CDC023C
:100A600058BF22EA0905CEF80850C4F2010CDCF8A0
:100A700000209C0242EA090558BF22EA0905CCF889
:100A80000050DEF804209C0342EA090558BF22EA20
:100A90000905CEF80450DEF80020DB0342EA090520
:100AA00058BF22EA0905CEF80050012550E700BFE3
:100AB00002B0BDE8F08F00000069084018BF0120B7
:100AC00070470000002A08BF0904816170470000D8
:100AD00044F22470C2F200000068704740F2000047
:100AE00044F22471C2F20000C2F2000100780A68E8
:100AF000104408607047000080B543F60040C4F21F
:100B00000200016841F400710160016841F48061F4
:100B10000160016841F480710160032000F0C8F8B1
:100B20000F2000F005F800F061F8002080BD000003
:100B300070B586B0002543F640010195C4F202016C
:100B40000A68044642F020020A60096801A801F020
:100B5000200101910199694600F06AF9049E002E76
:100B600018BF012600F084F94DF68361B040C4F24D
:100B70001B31A0FB01014FF0FF3000EB914140F22F
:100B80008C5041F20042C2F20000C4F2000240F276
:100B9000E733C0E90021C0E902530561856100F037
:100BA0006FFB054610B1284606B070BD40F28C5070
:100BB000C2F2000000F094FB05460028F3D1372074
:100BC00000F036F80F2C0DD83720214600220025E2
:100BD00000F042F840F20400C2F20000046028462F
:100BE00006B070BD0125284606B070BD82B0002059
:100BF00043F640010190C4F202014A6842F4804287
:100C00004A604A6802F480420192019A00900868A2
:100C1000002240F08050086008680F2100F08050EA
:100C2000009000986FF0010002B000F015B80000CD
:100C3000002848BF7047C1B200F01F00012202FA2D
:100C400000F04EF20012CEF2000242EAD10121F091
:100C5000030108607047000010B54EF60C5CCEF240
:100C6000000CDCF80030C3F3022E8EF00704042CD5
:100C700028BF0424BEF103034FF0FF3E0EFA04F434
:100C800038BF0023A14399400EFA03F39A4311435E
:100C900000F00F0200F160430901043A03F56443D8
:100CA0006244002848BF02F10C03197010BD000017
:100CB0004EF60C51CEF200010A684FF6FF031A40BF
:100CC00060F30A2242F0806040F0FD7008607047D7
:100CD0002DE9F041002800F08B8043F60808C4F2AB
:100CE00002080446D8F8F8030D4600F007008842D1
:100CF00007D288F8F853D8F8F80300F00700A842A4
:100D000076D12068810717D5410705D5D8F800109E
:100D100041F4E051C8F80010010705D5D8F80010DB
:100D200041F46041C8F80010D8F80010A26821F022
:100D3000F0011143C8F80010C0073FD1D8F8F803FC
:100D400000F00700A84207D988F8F853D8F8F8034C
:100D500000F00700A8424BD12068410707D5D8F81A
:100D60000010E26821F4E0511143C8F800100007B8
:100D700008D5D8F80000216920F4604040EAC1009D
:100D8000C8F8000000F088F8D8F8001044F6FE1209
:100D9000C1F30311C0F60002515C40F20C0220FACC
:100DA00001F140F20400C2F200000068C2F2000249
:100DB0001160FFF7BDFE0020BDE8F0816068811E74
:100DC000022907D258F8081C89015CBF0120BDE840
:100DD000F08111E0012807D158F8081C89035CBF95
:100DE0000120BDE8F08107E058F8081C890703D40A
:100DF0000120BDE8F08100BFD8F8001021F0030108
:100E00000843C8F80000FFF763FE064641F2883742
:100E1000D8F80000616800F00C00B0EB810F8DD0B5
:100E2000FFF756FE801BB842F2D90320BDE8F081DF
:100E30000F22026043F60802C4F20202136803F0B4
:100E400003034360136803F0F0038360136803F443
:100E5000E053C360D2F800C04FF4E05303EADC0370
:100E60000361D2F8F80300F0070008607047000043
:100E700040F20C0043F60801C2F20000C4F2020185
:100E80000068096844F60E22C1F38221C0F6000210
:100E9000515CC8407047000010B543F60404C4F22A
:100EA0000204606800F00C0142F200400829C0F220
:100EB000F40007D0042918BF10BD41F20020C0F291
:100EC0007A0010BD216801F03F02216823684902C1
:100ED000C3F3881106D4A1FB00010023FFF770F9CA
:100EE00007E000BF41F20020C0F27A004843B0FBA7
:100EF000F2F021680222C1F3014102EB4101B0FB93
:100F0000F1F010BD2DE9F04182B0002868D0044610
:100F1000007843F60006C007C4F202060BD0B068A2
:100F200000F00C00042840F09F803068800302D558
:100F30006068002854D0207880071AD5B06810F077
:100F40000C0F09D0B06800F00C00082840F0A68013
:100F50007068400200F1A2803068800702D5E06826
:100F600001283DD13068216920F0F80040EAC10035
:100F700030602078000737D4207840074CD4A5692A
:100F800055B3B06800F00C00082840F0BB80012D7C
:100F900026D07068E16900F480028A4220D1216A7B
:100FA00000F03F028A421BD147F6C071626A0140DD
:100FB000B1EB821F14D1A16A4FF6FF73C9039943A5
:100FC00000F44032A1F580318A4209D1E16A00F093
:100FD0007060B0EB016F03D1002002B0BDE8F0817A
:100FE000012002B0BDE8F0816069002840F20000F5
:100FF000C4F2472076D00121C0F8801EFFF768FDBB
:10100000054600BF706F8007B6D4FFF761FD401B37
:101010000228F7D9DDE000BF306C10F080580AD10B
:1010200000200190306C40F080503064306C00F053
:1010300080500190019847F20007C4F20007386819
:10104000C00541D4386840F480703860FFF740FD37
:10105000054600BF3868C00536D4FFF739FD401B90
:101060000228F7D9B5E000BFB06800F00C000828EE
:1010700003D1706840023FF558AF6068B0F5803F1B
:1010800007D0B0F5A02F40F08D80306840F480206C
:101090003060306840F4803030608DE0E0680028D7
:1010A00052D00020C4F2472001210160FFF710FD5B
:1010B000054600BF306880073FF554AFFFF708FDD5
:1010C000401B0228F6D984E0A068012805D0052835
:1010D0004ED1306F40F004003067306F40F00100B7
:1010E00030674FE00021C0F8801EFFF7F1FC054695
:1010F000706F80077FF540AFFFF7EAFC401B0228C6
:10110000F6D966E00027C4F2472700203866FFF7CB
:10111000DFFC022D05460BD1306880015ED5FFF75C
:10112000D7FC401B02284FF00300F5D955E700BF5C
:10113000306880017FF550AFFFF7CAFC401B0228E2
:101140004FF00300F4D948E70020C4F24720002103
:101150000160FFF7BDFC0546306880077FF509AFE9
:10116000FFF7B6FC401B02284FF00300F4D934E728
:10117000316F002821F001013167316F21F0040146
:1011800031674DD0FFF7A4FC054641F2883700BF18
:10119000306F800756D4FFF79BFC401BB842F7D94D
:1011A00017E000BF3168002821F4803131603168D8
:1011B00021F4802131604FD0FFF78AFC054600BF43
:1011C000306880033FF5B7AEFFF782FC401B642810
:1011D000F6D9032002B0BDE8F08100BF04F11C0580
:1011E0002FCD084340EA8210D9034FF6FF72914396
:1011F000A1F5803140EA056008437060012038663F
:10120000FFF766FC044600BF306880013FF5E4AE9E
:10121000FFF75EFC001B02284FF00300F4D9DCE668
:10122000FFF756FC054641F2883700BF306F800754
:1012300008D5FFF74DFC401BB8424FF00300F5D92D
:10124000CBE600BFB8F1000F7FF499AE306C20F010
:101250008050306493E600BFFFF73AFC054600BFBC
:10126000306880037FF567AEFFF732FC401B6428CF
:101270004FF00300F4D9B0E670470000704700005B
:10128000002804BF0120704710B5044690F83D00C7
:1012900028B9002084F83C00204600F01FF8022006
:1012A00084F83D002068211D01F0C6F9012084F872
:1012B000460084F83E0084F83F0084F8400084F83B
:1012C000410084F8420084F8430084F8440084F824
:1012D000450084F83D00002010BD0000704700006C
:1012E00090F83D1001291CBF01207047022180F8B1
:1012F0003D10006841F2FF72C168C4F200029042E2
:1013000041F00101C1600DDC40F2FF71C4F2000147
:10131000884215DCB0F1804F2AD040F20041C4F27F
:10132000000123E040F2FF31C4F20101884213DCE6
:1013300041F60001C4F20001884219D0002113E0F7
:1013400040F60001C4F20001884211D040F600418D
:10135000C4F200010AE000BF44F20001C4F201013E
:10136000884205D040F20041C4F20101884206D112
:10137000816801F00701062904BF00207047016859
:1013800041F001010160002070470000704700003B
:1013900070B504460068C5680669B10716D515F032
:1013A000020113D06FF002010161012121778069F0
:1013B000800703D02046FFF7E9FF05E0204600F054
:1013C0008FF8204600F08EF800202077700719D59E
:1013D00015F0040016D020686FF0040101610221AD
:1013E0002177806910F4407F04D02046FFF7CEFFBC
:1013F00006E000BF204600F073F8204600F072F8C7
:1014000000202077300717D515F0080014D0206889
:101410006FF00801016104212177C069800703D0C2
:101420002046FFF7B3FF05E0204600F059F82046BC
:1014300000F058F800202077F00619D515F01000BC
:1014400016D020686FF01001016108212177C06972
:1014500010F4407F04D02046FFF798FF06E000BF5D
:10146000204600F03DF8204600F03CF800202077B0
:10147000F00718BF15F0010002D1300609D412E0C0
:1014800020686FF001010161204600F02DF8300660
:1014900009D515F0800006D020686FF08001016149
:1014A0002046FFF7E9FE700609D515F0400006D08A
:1014B00020686FF040010161204600F01FF8B0067F
:1014C00058BF70BD15F0200008D021686FF02002D1
:1014D00020460A61BDE87040FFF7D0BE70BD000035
:1014E0007047000070470000006841F20041C4F2FC
:1014F0000001884218BF7047FFF7F0BA704700003C
:10150000FEE7000010B540F24814C2F2000440F2B9
:101510001000611CC2F20000FEF770FF207010BDC9
:1015200010B542F2793046F2B002C0F60000C0F6C3
:101530000002002101F0E0F940F22804C2F20004A8
:10154000606042F2813046F2D402C0F60000C0F67C
:101550000002002101F0D0F9A06042F2914046F271
:10156000F802C0F60000C0F60002002101F0C4F944
:10157000E06010BD2DE9F04786B0002743F630004B
:10158000CDE904770097C4F20200016841F200053A
:1015900041F0100101600168C4F2020501F0100180
:1015A0000091009900970168002241F080010160DC
:1015B00001684FF47F4901F0800100910099009784
:1015C000016841F001010160016801F00101009131
:1015D00000990097016841F00201016000684FF432
:1015E0007F4100F00200009000982846FFF76AFA59
:1015F000A5F540642046C02100224FF0C008FFF747
:1016000061FA1E2001AECDE901074FF0010A28461C
:101610003146CDF80CA0FFF77BF96020CDE901073A
:101620000220039028463146FFF772F928463146DA
:10163000CDE9019ACDE90377FFF76AF920463146F3
:10164000CDE9018ACDE90377FFF762F906B0BDE87D
:10165000F0870000FEE70000FEE70000B0B582B0B2
:1016600040F20044C4F20204204680210122FFF728
:1016700029FA0A2500950098A8B100BF0098013802
:101680000090009878B1009801380090009850B10F
:10169000009801380090009828B100980138009017
:1016A00000980028EAD1204640210122FFF70AFADB
:1016B00001950198A8B100BF0198013801900198E7
:1016C00078B1019801380190019850B10198013822
:1016D0000190019828B101980138019001980028E3
:1016E000EAD120464021002202B0BDE8B040FFF719
:1016F000E9B90000F0B583B040F20045C4F202053C
:1017000004462846402100220026FFF7DBF90A277D
:1017100005E000BF6400072E06F101065ED2E0B2CC
:10172000C20928468021FFF7CDF900970098A0B1A3
:10173000009801380090009878B100980138009026
:10174000009850B1009801380090009828B1009896
:101750000138009000980028EAD128464021012253
:10176000FFF7B0F901970198A8B100BF01980138BF
:101770000190019878B1019801380190019850B119
:10178000019801380190019828B101980138019021
:1017900001980028EAD1284640210022FFF792F95B
:1017A000029702980028B5D002980138029002985A
:1017B0000028AFD002980138029002980028A9D0E2
:1017C00002980138029002980028A3D002980138AC
:1017D000029002980028E7D19CE700BF03B0F0BD5B
:1017E000B0B582B040F20044C4F202042046802129
:1017F0000122FFF767F9204640210122FFF762F935
:101800000A2500950098A0B1009801380090009832
:1018100078B1009801380090009850B100980138D4
:101820000090009828B10098013800900098002896
:10183000EAD1204680210022FFF744F90195019862
:10184000A8B100BF019801380190019878B10198C2
:1018500001380190019850B1019801380190019828
:1018600028B101980138019001980028EAD120465A
:101870004021002202B0BDE8B040FFF723B90000CC
:10188000B0B582B040F20044C4F2020420464021C8
:101890000022FFF717F9204680210022FFF712F9F6
:1018A0000A2500950098A0B1009801380090009892
:1018B00078B1009801380090009850B10098013834
:1018C0000090009828B100980138009000980028F6
:1018D000EAD1204640210122FFF7F4F8204680217A
:1018E0000122FFF7EFF801950198A0B101980138A6
:1018F0000190019878B1019801380190019850B198
:10190000019801380190019828B10198013801909F
:1019100001980028EAD102B0B0BD0000000000002C
:10192000EFF30980BFF36F8F154B1A681EF0100F8D
:1019300008BF20ED108A20E9F04F10602DE9090062
:101940004FF0500080F31188BFF34F8FBFF36F8FBC
:1019500002F0DAF84FF0000080F31188BDE80900CA
:1019600019680868B0E8F04F1EF0100F08BFB0EC1F
:10197000108A80F30988BFF36F8F704700BF00BFE4
:10198000400000202DE9F04381B07F2823D889460C
:101990003F2920D804461044DDF820807F2888BFE6
:1019A000C4F1800203EB090011193F2888BFC9F177
:1019B000400300208EB29FB2002500BF484481B290
:1019C000204632460B46CDF8008000F007F801357E
:1019D000E8B28742F2D201B0BDE8F0832DE9F04FC2
:1019E00084B07F284FF07F0C28BF60467F2A38BF25
:1019F00094463F294FF03F0228BF11463F2B38BF86
:101A00001A46B0EB0C0538BFACEB0005541A4FF08A
:101A1000FF37DDF834804FF0FF3388BF012702978E
:101A200098BF8C1A604538BF01232E04039369D0F8
:101A30000FFA84FABAF1000F00F0A4800FFA85FEC5
:101A40007546D645D8BFCAF10005EFB205EBD715EC
:101A500040F27C17C2F2000797F80090B8FA88F7B6
:101A600001927A09A8F10107B7FA87F76DB2B9F1C7
:101A7000000F08BF7A09CEF10007019B6D100FFA25
:101A800087FB00921FFA81F9B9F13F0F22D800BFFE
:101A90001FFA80F8B8F17F0F1CD84FF68072C0F2A1
:101AA0000F0202EA011240F2801812FA80F2C2F22A
:101AB000000801F0070318F80260012404FA03F398
:101AC000009C26EA0307002C18BF46EA0307019B87
:101AD00008F8027082B2624508BF99454ED02AB21A
:101AE0005A45C8BFA5EB0A05039EC8BF30445245FE
:101AF000029ABCBF114475441FFA81F9B9F13F0F36
:101B0000C6D9E7E740F27C178A428A46C2F200074C
:101B100088BF924638BF1146844538BF60463E783C
:101B20004FF68079B8FA88F740F28014C0F20F09B6
:101B30004FEA571EA8F10105002E4FEA01164FF09B
:101B4000010CC2F20004B5FA85F508BF4FEA551E34
:101B500006EA0905054301F00702635D0CFA02F28B
:101B600023EA0207BEF1000F18BF43EA02075145FE
:101B700001F1010106F110066755E9D304B0BDE893
:101B8000F08F00BF40F27C1384458146C2F200030F
:101B900088BFE14638BF60468A4238BF11461F7889
:101BA000B8FA88F3A8F101065B09B6FA86F6002FA9
:101BB00008BF730901F00707012640F2801506FAF5
:101BC00007F701F03806C2F20005F943013005EBD2
:101BD000061C00BF0CEB000515F8014C461E04EA7C
:101BE0000102002B18BF44EA07024E4505F8012CFC
:101BF000C4D21CF80020002B02EA010618BF42EAFA
:101C0000070648450CF80060B8D26A78461C02EA1C
:101C10000104002B18BF42EA07044E456C70ADD298
:101C2000AA78002B02EA010618BF42EA0706821CC6
:101C300004304A45AE70CDD3A0E700007F2898BF9E
:101C40003F2901D9704700BFB0B540F27C13C2F202
:101C5000000393F800C0B2FA82F3013A5B09B2FACA
:101C600082F2BCF1000F08BF53096FF0700201F05F
:101C7000070E02EA011140F280150844C2F2000585
:101C80004FF0010C2A5C0CFA0EF122EA0104002B41
:101C900018BF42EA01042C54BDE8B0407047000070
:101CA000F0B581B040F28010C2F20000441E002561
:101CB000FFF796FD7820FFF71DFDFFF7CFFC002012
:101CC000FFF718FDFFF7CAFCA5F15000C0B2FFF7FF
:101CD00011FDFFF7C3FCFFF7D3FDFFF781FD78206F
:101CE000FFF708FDFFF7BAFC0020FFF703FDFFF741
:101CF000B5FC0020FFF7FEFCFFF7B0FCFFF7C0FDCE
:101D0000FFF76EFD7820FFF7F5FCFFF7A7FC00203A
:101D1000FFF7F0FCFFF7A2FC1020FFF7EBFCFFF74A
:101D20009DFCFFF7ADFDFFF75BFD7820FFF7E2FCC0
:101D3000FFF794FC4020FFF7DDFCFFF78FFC8026C7
:101D4000274600BF17F8010FFFF7D4FCFFF786FC0A
:101D5000013EF7D1FFF794FD0135082D04F1800411
:101D6000A6D101B0F0BD000080B56420FEF7BCFD37
:101D7000FFF736FD7820FFF7BDFCFFF76FFC002072
:101D8000FFF7B8FCFFF76AFCAE20FFF7B3FCFFF7E4
:101D900065FCFFF775FDFFF723FD7820FFF7AAFC30
:101DA000FFF75CFC0020FFF7A5FCFFF757FC2020A5
:101DB000FFF7A0FCFFF752FCFFF762FDFFF710FDF5
:101DC0007820FFF797FCFFF749FC0020FFF792FC13
:101DD000FFF744FC1020FFF78DFCFFF73FFCFFF7F7
:101DE0004FFDFFF7FDFC7820FFF784FCFFF736FC82
:101DF0000020FFF77FFCFFF731FCB020FFF77AFCF3
:101E0000FFF72CFCFFF73CFDFFF7EAFC7820FFF71B
:101E100071FCFFF723FC0020FFF76CFCFFF71EFCB2
:101E2000C820FFF767FCFFF719FCFFF729FDFFF754
:101E3000D7FC7820FFF75EFCFFF710FC0020FFF7CF
:101E400059FCFFF70BFC0020FFF754FCFFF706FCE2
:101E5000FFF716FDFFF7C4FC7820FFF74BFCFFF7F8
:101E6000FDFB0020FFF746FCFFF7F8FB1020FFF713
:101E700041FCFFF7F3FBFFF703FDFFF7B1FC782010
:101E8000FFF738FCFFF7EAFB0020FFF733FCFFF712
:101E9000E5FB4020FFF72EFCFFF7E0FBFFF7F0FC2F
:101EA000FFF79EFC7820FFF725FCFFF7D7FB00200B
:101EB000FFF720FCFFF7D2FB8120FFF71BFCFFF7A9
:101EC000CDFBFFF7DDFCFFF78BFC7820FFF712FC62
:101ED000FFF7C4FB0020FFF70DFCFFF7BFFBFF205F
:101EE000FFF708FCFFF7BAFBFFF7CAFCFFF778FC27
:101EF0007820FFF7FFFBFFF7B1FB0020FFF7FAFBAD
:101F0000FFF7ACFBA020FFF7F5FBFFF7A7FBFFF700
:101F1000B7FCFFF765FC7820FFF7ECFBFFF79EFBB3
:101F20000020FFF7E7FBFFF799FBC020FFF7E2FB7C
:101F3000FFF794FBFFF7A4FCFFF752FC7820FFF7B4
:101F4000D9FBFFF78BFB0020FFF7D4FBFFF786FBE5
:101F5000A620FFF7CFFBFFF781FBFFF791FCFFF710
:101F60003FFC7820FFF7C6FBFFF778FB0020FFF768
:101F7000C1FBFFF773FBA820FFF7BCFBFFF76EFB6D
:101F8000FFF77EFCFFF72CFC7820FFF7B3FBFFF791
:101F900065FB0020FFF7AEFBFFF760FB3F20FFF77C
:101FA000A9FBFFF75BFBFFF76BFCFFF719FC782041
:101FB000FFF7A0FBFFF752FB0020FFF79BFBFFF7AB
:101FC0004DFBA420FFF796FBFFF748FBFFF758FCFB
:101FD000FFF706FC7820FFF78DFBFFF73FFB0020A3
:101FE000FFF788FBFFF73AFBD320FFF783FBFFF7F0
:101FF00035FBFFF745FCFFF7F3FB7820FFF77AFB93
:10200000FFF72CFB0020FFF775FBFFF727FB0020F5
:10201000FFF770FBFFF722FBFFF732FCFFF7E0FB57
:102020007820FFF767FBFFF719FB0020FFF762FB43
:10203000FFF714FBD520FFF75DFBFFF70FFBFFF762
:102040001FFCFFF7CDFB7820FFF754FBFFF706FBE3
:102050000020FFF74FFBFFF701FBF020FFF74AFBE3
:10206000FFF7FCFAFFF70CFCFFF7BAFB7820FFF74D
:1020700041FBFFF7F3FA0020FFF73CFBFFF7EEFA16
:10208000D920FFF737FBFFF7E9FAFFF7F9FBFFF776
:10209000A7FB7820FFF72EFBFFF7E0FA0020FFF701
:1020A00029FBFFF7DBFA2220FFF724FBFFF7D6FA24
:1020B000FFF7E6FBFFF794FB7820FFF71BFBFFF72A
:1020C000CDFA0020FFF716FBFFF7C8FADA20FFF77A
:1020D00011FBFFF7C3FAFFF7D3FBFFF781FB782073
:1020E000FFF708FBFFF7BAFA0020FFF703FBFFF743
:1020F000B5FA1220FFF7FEFAFFF7B0FAFFF7C0FBC0
:10210000FFF76EFB7820FFF7F5FAFFF7A7FA00203C
:10211000FFF7F0FAFFF7A2FADB20FFF7EBFAFFF781
:102120009DFAFFF7ADFBFFF75BFB7820FFF7E2FAC4
:10213000FFF794FA0020FFF7DDFAFFF78FFA20206F
:10214000FFF7D8FAFFF78AFAFFF79AFBFFF748FB89
:102150007820FFF7CFFAFFF781FA0020FFF7CAFADD
:10216000FFF77CFA8D20FFF7C5FAFFF777FAFFF744
:1021700087FBFFF735FB7820FFF7BCFAFFF76EFA15
:102180000020FFF7B7FAFFF769FA1420FFF7B2FA59
:10219000FFF764FAFFF774FBFFF722FB7820FFF7E5
:1021A000A9FAFFF75BFA0020FFF7A4FAFFF756FA47
:1021B000AF20FFF79FFAFFF751FAFFF761FB40F2FC
:1021C0008010C2F200004FF48061FEF743F8BDE8D2
:1021D0008040FFF765BD0000000000000000000027
:1021E000074B19680868B0E8F04F80F30988BFF31F
:1021F0006F8F4FF0000080F31188704700BF00BF61
:1022000040000020F0B581B041F20004C4F20204A5
:1022100020460221FEF750FCB0FA80F0400945004C
:1022200020460421FEF748FC002820464FF0080114
:1022300008BF0435FEF740FC002820464FF010018F
:1022400008BF0835FEF738FC002820464FF0200173
:1022500008BF1035FEF730FC012820464FF0400142
:1022600008BF45F02005FEF727FC012808BF45F010
:1022700040054FF00006B5B30A2000F0AFFA204643
:102280000221FEF719FCB0FA80F040094700204611
:102290000421FEF711FC002820464FF0080108BF7A
:1022A0000437FEF709FC002820464FF0100108BF54
:1022B0000837FEF701FC002820464FF0200108BF38
:1022C0001037FEF7F9FB012820464FF0400108BF08
:1022D00047F02007FEF7F0FB012808BF47F0400752
:1022E000BD4208BF2E46F0B201B0F0BD70B541F25C
:1022F0000005044640B2C4F202050022B0F1FF3FDF
:1023000028464FF48071C8BF0122FEF7DBFB01268F
:1023100026EA941228464FF40071FEF7D3FB26EA12
:10232000541228464FF48061FEF7CCFB26EA1412C3
:1023300028464FF40061FEF7C5FB26EAD402284682
:102340004FF48051FEF7BEFB26EA940228464FF474
:102350000051FEF7B7FB26EA540228464FF48041AD
:10236000FEF7B0FB26EA040228464FF40041BDE820
:102370007040FEF7A7BB0000012000F02FFAFBE73A
:10238000FEF78AFA45F21830C0F60000FEF7A0FA10
:1023900040F2280746F2361946F21C1A46F2321B62
:1023A00046F2251446F2601546F23A16C2F20007CC
:1023B0004FF00008C0F60009C0F6000AC0F6000B96
:1023C000C0F60004C0F60005C0F6000609E000BF34
:1023D00040210022FEF750FAFEF784FA0A2000F0AE
:1023E000FDF938780328F9D8DFE800F006244E021A
:1023F000FEF75CF93046EBE7386910B900F0FEF9FA
:102400003861FEF753F946F22E10C0F60000402165
:102410000022FEF731FAFEF765FA00F0EFF93969AC
:1024200001F5FA618842D9D301203870C7F81080CD
:10243000D4E700BF786910B900F0E0F97861FEF7E1
:1024400035F9484640210022FEF716FA5046402151
:102450001022FEF711FA584640212022FEF70CFA0E
:10246000204640213022FEF707FAFEF73BFA00F043
:10247000C5F9796901F6B8318842AFD302203870C6
:10248000C7F81480AAE700BFFEF710F928469FE7B7
:1024900040F2280640F208074FF00108C2F2000699
:1024A000C2F200074FF0040903254FF0050A4FF070
:1024B000000BFFF7A7FE002824D00446FFF7A2FE7A
:1024C0000028FBD17068214600F0D2F9A01E1E281A
:1024D00018D8DFE800F01B17171717172117171761
:1024E0001717171711171717171717171717171782
:1024F00017171717270000BF3078022808BF87F882
:1025000000A000BF012000F069F9D2E7307802286E
:1025100008BF87F80090F5E73078022808BF3D70C3
:10252000F0E700BF3078012802D83570EAE700BF35
:102530007178032808BF002906D0032804BF0129A9
:1025400086F801B0DEE700BF86F80180DAE7000018
:1025500080B54EF21000CEF20000006802F04CF898
:10256000012808BF80BDBDE8804001F0EDBB000040
:10257000B0B592B0002443F64000CDE90A44CDE95D
:1025800008440594CDE90344CDE901440094C4F224
:1025900002000168022541F080510160006800F0EE
:1025A00080500090009847F200000094C4F20000B0
:1025B000016841F4804101600068A82100F4804076
:1025C00000900098012006904FF4803007904FF45F
:1025D00080000D9004200E90119006A80C95CDE976
:1025E0000F15FEF78FFC18B172B600BFFEE700BFF3
:1025F0000F20CDE901054FF4A05004904FF4805016
:10260000059001A805210394FEF762FB10B172B694
:10261000FEE700BF12B0B0BD4EF68850CEF200000B
:10262000016841F4700101607047000040F28C5075
:10263000C2F20000FEF7ACBE10B540F6FF3E0368E4
:10264000C4F2000E40F2004C7045C4F2010C27DCCD
:10265000B0F1804F31D040F20042C4F2000290420B
:102660002BD040F60002C4F20002904225D041F681
:10267000FF72C4F20002904229DC70453CDCB0F1EC
:10268000804F5FD040F20042C4F20002904259D025
:1026900040F60002C4F20002904253D056E000BF60
:1026A00040F60042C4F20002904206D0604504D0D9
:1026B0000022C4F201029042D9D14A6823F070038B
:1026C000134341F6FF72C4F200029042D5DD43F697
:1026D000FF72C4F20102904222DC42F20002C4F214
:1026E000000290422ED00022C4F20102904229D072
:1026F000604527D02AE000BF40F60042C4F2000245
:1027000090421FD041F60002C4F20002904219D05C
:1027100041F60042C4F20002904213D016E000BF1E
:1027200044F20002C4F2010290420BD044F60002CF
:10273000C4F20102904205D044F20042C4F2010208
:10274000904203D1CA6823F44073134323F08002FC
:102750004B69D1F800E08C681A430260C46240F40F
:102760008062C0F828E0624504BF09690163012165
:1027700041610169C90708BF10BD016921F001016C
:10278000016110BD40F20900C2F200000121017098
:1027900000787047012070470020704740F2090020
:1027A000C2F20000012101700078704700207047DC
:1027B000FEE70000FEF7A0F9FFF7DAFEFEF7DAFE0B
:1027C000FEF7A0FE0020FFF791FD00F01FF8FEF7D6
:1027D000A7FE00F02FF800BFFEE70000EFF3058131
:1027E00000291CBF6FF005007047002804BF0020BF
:1027F000704780B501F03EF8002080BDEFF3058002
:10280000002808BF01F008BF01F00CBFEFF30580FE
:1028100000281CBF6FF00500704740F27810C2F22C
:1028200000000168002911BF4FF0FF300121016055
:102830000020704710B5EFF3058000281CBF6FF033
:10284000050010BD40F27810C2F2000001680129B5
:102850001CBF4FF0FF3010BD4EF61F51CEF20001ED
:1028600000240C700221016001F0CEF8204610BD5A
:10287000B0B584B060B3B1F1FF3F29DD04464FF03D
:10288000FF300390EFF3058040B300250DF1080CF5
:102890002046012200230295CDF800C001F010FE71
:1028A00003AB204600210022009501F009FE0298AA
:1028B00050B14EF60450CEF200004FF0805101604E
:1028C000BFF34F8FBFF36F8F039804B0B0BD00BF4D
:1028D0006FF003000390039804B0B0BD20460122BE
:1028E000002301F05FFD03AB20460021002201F030
:1028F00059FD039804B0B0BD2DE9F04184B08E4677
:1029000000240394EFF3058150B149B94FF000045E
:1029100052B19369002B08BF1823382B16D9002415
:10292000204604B0BDE8F08180251823002103AFC4
:102930000093AAB27346019701F0C8FC03990128DD
:1029400008BF0C46204604B0BDE8F0811179C907E4
:1029500024D15769D2E902864FEA970C1168002FFB
:10296000654608BF8025B8F1000F13D05C2E15D343
:1029700012690024002A18BF002FD1D0CDE90032FF
:1029800062467346CDF8088001F0D0FC04B0BDE883
:10299000F08100BF16B91269002AC8D00024204671
:1029A00004B0BDE8F08100002DE9F041044600F0DC
:1029B000EFFD40F24006C2F20006F06840F2C46546
:1029C0000130F0603068C2F2000558B1306900286B
:1029D00040F007813068E16AC06A884298BF34607D
:1029E000FFE000BF3460F068012840F0FA8028461C
:1029F00000F074FD05F1140000F070FD05F12800F1
:102A000000F06CFD05F13C0000F068FD05F15000A0
:102A100000F064FD05F1640000F060FD05F1780050
:102A200000F05CFD05F18C0000F058FD05F1A00000
:102A300000F054FD05F1B40000F050FD05F1C800B0
:102A400000F04CFD05F1DC0000F048FD05F1F00060
:102A500000F044FD05F5827000F040FD05F58C7036
:102A600000F03CFD05F5967000F038FD05F5A0700E
:102A700000F034FD05F5AA7000F030FD05F5B470E6
:102A800000F02CFD05F5BE7000F028FD05F5C870BE
:102A900000F024FD05F5D27000F020FD05F5DC7096
:102AA00000F01CFD05F5E67000F018FD05F5F0706E
:102AB00000F014FD05F5FA7000F010FD05F5027048
:102AC00000F00CFD05F5077000F008FD05F50C7031
:102AD00000F004FD05F5117000F000FD05F516701D
:102AE00000F0FCFC05F51B7000F0F8FC05F520700B
:102AF00000F0F4FC05F5257000F0F0FC05F52A70F7
:102B000000F0ECFC05F52F7000F0E8FC05F53470E2
:102B100000F0E4FC05F5397000F0E0FC05F53E70CE
:102B200000F0DCFC05F5437000F0D8FC05F54870BA
:102B300000F0D4FC05F54D7000F0D0FC05F55270A6
:102B400000F0CCFC05F5577000F0C8FC05F55C7092
:102B500000F0C4FC05F5617000F0C0FC05F566707E
:102B600000F0BCFC05F56B7000F0B8FC05F570706A
:102B700000F0B4FC05F5757000F0B0FC05F57A7056
:102B800000F0ACFC05F57F7000F0A8FC05F5826054
:102B900000F0A4FC05F2244000F0A0FC05F58760DD
:102BA00000F09CFC05F24C4000F098FC40F25018FC
:102BB000C2F20008404600F091FC08F114073846C4
:102BC00000F08CFC06F1640000F088FC06F13C008B
:102BD00000F084FC06F1500000F080FCC6F81C8078
:102BE00037627068716A421CE06A7260884262648F
:102BF00088BF706200EB800005EB8000211D00F0B3
:102C0000AFFC00F0E9FC306988B13068E16AC06A65
:102C1000884228BFBDE8F0814EF60450CEF2000095
:102C20004FF080510160BFF34F8FBFF36F8FBDE84E
:102C3000F081000040F2400540F2C4664EF60458B0
:102C4000C2F20005C2F20006CEF200084FF0805733
:102C500003E000BF204600F0D7FCA868D0B100F028
:102C600097FCA86CC468201D00F00AFCE8680138D5
:102C7000E860A8680138A86000F0AEFC94F859003C
:102C80000228EAD00128E5D070B9206B00F0BCFC26
:102C9000E0E700BF30680228DFD3C8F80070BFF358
:102CA0004F8FBFF36F8FD8E74FF0500080F311883C
:102CB000BFF36F8FBFF34F8FFEE700002DE9F047A2
:102CC0000A9C8246206B16460F46DDE908599100A2
:102CD000A5229846FDF7B7FA206B002F00EB86007F
:102CE000A0F1040020F0070656D0387884F83400AC
:102CF000387800284BD0787884F835007878002828
:102D000045D0B87884F83600B87800283FD0F878F5
:102D100084F83700F878D0B3387984F838003879F7
:102D2000A8B3787984F83900787980B3B87984F8D1
:102D30003A00B87958B3F87984F83B00F87930B3A1
:102D4000387A84F83C00387A08B3787A84F83D0001
:102D5000787AE0B1B87A84F83E00B87AB8B1F87AF7
:102D600084F83F00F87A90B1387B84F84000387BD3
:102D700068B1787B84F84100787B40B1B87B84F8F7
:102D80004200B87B00281CBFF87B84F84300002079
:102D900084F8430003E000BF002084F834000027DB
:102DA000201D372D28BF3725E562C4E9135700F0F1
:102DB000A1FB04F1180000F09DFBC5F13800A061F3
:102DC00030465146424624616462676584F8587013
:102DD00000F042FBB9F1000F206018BFC9F80040B5
:102DE000BDE8F08708480068006880F308884FF065
:102DF000000080F3148862B661B6BFF34F8FBFF353
:102E00006F8F00DF00BF000008ED00E081B0002000
:102E1000009040F22400C2F2000000684FF0500120
:102E200081F31188BFF36F8FBFF34F8F013007D04D
:102E3000FEE700BF009830B9009820B9009810B99B
:102E400000980028F6D001B07047000088B040F22A
:102E5000B80AC2F2000A0DF11009EB46DAF80800D0
:102E600005681DB1C068046801E000BF002400F0DF
:102E700043FE01F0D1FBDAF810100646884220D359
:102E8000002DCAF8106051D0A6424FD301F0D6FCF5
:102E9000DAF80800C068C7683D1D284600F0F0FA5F
:102EA00097F82800410745D400F0FE0087F8280075
:102EB00084E000BF6860DAF8080039462D6100F050
:102EC0001DFBDAF80800016831B3C068C568046802
:102ED0002F1D384600F0D4FA296A2846884795F80D
:102EE00028004007EDD5A8692044A042E2D8DAF8CE
:102EF0000000002800F04881002004A931C101F041
:102F00007BFBDAF8000049460022002300F0A4FF12
:102F10000028D6D138E100BFDAF80C10CAF81060EA
:102F2000CAE9021001F08AFC1AE100BF65B1002273
:102F300010E000BFB8693F610119B14279601FD943
:102F40000AF1080021E000BFDAF80C000068B0FACE
:102F500080F04209DAF80000A11B00F061FC01F0EA
:102F60006DFC002840F0FC804EF60450CEF20000CC
:102F70004FF080510160BFF34F8FBFF36F8FEFE0D1
:102F8000311B814206D20AF10C000068294600F08C
:102F9000B5FA13E0DAF80000002800F013810020F1
:102FA00004A991C101F028FBDAF80000494600228B
:102FB000002300F051FF002800F00481396A3846F0
:102FC0008847CDE00098B0F1FF3F07DCDDE9012044
:102FD000039990470098002800F1C280029E706912
:102FE00010B1301D00F04CFA01F016FBDAF81010A9
:102FF000074688420DD30098CAF8107009283FD9B7
:10300000AEE000BF6860DAF8080021462D6100F0EC
:1030100075FADAF80800016841B3C068C568D0F8ED
:1030200000802C1D204600F02BFA296A284688478C
:1030300095F828004007ECD5A86940444045E1D800
:10304000DAF80000002800F095800020CDE904089F
:10305000069501F0D1FADAF8000049460022002373
:1030600000F0FAFE0028D4D184E000BFDAF80C109A
:10307000CAE902100098CAF81070092800F270809E
:10308000DFE800F00606064448620606444800BF32
:1030900096F82800019A40F00101B06986F82810DE
:1030A0008318314641F8043FBB42366106D9974246
:1030B0000AF1080007D293420AD204E0BA1A824207
:1030C00006D20AF10C00006800F018FA48E000BFD0
:1030D000316A3046884796F82800400740D5DAF82C
:1030E000000000285AD00198B169069608440021D2
:1030F000CDE9041001F080FADAF800004946002218
:10310000002300F0A9FE58BB48E000BF96F8280055
:1031100022E000BF96F8280040F00101019886F8EF
:1031200028100028B06143D0384431460AF10C021F
:1031300041F8040F3661B84288BF0AF108021068EE
:1031400000F0DCF90CE000BF96F82800810703D4FA
:10315000304600F059FA03E000F0FE0086F828003F
:10316000DAF800005946002200F08CFF00287FF4B6
:1031700029AF73E64FF0500080F31188BFF36F8FD3
:10318000BFF34F8FFEE700BF4FF0500080F3118870
:10319000BFF36F8FBFF34F8FFEE700BF4FF05000BC
:1031A00080F31188BFF36F8FBFF34F8FFEE700BF2F
:1031B0004FF0500080F31188BFF36F8FBFF34F8F34
:1031C000FEE700BF4FF0500080F31188BFF36F8F10
:1031D000BFF34F8FFEE70000F0B581B0044600F06A
:1031E000D7F994F94560012E0FDB04F1240500BFE7
:1031F000286850B1284601F0E7FA002818BF00F00F
:1032000083FBF0B2013E0128F2D8FF2684F8456026
:1032100000F0E2F900F0BCF994F94470012F0EDBE4
:1032200004F11005286850B1284601F0CDFA0028B5
:1032300018BF00F069FBF8B2013F0128F2D884F80A
:10324000446001B0BDE8F04000F0C6B970B5044676
:1032500000F052FC40F2F40CC2F2000CDCF8040066
:1032600050B19CF80000002818BF4FF000404FF00C
:10327000000574BB8DE000BF40F62430C2F20000B0
:10328000C21D22F0070210F00701A0EB020318BFD5
:10329000104600224FF47055CCE90602002918BFF1
:1032A00003F57055411921F00701A1F10803CCF88D
:1032B000043041E90222191AC0E9003101208CF8DA
:1032C00000004FF00040CCE90211002C4FF0000547
:1032D0005FD020405DD124F0070000F110026007AC
:1032E00008BF04F10802002A4FF0000551D0DCF8B5
:1032F000080082424DD8604650F818EFDEF80450BE
:1033000095422CD2DEF80010C1B174464D6895424A
:1033100018D20B68B3B15D68954217D21868A8B18E
:103320004568954216D20468A4B16568954215D2E5
:103330002168A6460029E9D111E000BF0CF1180070
:103340000DE000BF8E46204609E000BF9E460846BD
:1033500005E000BF8646184601E000BFA646DCF83F
:1033600004108E4514D00168DEF80040AB1A112B12
:1033700004604DD30EEB0205680719D04FF05000E2
:1033800080F31188BFF36F8FBFF34F8FFEE700BF4D
:10339000002501F053FA68075BD04FF0500080F32E
:1033A0001188BFF36F8FBFF34F8F00BFFEE700BFE1
:1033B0000CF118006B60CEF8042000BF0368AB422C
:1033C0000AD21868A8420BD20368AB4204D218682C
:1033D0001A46A842F2D304E00246184601E000BFB4
:1033E0001A4653686C68D618AE4202D11C44154682
:1033F00054602B19834207D1DCF80430984203D083
:10340000D0E9000323446B60AA42286018BF15600E
:1034100001F10805DEF80400DCE90212091A914204
:10342000CCF8081038BFCCF80C109CF8001000291C
:1034300018BF40F00040CEF80400DCF81000002176
:103440000130CEF80010CCF8100001F0F7F9680751
:10345000A3D1284670BD0000034642F60D60C0F6B9
:1034600000004FF0807C21F0010103E903106FF0B0
:10347000020043F8240CA3F1440043F8202C7047C9
:10348000D0E9013201699A60D1F804C082688445AC
:10349000536008BF4A600022026108680138086072
:1034A0000868704744F62813C2F20003036044F230
:1034B0002870C2F200000860802010607047000091
:1034C00044F68453C2F20003036044F68410C2F24F
:1034D000000008604FF48070106070474FF0FF31BB
:1034E000024642F8081F00214260C0E90322016041
:1034F00070470000002101617047000010B5D1F84D
:1035000000E01EF1010213D000F1080462681368A4
:10351000734511D853681C68744511D85A681468EB
:1035200074450FD854682368A4467345EED90BE060
:103530000269D2F804C007E09446224604E000BFC6
:103540009C4601E094461A46C1F804C0CCF8081025
:103550008A605160086101680131016010BD00009E
:10356000D0F800C0436808619A684B608A609A6826
:10357000996051600CF1010101607047DFF80C00A7
:10358000016841F4700101607047000088ED00E0BF
:103590004FF0500080F31188BFF36F8FBFF34F8F50
:1035A00040F22400C2F2000001684A1C026009B126
:1035B000704700BF4EF60450CEF2000000680006CF
:1035C00008BF70474FF0500080F31188BFF36F8F32
:1035D000BFF34F8FFEE7000040F22400C2F200006C
:1035E000016839B10139016018BF7047002080F3CC
:1035F000118870474FF0500080F31188BFF36F8F30
:10360000BFF34F8FFEE7000070B5002808BF70BD04
:1036100040F2F405C2F200050446287854F8041C70
:10362000002818BF4FF0004008420DD0A4F1080652
:1036300032689AB14FF0500080F31188BFF36F8F5A
:10364000BFF34F8FFEE700BF4FF0500080F31188AB
:10365000BFF36F8FBFF34F8FFEE700BF21EA00007B
:1036600044F8040C00F048FA54F8041CA868084414
:10367000A86005F1180000BF0368B3420AD21868B9
:10368000B04225D20368B34204D218681A46B04249
:10369000F2D301E0024618465368D418B44202D16E
:1036A0001944164651607318834206D16B689842DC
:1036B00003D0D0E9000319447160B242306018BFF2
:1036C0001660686901306861BDE8704001F0B6B805
:1036D0001A465368D418B442E5D1E1E74EF210001F
:1036E000CEF2000000210160816040F20C01C2F2C4
:1036F0000001096844F6D352C1F26202A1FB021232
:103700004FF0FF3101EB92114160072101607047DA
:1037100040F21410EFF305811029C2F2000011D31A
:103720004EF2F032CEF20002895C0278914209D268
:103730004FF0500080F31188BFF36F8FBFF34F8FAE
:10374000FEE700BF4EF60C51CEF20001096840685A
:1037500001F4E061814298BF70474FF0500080F360
:103760001188BFF36F8FBFF34F8F00BFFEE70000DC
:1037700044F6E05CC2F2000CDCF8002022B36346A1
:1037800053F8082F42B3634653F8102F52B36346E1
:1037900053F8182F62B3634653F8202F72B3634671
:1037A00053F8282F82B3634653F8302F92B3634601
:1037B00053F8382F002A18BF7047072219600CEB06
:1037C000C2014860704700BF0022634619600CEBDD
:1037D000C2014860704700BF012219600CEBC201B2
:1037E00048607047022219600CEBC20148607047C4
:1037F000032219600CEBC201486070470422196073
:103800000CEBC20148607047052219600CEBC20145
:1038100048607047062219600CEBC201486070478F
:1038200070B515460E460446FFF7B2FE94F8440004
:10383000FF2804BF002084F8440094F84500FF28C6
:1038400004BF002084F84500FFF7C6FEA06B28B136
:103850002046BDE87040FFF7BFBC00BF04F1240064
:1038600031462A4600F092F82046BDE87040FFF746
:10387000B3BC000070B588B340F24005C2F2000549
:103880000446686950B14FF0500080F31188BFF3CF
:103890006F8FBFF34F8F00BFFEE700BF6869013035
:1038A0006861AE6928680430FFF7EAFD2868A4194A
:1038B000446005D3286A29680431FFF71FFE08E039
:1038C000E86929680431FFF719FEE86A844238BFC5
:1038D000EC6200F0B3FF002818BF70BD4EF6045034
:1038E000CEF200004FF080510160BFF34F8FBFF365
:1038F0006F8F70BD40F24001C2F200018A6B02601E
:10390000896941607047000040F24000C2F2000047
:10391000012101637047000070B5D8B140F2400446
:10392000C2F200040D4621681831FFF7E7FDA669D1
:1039300020680430FFF7A4FD681C15D02068AD197D
:10394000456019D3206A21680431BDE87040FFF753
:10395000D5BD00BF4FF0500080F31188BFF36F8FCB
:10396000BFF34F8FFEE700BF54F8500B011D2046F8
:10397000BDE87040FFF7F4BDE06921680431FFF74E
:10398000BDFDE06A854238BFE56270BDF0B581B02B
:10399000C0B140F24004C2F200040D462168164650
:1039A0001831FFF7DDFDA76920680430FFF768FDD7
:1039B00096B154F8500B011D204601B0BDE8F0400F
:1039C000FFF7CEBD4FF0500080F31188BFF36F8F2B
:1039D000BFF34F8FFEE700BF2068ED19456007D3A6
:1039E000206A2168043101B0BDE8F040FFF786BDD0
:1039F000E06921680431FFF781FDE06A854238BF44
:103A0000E56201B0F0BD000010B588B00020CDE93E
:103A1000050006A805A904AAFFF744FD059800289B
:103A20003ED0069C002C45D05C21049A0791079952
:103A30005C2949D107992063022084F8590007A81E
:103A40000021CDE9001042F63540C0F6000028A163
:103A500000230294FFF732F92046FEF7A5FF0798EE
:103A600040F24004C2F20004A062B0B100F05EFF78
:103A7000411C33D0012810D14FF0500080F3118841
:103A8000BFF36F8FBFF34F8F4FF0FF30E062012025
:103A900020610020A06100F095F808B010BD00BFC3
:103AA0004FF0500080F31188BFF36F8FBFF34F8F3B
:103AB000FEE700BF4FF0500080F31188BFF36F8F17
:103AC000BFF34F8FFEE700BF4FF0500080F3118827
:103AD000BFF36F8FBFF34F8FFEE700BF4FF0500073
:103AE00080F31188BFF36F8FBFF34F8FFEE700BFE6
:103AF00049444C450000000040F24000C2F2000082
:103B0000416901314161704780B540F2400EC2F217
:103B1000000EDEF8141019B10121CEF8301080BD6E
:103B20000021CEF83010DEF8241040F2C46C01EB16
:103B30008103C2F2000C5CF823208AB101EB810200
:103B40000CEB820353F8042F5268181D82421A604E
:103B500020D0D068CEF80000CEF8241080BD00BF81
:103B60000CEB8302A2F12803E1B15A6922BB0129BF
:103B700018D01A6812BB022914D053F8142CFAB9C1
:103B800003290FD053F8282C0439002AA3F150033D
:103B9000EAD0D3E752681A60D068CEF80000CEF8B9
:103BA000241080BD4FF0500080F31188BFF36F8F59
:103BB000BFF34F8FFEE700BF0139BFE70239BDE712
:103BC0000339BBE7B0B584B04EF2004CCEF2000C26
:103BD0004CF27021C4F20F11DCF800294B1C9A4200
:103BE0000AD14FF0500080F31188BFF36F8FBFF3FD
:103BF0004F8F00BFFEE700BFDCF800298A4209D1E1
:103C00004FF0500080F31188BFF36F8FBFF34F8FD9
:103C1000FEE700BF9CF800100291FF218CF8001015
:103C20009CF800108DF807109DF8071001F0500265
:103C300040F21411C2F200010A7007224A609DF995
:103C40000720B2F1FF3F69DC032200BFD31C4B60A9
:103C50009DF8070040008DF807009DF90700B0F1BE
:103C6000FF3F23DC931C4B609DF8070040008DF85C
:103C700007009DF90700B0F1FF3F17DC531C4B60B4
:103C80009DF8070040008DF807009DF90700B0F18E
:103C9000FF3F0BDC4A609DF80700043A40008DF8B6
:103CA00007009DF907000028D0D4131D032B35D140
:103CB0004FF44070486002988CF80000DCF820094E
:103CC00040F47000CCF82009DCF8200940F0704086
:103CD000CCF82009FFF702FD40F22404C2F20004F0
:103CE00000252560FFF74AFC4EF63470CEF2000046
:103CF000016841F040410160FFF774F8FFF704FFED
:103D0000039520684FF0500181F31188BFF36F8F46
:103D1000BFF34F8F013011D0FEE700BF4FF05000CE
:103D200080F31188BFF36F8FBFF34F8FFEE700BFA3
:103D3000039830B9039820B9039810B90398002864
:103D4000F6D0002004B0B0BD80B54FF0500080F335
:103D50001188BFF36F8FBFF34F8F00F06DFC30B150
:103D60004EF60450CEF200004FF08051016000206A
:103D700080F3118880BD000070B582B070B11C4620
:103D8000B3B1F9B9F2B14FF0500080F31188BFF32D
:103D90006F8FBFF34F8F00BFFEE700BF4FF05000A3
:103DA00080F31188BFF36F8FBFF34F8FFEE700BF23
:103DB0004FF0500080F31188BFF36F8FBFF34F8F28
:103DC000FEE700BF51B14AB94FF0500080F31188AF
:103DD000BFF36F8FBFF34F8FFEE700BF50230193F8
:103DE000019B502B2ED1019B069E012384F8463067
:103DF000002908BF22462260C4E90F01FFF7C8FB73
:103E00002068D4E90F12002502FB0103013901FBF0
:103E10000201A563C4E90103FF20E16084F84400C6
:103E200084F8450004F11000FFF758FB04F124006A
:103E3000FFF754FBFFF7D0FB204684F84C6002B03C
:103E400070BD00BF4FF0500080F31188BFF36F8F3B
:103E5000BFF34F8FFEE700002DE9F04F83B00292D1
:103E6000C0B11D4617460E460446E9B1022D03D1E6
:103E7000E06B012840F0888000F0BEFB10BB0FB360
:103E80004FF0500080F31188BFF36F8FBFF34F8F57
:103E9000FEE700BF4FF0500080F31188BFF36F8F33
:103EA000BFF34F8FFEE700BF206C0028DED04FF03D
:103EB000500080F31188BFF36F8FBFF34F8F00BFA7
:103EC000FEE700BFFFF764FBA06B022D66D0E16B3D
:103ED000884263D304F1100801206F460DF10809F0
:103EE0000DE000BF2046FFF777F900F0A7FCFFF7D1
:103EF0004FFBA06BE16B88424FF000004ED302995C
:103F0000002973D0C00702D03846FFF7F3FCFFF753
:103F100063FBFFF7F1FDFFF73BFB94F84400FF283C
:103F200004BF002084F8440094F84500FF2804BF33
:103F3000002084F84500FFF74FFB3846494600F063
:103F400073F9002858D1FFF723FBD4F838A0D4F830
:103F50003CB0FFF741FBDA45C4D102994046FFF778
:103F6000DBFC2046FFF738F900F068FC0028BED1E2
:103F70004EF60450CEF200004FF080510160BFF3C6
:103F80004F8FBFF36F8FB2E74FF0500080F311886F
:103F9000BFF36F8FBFF34F8FFEE700BFA76B226C9D
:103FA000D2B19DB3E0683146FCF73BF9E168206C83
:103FB0002268091A9142E16003D2A1684042084494
:103FC000E060A81EB0FA80F040093946002F18BF03
:103FD000012108403F1A26E02068002520BBA06888
:103FE00000F0ACFBA56005461EE000BFFFF7F4FA49
:103FF000002003B0BDE8F08F2046FFF7EDF800F099
:104000001DFC002003B0BDE8F08F00BF60683146A2
:10401000FCF707F9216CD4E9010208449042606082
:1040200001D3206860600025781CA06354F8240F39
:10403000A0B1204600F0C8FB50B14EF60450CEF2BD
:1040400000004FF080510160BFF34F8FBFF36F8FBF
:10405000FFF7C2FA012003B0BDE8F08F002DF7D0C2
:104060004EF60450CEF200004FF080510160BFF3D5
:104070004F8FBFF36F8FFFF7AFFA012003B0BDE89A
:10408000F08F00002DE9F04F83B0029290B11646F8
:104090000D460446002947D000F0AEFAA0B99EB103
:1040A0004FF0500080F31188BFF36F8FBFF34F8F35
:1040B000FEE700BF4FF0500080F31188BFF36F8F11
:1040C000BFF34F8FFEE700BFFFF762FAD4F838A0C6
:1040D000BAF1000F36D0226C52B1D4E90230811807
:1040E000E160994224BF2168E1602846FCF799F815
:1040F000AAF10100A06354F8100F70B1204600F03F
:1041000063FB50B14EF60450CEF200004FF08051E8
:104110000160BFF34F8FBFF36F8F0124FFF75CFA8D
:10412000204603B0BDE8F08F206C0028B4D04FF0DB
:10413000500080F31188BFF36F8FBFF34F8F00BF24
:10414000FEE700BF04F1240801206F464FF000098C
:104150000DF1080B2EE000BFFFF73EFAFFF7CCFC95
:10416000FFF716FA94F84400FF2808BF84F844903B
:1041700094F84500FF2808BF84F84590FFF72CFA13
:104180003846594600F050F8E0B12046FFF724F8D1
:1041900000F054FBFFF7FCF9A66BFFF71DFA002EA9
:1041A0003CD0FFF7F5F9D4F838A00020BAF1000FA1
:1041B0007FF491AF029949B3C007CDD03846FFF7DD
:1041C00099FBC9E7FFF7E4F9A66BFFF705FA2EB1F3
:1041D0002046FFF701F800F031FBE2E70299404684
:1041E000FFF79AFB2046FEF7F7FF00F027FB0028B9
:1041F000D7D14EF60450CEF200004FF0805101604E
:10420000BFF34F8FBFF36F8FCBE700BF0024FFF7E3
:10421000E3F9204603B0BDE8F08F00BF002420463C
:1042200003B0BDE8F08F0000B0B5D8B10D4619B3AA
:104230000446FFF7ADF940F2400CC2F2000CDCF886
:10424000182029684B1C21D0D4E9000EDCF8383046
:10425000834221D072451FD30124FFF7BDF92046C8
:10426000B0BD00BF4FF0500080F31188BFF36F8FD7
:10427000BFF34F8FFEE700BF4FF0500080F311886F
:10428000BFF36F8FBFF34F8FFEE700BF0024FFF730
:10429000A3F92046B0BD00BFA2EB0E0291420DD99A
:1042A000881A2860DCF838002060DCF818006060AC
:1042B0000024FFF791F92046B0BD00BF0020012483
:1042C0002860FFF789F92046B0BD00002DE9F043D2
:1042D00083B007469000984615468946FEF7B6FF1C
:1042E000F8B106465C20FEF7B1FFB8B10446DDE93F
:1042F0000A100022266384F85920CDE900103846C0
:1043000049462A4643460294FEF7D8FC2046FEF76B
:104310004BFB012003B0BDE8F08300BF3046FFF740
:1043200073F94FF0FF3003B0BDE8F08370B586B08D
:104330000B9CCCB10C9E0EB35C250495049D5C2DAA
:1043400026D1049DDDF828C0022586F8595005AD18
:104350003463CDE900C50296FEF7B0FC3046FEF7A7
:1043600023FB059806B070BD4FF0500080F3118814
:10437000BFF36F8FBFF34F8FFEE700BF4FF05000CA
:1043800080F31188BFF36F8FBFF34F8FFEE700BF3D
:104390004FF0500080F31188BFF36F8FBFF34F8F42
:1043A000FEE70000F0B581B0E0B11F4616460446B6
:1043B0000D46FFF7EDF8002F1CBF606D386094F8D4
:1043C00058000221042E84F8581015D8DFE806F0B2
:1043D00029042228500000BF616D2943616501282E
:1043E00067D120E04FF0500080F31188BFF36F8F4A
:1043F000BFF34F8FFEE700BF616D013111D04FF069
:10440000500080F31188BFF36F8FBFF34F8F00BF51
:10441000FEE700BF616D01316165012849D102E00D
:104420006565012845D1251D2846FFF729F840F28A
:104430004006C2F20006E06A716A884240F2C46136
:1044400088BF706200EB8000C2F2000101EB8000C7
:104450002946FFF785F8A06A90B14FF0500080F32D
:104460001188BFF36F8FBFF34F8F00BFFEE700BF10
:1044700002281BD10024FFF7AFF8204601B0F0BDA1
:10448000E06A3168C96A884213D94EF60450CEF208
:1044900000004FF080510160BFF34F8F0124BFF344
:1044A0006F8FFFF799F8204601B0F0BD65650128D0
:1044B000B9D00124FFF790F8204601B0F0BD00000C
:1044C0002DE9F04120B31F46164604460D46FFF77E
:1044D0001FF9EFF311884FF0500080F31188BFF3FC
:1044E0006F8FBFF34F8F002F1CBF606D386094F843
:1044F00058000221042E84F8581013D8DFE806F083
:1045000027042026360000BF616D29431AE000BF52
:104510004FF0500080F31188BFF36F8FBFF34F8FC0
:10452000FEE700BF616D013111D04FF0500080F304
:104530001188BFF36F8FBFF34F8F00BFFEE700BF3F
:10454000616D01316165012827D102E065650128AF
:1045500023D1A06A90B14FF0500080F31188BFF3CF
:104560006F8FBFF34F8F00BFFEE700BF022811D14E
:10457000002088F31188BDE8F08100BF40F24006BA
:10458000C2F20006706968B104F1180106F1640016
:104590001AE000BF65650128DBD0012088F311888F
:1045A000BDE8F081251D2846FEF76AFFE06A716AC2
:1045B000884240F2C46188BF706200EB8000C2F2A2
:1045C000000101EB80002946FEF7CAFFE06A31686E
:1045D000C96A88420AD9069800281CBF01210160D7
:1045E0000120306388F31188BDE8F081012088F351
:1045F0001188BDE8F081000040F24000C2F20000E6
:10460000016900290FBF01204069B0FA80F040091C
:1046100018BF40007047000040F24000C2F20000A6
:104620008069704780B5FFF773F840F24000C2F22E
:104630000000806980BD00002DE9F04381B040F2A8
:104640004006C2F20006706940B1706B0024013070
:104650007063204601B0BDE8F08300BFB06910F17F
:104660000109C6F8189020D3F069006850B14FF0E6
:10467000500080F31188BFF36F8FBFF34F8F00BFDF
:10468000FEE700BFF069316AF1613062B06B013062
:10469000B063F069006828B1F069C068C06840681C
:1046A00002E000BF4FF0FF30F062F06A40F2C468F1
:1046B0008145C2F2000801D200242EE0F0690024F6
:1046C000006813E0F86A716A884288BF706200EB84
:1046D000800008EB80002946FEF742FFF86A316847
:1046E000C96AF269884228BF0124106890B1F06954
:1046F000C068C7683D4655F8040F81450CD328466D
:10470000FEF7BEFEB86A0028DCD007F11800FEF7FD
:10471000B7FED7E74FF0FF30F0623068C06A00EBB9
:10472000800058F82000012888BF0124306B002841
:1047300018BF0124204601B0BDE8F08370B588B1F0
:1047400040F24006C2F2000604463068A0420BD098
:104750004FF0500080F31188BFF36F8FBFF34F8F7E
:10476000FEE700BF002070BD206D18B3411EE06A57
:10477000E26C216590424FF0000008BF70BDC1B9E6
:10478000251D2846FEF77CFEE06CC0F13801E06292
:10479000A161716A884240F2C46188BF706200EB17
:1047A0008000C2F2000101EB80002946FEF7D8FE2E
:1047B000012070BD4FF0500080F31188BFF36F8F60
:1047C000BFF34F8FFEE7000070B5C068C5686DB1DC
:1047D00005F118042046FEF753FE40F24006C2F2EF
:1047E0000006706960B106F164001AE04FF05000F5
:1047F00080F31188BFF36F8FBFF34F8FFEE700BFC9
:104800002C1D2046FEF73CFEE86A716A884240F2A1
:10481000C46188BF706200EB8000C2F2000101EB4E
:1048200080002146FEF79CFEE86A3168C96A88422A
:1048300092BF00200120306370BD00002DE9F041DF
:1048400040F24005C2F20005686968B1FEF7A0FEBB
:10485000686901386861686980B10024FEF7BCFEB0
:104860002046BDE8F08100BF4FF0500080F3118872
:10487000BFF36F8FBFF34F8FFEE700BFE8680028DC
:10488000EBD0686E88B340F2C466C2F200064FF007
:10489000010800BF286FC76807F11800FEF7F0FD98
:1048A0003C1D2046FEF7ECFDF86A696A884288BF25
:1048B000686200EB800006EB80002146FEF750FEA8
:1048C000F86A2968C96A884228BFC5F83080686ECE
:1048D0000028DFD1E869006820B1E869C068C068D5
:1048E000406801E04FF0FF30E8626C6B4CB101268C
:1048F000FFF7A2FE002818BF2E63013CF8D100206C
:104900006863286B0028A8D04EF60450CEF2000051
:104910004FF080510160BFF34F8F0124BFF36F8FC1
:10492000FEF75AFE2046BDE8F081000070B586B063
:10493000FEF72EFE40F2B806C2F20006306808BB51
:1049400006F114042046FEF7C9FD06F128052846A5
:10495000FEF7C4FD40F2D45240F27463C6E902454A
:104960000025C2F20002C2F200030A2010210095C5
:10497000FFF702FA306028B146F26511C0F6000177
:10498000FEF7F6FEFEF728FE3068D8B10020CDE92C
:10499000040005A804A903AAFEF792FDDDE903209F
:1049A0000221059DCDE9001042F64D60C0F60000E1
:1049B00009A100230295FFF7B9FC706010B1012036
:1049C00006B070BD4FF0500080F31188BFF36F8FB9
:1049D000BFF34F8FFEE700BF546D72205376630024
:1049E00002E008C8121F08C1002AFAD170477047B8
:1049F000002001E001C1121F002AFBD17047000016
:104A0000000000000000010203040607080900007E
:104A1000000001020304000020007E00444A000858
:104A20000000000049040008D10500084506000800
:104A30004D0600080000000008080101184A00089F
:104A400000000000030301003853000802020100C7
:104A50004053000804040100485300080606010002
:104A600050530008060601005853000806060100CE
:104A700060530008060601006853000803030100A4
:104A80007053000804040100785300080404010076
:104A9000805300080606010088530008060601003E
:104AA0009053000803030100985300080606010014
:104AB000A053000803030100A853000806060100E4
:104AC000B053000806060100B853000806060100AE
:104AD000C053000806060100C8530008060601007E
:104AE000D053000806060100D8530008060601004E
:104AF000E053000806060100E8530008060601001E
:104B0000F053000806060100F853000806060100ED
:104B100000540008030301000854000803030100C7
:104B2000105400080505010018540008060601008D
:104B3000205400080505010028540008060601005D
:104B4000305400080606010038540008060601002B
:104B500040540008060601004854000806060100FB
:104B600050540008060601005854000806060100CB
:104B7000605400080606010068540008060601009B
:104B8000705400080606010078540008040401006F
:104B9000805400080606010088540008060601003B
:104BA000905400080606010098540008060601000B
:104BB000A054000806060100A854000806060100DB
:104BC000B054000806060100B854000806060100AB
:104BD000C054000806060100C8540008060601007B
:104BE000D054000806060100D8540008060601004B
:104BF000E054000806060100E8540008060601001B
:104C0000F054000806060100F854000806060100EA
:104C100000550008060601000855000804040100BC
:104C2000105500080606010018550008040401008C
:104C30002055000806060100285500080606010058
:104C40003055000806060100385500080606010028
:104C500040550008060601004855000805050100FA
:104C600050550008060601005855000806060100C8
:104C7000605500080505010068550008060601009A
:104C80007055000806060100785500080202010070
:104C9000805500080404010088550008050501003E
:104CA000905500080404010098550008060601000C
:104CB000A055000805050100A855000805050100DC
:104CC000B055000805050100B855000805050100AC
:104CD000C055000804040100C8550008050501007E
:104CE000D055000804040100D8550008050501004E
:104CF000E055000806060100E85500080606010018
:104D0000F055000806060100F855000805050100E9
:104D100000560008060601000856000804040100B9
:104D2000105600080303010018560008040401008F
:104D30002056000806060100285600080808010051
:104D40003056000808080100405600080808010015
:104D500050560008080801006056000808080100C5
:104D60007056000808080100805600080808010075
:104D70009056000808080100A05600080808010025
:104D8000B056000808080100C056000808080100D5
:104D9000D056000808080100E05600080808010085
:104DA000F056000808080100005700080808010034
:104DB00010570008080801002057000808080100E3
:104DC0003057000808080100405700080808010093
:104DD0005057000808080100605700080808010043
:104DE00070570008080801008057000808080100F3
:104DF0009057000808080100A057000808080100A3
:104E0000B057000808080100C05700080808010052
:104E1000D057000808080100E05700080808010002
:104E2000F0570008080801000058000808080100B1
:104E30001058000808080100205800080808010060
:104E40003058000808080100405800080808010010
:104E500050580008080801006058000808080100C0
:104E60007058000808080100805800080808010070
:104E70009058000808080100A05800080808010020
:104E8000B058000808080100C058000808080100D0
:104E9000D058000808080100E05800080808010080
:104EA000F05800080808010000590008080801002F
:104EB00010590008080801002059000808080100DE
:104EC000305900080808010040590008080801008E
:104ED000505900080808010060590008080801003E
:104EE00070590008080801008059000808080100EE
:104EF0009059000808080100A0590008080801009E
:104F0000B059000808080100C0590008080801004D
:104F1000D059000808080100E059000808080100FD
:104F2000F059000808080100005A000808080100AC
:104F3000105A000808080100205A0008080801005B
:104F4000305A000808080100405A0008080801000B
:104F5000505A000808080100605A000808080100BB
:104F6000705A000808080100805A0008080801006B
:104F7000905A000808080100A05A0008080801001B
:104F8000B05A000808080100C05A000808080100CB
:104F9000D05A000808080100E05A0008080801007B
:104FA000F05A000808080100005B0008080801002A
:104FB000105B000808080100205B000808080100D9
:104FC000305B000808080100405B00080808010089
:104FD000505B000808080100605B00080808010039
:104FE000705B000808080100805B000808080100E9
:104FF000905B000808080100A05B00080808010099
:10500000B05B000808080100C05B00080808010048
:10501000D05B000808080100E05B000808080100F8
:10502000F05B000808080100005C000808080100A7
:10503000105C000808080100205C00081010020045
:10504000305C000810100200505C000810100200D4
:10505000705C000810100200905C00081010020044
:10506000B05C000810100200D05C000810100200B4
:10507000F05C000810100200105D00081010020023
:10508000305D000810100200505D00081010020092
:10509000705D000810100200905D00081010020002
:1050A000B05D000810100200D05D00081010020072
:1050B000F05D000810100200105E000810100200E1
:1050C000305E000810100200505E00081010020050
:1050D000705E000810100200905E000810100200C0
:1050E000B05E000810100200D05E00081010020030
:1050F000F05E000810100200105F0008101002009F
:10510000305F000810100200505F0008101002000D
:10511000705F000810100200905F0008101002007D
:10512000B05F000810100200D05F000810100200ED
:10513000F05F00081010020010600008101002005C
:1051400030600008101002005060000810100200CB
:1051500070600008101002009060000820007F00BE
:105160003C4D000868510008CBB2CBB23C5000085F
:1051700074510008CEB2CEB24450000880510008ED
:10518000F3B4F3B44C5000088C510008A5B5A5B594
:105190005450000898510008E7B5E7B55C50000886
:1051A000A4510008E0B6E0B664500008B051000811
:1051B000A6B9A6B96C500008BC510008BCBABCBA6C
:1051C00074500008C8510008FABBFABB7C500008B4
:1051D000D4510008BCBCBCBC84500008E05100089D
:1051E000E4BCE4BC8C500008EC510008F2BCF2BCFA
:1051F00094500008F8510008E7BDE7BD9C50000836
:1052000004520008C6BFC6BFA450000810520008D0
:10521000BCC2BCC2AC5000081C520008E6C3E6C3C6
:10522000B450000828520008DCC4DCC4BC5000089C
:1052300034520008EAC4EAC4C450000840520008CE
:10524000D5C8D5C8CC5000084C520008A9CAA9CA74
:10525000D450000858520008B1CAB1CADC50000846
:1052600064520008FDCAFDCAE450000870520008EC
:10527000F5CDF5CDEC5000087C520008C0D0C0D070
:10528000F450000888520008A7D1A7D1FC500008AC
:1052900094520008D7D2D7D204510008A052000877
:1052A000F4D2F4D20C510008AC520008C2D4C2D4DB
:1052B00014510008B8520008CFD4CFD41C510008B4
:1052C000C4520008F8D4F8D424510008D052000881
:1052D000A5D6A5D62C510008DC520008DDD6DDD6B7
:1052E00034510008E8520008F7D6F7D63C510008C0
:1052F000F4520008D3D7D3D7445100080053000814
:10530000B9D8B9D84C5100080C530008F9E2F9E2B9
:10531000545100080000000049040008D1050008AD
:10532000450600084D0600080000000010100101AD
:105330005C510008000000000000000000000000B8
:105340008080808080008000A0A0A000000000007D
:105350005050F850F85050002078A07028F02000ED
:10536000C0C81020409818006090A040A890680025
:10537000C04080000000000020408080804020006D
:105380008040202020408000005020F82050000065
:10539000002020F8202000000000000000C0408015
:1053A000000000F8000000000000000000C0C00085
:1053B0000008102040800000708898A8C8887000FD
:1053C0002060202020207000708808304080F80085
:1053D000708808300888700010305090F810100065
:1053E000F880F00808887000304080F088887000ED
:1053F000F80810204040400070888870888870004D
:10540000708888780810600000C0C000C0C000002C
:105410000000C0C000C0408010204080402010002C
:105420000000F800F80000008040201020408000BC
:10543000708808102000200070880868A8A87000F4
:10544000708888F888888800F08888F08888F0005C
:105450007088808080887000E09088888890E00064
:10546000F88080F08080F800F88080F080808000F4
:105470007088808098887800888888F88888880074
:10548000E04040404040E0003810101010906000B4
:105490008890A0C0A0908800808080808080F800E4
:1054A00088D8A8A8888888008888C8A8988888008C
:1054B0007088888888887000F08888F080808000F4
:1054C00070888888A8906800F08888F0A09088008C
:1054D0007088807008887000F8202020202020002C
:1054E0008888888888887000888888888850200004
:1054F000888888A8A8A850008888502050888800EC
:105500008888502020202000F80810204080F800D3
:10551000E08080808080E000008040201008000053
:10552000E02020202020E000205088000000000023
:1055300000000000000000F8804020000000000093
:1055400000007008788878008080B0C88888F000F3
:105550000000609080906000080868988888780053
:1055600000007088F8807000205040E0404040000B
:1055700000007888887808708080B0C888888800A3
:10558000800080808080800020006020202020C05B
:10559000808090A0C0A09000C04040404040E0000B
:1055A0000000D0A8888888000000B0D090909000BB
:1055B00000006090909060000000E09090E080809B
:1055C00000007090907010100000A0C080808000DB
:1055D000000070806010E0004040E040404040002B
:1055E0000000909090907000000088888850200003
:1055F00000008888A8A8500000008850205088002B
:1056000000009090907010600000F8102040F800AA
:10561000204040804040200040404040404040000A
:105620008040402040408000689000000000000062
:10563000000000000000000000000000000000006A
:1056400000000010101010101010000010100000CA
:1056500000122424480000000000000000000000A8
:105660000000001212127E2424247E242424000030
:105670000000083C4A4A48380C0A0A4A4A3C0808D2
:1056800000000044A4A8A8B0541A2A2A4A440000E2
:1056900000000030484848506EA494988976000075
:1056A000006020204000000000000000000000001A
:1056B000000204080810101010101008080402005E
:1056C00000402010100808080808081010204000AA
:1056D000000000001010D63838D61010000000006E
:1056E00000000000000808087F080808000000000B
:1056F00000000000000000000000000060202040CA
:1057000000000000000000007E000000000000001B
:1057100000000000000000000000000060600000C9
:10572000000002040404080810101020204040006B
:105730000000001824424242424242422418000023
:10574000000000083808080808080808083E00009B
:105750000000003C4242420204081020427E000049
:105760000000003C4242020418040242423C000095
:10577000000000040C0C142424447F04041F0000C7
:105780000000007E4040407844020242443800005D
:10579000000000182440405C62424242221C00008B
:1057A0000000007E420404080810101010100000D1
:1057B0000000003C4242422418244242423C000085
:1057C0000000003844424242463A020224180000D7
:1057D0000000000000001818000000001818000069
:1057E0000000000000000010000000000010101079
:1057F00000000002040810204020100804020000ED
:105800000000000000007E00007E0000000000009C
:10581000000000402010080402040810204000008E
:105820000000003C4242620408080800181800000A
:1058300000000038445AAAAAAAAAAA5C423C000066
:105840000000001010182828243C444242E70000C1
:10585000000000F8444444784442424244F80000C6
:105860000000003E42428080808080424438000038
:10587000000000F8444242424242424244F80000E2
:10588000000000FC424848784848404242FC000082
:10589000000000FC424848784848404040E0000092
:1058A0000000003C44448080808E844444380000E2
:1058B000000000E7424242427E42424242E700008C
:1058C0000000007C1010101010101010107C000050
:1058D0000000003E0808080808080808080888F0C2
:1058E000000000EE444850705048484444EE000028
:1058F000000000E0404040404040404042FE000088
:10590000000000EE6C6C6C6C6C54545454D6000067
:10591000000000C7626252524A4A4A4646E200000C
:1059200000000038448282828282828244380000F1
:10593000000000FC424242427C40404040E0000007
:105940000000003844828282828282B24C38060093
:10595000000000FC4242427C4848444442E30000CC
:105960000000003E4242402018040242427C0000F7
:10597000000000FE921010101010101010380000DF
:10598000000000E74242424242424242423C0000A2
:10599000000000E742424424242828181010000088
:1059A000000000D654545454546C28282828000071
:1059B000000000E7422424181818242442E70000BD
:1059C000000000EE44442828101010101038000089
:1059D0000000007E840408081020204242FC0000E1
:1059E000001E1010101010101010101010101E00BB
:1059F00000004020202010101008080404040202B7
:105A00000078080808080808080808080808780046
:105A1000001824000000000000000000000000004A
:105A2000000000000000000000000000000000FF77
:105A300000601000000000000000000000000000F6
:105A40000000000000000038440C34444C360000D4
:105A500000000000C04040586442424264580000C8
:105A6000000000000000001C22404040221C0000FA
:105A7000000000000602023E42424242463B000055
:105A8000000000000000003C42427E40423C00001A
:105A9000000000000C12107C10101010107C000090
:105AA000000000000000003E444438403C42423CBC
:105AB00000000000C040405C6242424242E70000F9
:105AC000000000303000007010101010107C00003A
:105AD0000000000C0C00001C0404040404044478BE
