:020000040800F2
:10000000B85700205D0200081B2E0008392A00089E
:10001000192E000873070008D93C000800000000F2
:100020000000000000000000000000009D0100082A
:10003000C509000800000000F9010008D9360008D1
:10004000770200087702000877020008B92F00083D
:10005000770200087702000877020008770200089C
:10006000770200087702000877020008770200088C
:10007000770200087702000877020008770200087C
:10008000770200087702000877020008770200086C
:10009000770200087702000877020008770200085C
:1000A000770200087702000877020008770200084C
:1000B000770200087702000877020008770200083C
:1000C000770200087702000877020008770200082C
:1000D00077020008953C00087702000877020008C4
:1000E00077020008212F0008770200087702000835
:1000F00077020008770200087702000877020008FC
:1001000077020008770200087702000877020008EB
:100110007702000877020008770200089D37000880
:1001200077020008750700087702000877020008C8
:1001300077020008770200087702000877020008BB
:1001400077020008770200087702000877020008AB
:10015000770200088107000877020008A13C000828
:10016000770200087702000877020008770200088B
:1001700077020008770200087702000800000000FC
:100180007702000877020008DFF80CD000F07EFA52
:1001900000480047413F0008B85700202C4B196821
:1001A0000868B0E8F04F80F30988BFF36F8F4FF015
:1001B000000080F3118870470000000008480068C4
:1001C000006880F308884FF0000080F3148862B65E
:1001D00061B6BFF34F8FBFF36F8F00DF00BF00BF6B
:1001E00008ED00E0DFF80C00016841F470010160E7
:1001F000704700BF88ED00E0EFF30980BFF36F8F19
:10020000134B1A681EF0100F08BF20ED108A20E96A
:10021000F04F106009B44FF0500080F31188BFF325
:100220004F8FBFF36F8F04F02DFE4FF0000080F36F
:10023000118809BC19680868B0E8F04F1EF0100F6B
:1002400008BFB0EC108A80F30988BFF36F8F704746
:1002500050000020EFF305807047000006488047FB
:1002600006480047FEE7FEE7FEE7FEE7FEE7FEE79B
:10027000FEE7FEE7FEE7FEE78D370008890100088C
:100280002DE9F05F0546002092469B4688460646CB
:10029000814640241BE0284641464746224600F05E
:1002A00018F953465A46C01A914110D311461846C0
:1002B000224600F0FFF82D1A67EB01084F46224650
:1002C0000120002100F0F6F817EB00094E41201E36
:1002D000A4F10104DFDC484631462A464346BDE826
:1002E000F09F40EA01039B0703D009E008C9121FF1
:1002F00008C0042AFAD203E011F8013B00F8013BE0
:10030000521EF9D27047D2B201E000F8012B491E0B
:10031000FBD270470022F6E710B513460A460446A2
:100320001946FFF7F0FF204610BD30B505462A46B6
:100330000B4612F8010B13F8014B08B1A042F8D09C
:100340001CB1002802D06D1CF1E7284630BD421CCC
:1003500010F8011B0029FBD1801A704770B50646C2
:1003600003F0E8FC046805460A220021304600F04C
:10037000C0F82C6070BD2DE9FE4F81EA030404F043
:10038000004421F0004100944FF0000B23F00043A3
:1003900050EA01045ED052EA03045BD0C3F30A546E
:1003A000C1F30A552C44A4F2F3340194A0FB025487
:1003B000C1F3130141F48011C3F3130343F4801319
:1003C00001FB024400FB034E840A970A44EA81546D
:1003D00047EA8357A4FB076802958D0A05FB07854A
:1003E0004FEA932C04FB0C542705029D4FEA065854
:1003F00047EA1637B5EB08056EEB070C870E920E31
:1004000047EA811742EA8312A7FB0201B6EB0B0110
:1004100064EB00042B0D43EA0C335E1844EB1C50D4
:10042000DA465146E7FB0201C5F313044FEA0B33EA
:1004300043EA14534FEA0432019C43EA0603A4F151
:100440000C040294009CCDE900B400F0D0F803B095
:10045000BDE8F08F00200146F9E70EB5C10F80EA34
:10046000E0700844CA07002140F233438DE80E00D3
:100470000A460B4600F0BBF803B000BD01F0004394
:1004800030B421F0004150EA010206D00A0DA2F575
:100490006072C1F31301002A02DC30BC00207047F7
:1004A000440F44EAC104C100E01830BC00EBC25064
:1004B00000F057B8202A04DB203A00FA02F10020AD
:1004C00070479140C2F1200320FA03F31943904092
:1004D0007047202A04DB203A21FA02F000217047FD
:1004E00021FA02F3D040C2F120029140084319469C
:1004F00070472DE9F04791460F4680460446002696
:1005000014F8015B2DB100F0D3F80068405DC0071E
:10051000F6D12B2D02D02D2D18D0641E4A46394617
:10052000204600F0C9F827B13968A14201D1C7F8C7
:10053000008071054FF002040BD54042002803DD16
:1005400003F0F8FB0460A007BDE8F08746F480667E
:10055000E4E70028F8DA03F0EDFB04606FF00040F8
:10056000F2E70029A8BF7047401C490008BF20F0EF
:100570000100704710B4B0FA80FC00FA0CF050EAA9
:10058000010404BF10BC704749B1CCF1200421FA2A
:1005900004F411FA0CF118BF012121430843A3EB25
:1005A0000C01CB1D4FEA00614FEA102042BF002032
:1005B00010BC704700EBC35010440029A4BF10BC0E
:1005C0007047401C490008BF20F0010010BC704774
:1005D00010B5141E73F1000408DA401C41F100014B
:1005E00092185B411A4301D120F0010010BD2DE9A2
:1005F000F04D92469B4611B1B1FA81F202E0B0FA99
:1006000080F220329046FFF755FF04460F4640EA3D
:100610000A0041EA0B0153465A46084313D01146DB
:1006200053EA010019D0C8F140025046FFF751FFCC
:1006300005460E46504659464246FFF73BFF0843E3
:1006400005D0012004E020463946BDE8F08D0020A9
:10065000054346EAE0762C4337430A986305E40AEB
:10066000A0EB08000022FD0A44EA47540A3002D5F4
:1006700000200146E9E7010510196941DDE9084557
:1006800000196941BDE8F04DA2E70000064C074D96
:1006900006E0E06840F0010394E807009847103452
:1006A000AC42F6D3FFF774FD787400089874000824
:1006B00000487047187400082DE9F05F8246007802
:1006C000002715468B460AF10104B946302801D0AF
:1006D0009DB113E014F8010B0127782803D05828A6
:1006E00001D045B10AE00DB1102D07D1002710252A
:1006F00014F8010B02E0082500E00A250026B046A8
:100700000EE005FB080005FB06F1012701EB104692
:100710001FFA80F8B6F5803F00D3B94614F8010BF4
:10072000294600F018F80028EBDABBF1000F05D0DD
:100730000FB1641E00E05446CBF80040B9F1000F41
:1007400006D003F0F7FA02210160C81EBDE8F09F51
:1007500048EA0640FAE73A2800D2303820F0200272
:10076000412A01D3A2F13700884201D34FF0FF3074
:100770007047FEE7014800F037BC0000AC050020E0
:10078000014800F031BC00000C060020016818236D
:10079000CAB2103AB2FBF3F2054B6FF30901032A18
:1007A0009B5CC36500D9091D816508467047000040
:1007B000586D000810B5014600208B698A6A4FF019
:1007C000C07453B1B3F5005F15D072B1012A0CD0DB
:1007D000022A0AD0032A09D104E01AB1012A06D05C
:1007E000022A03D1C96AC90100D5012010BDC96A16
:1007F000A142FAD010BD002AF7D0012AF2D0022A75
:10080000F3D0032AF3D010BD00B585B0142168469B
:10081000FFF780FD01200021CDE9000102900220B8
:1008200003906946024800F02BFD05B000BD0000B2
:100830000010024000B585B014216846FFF76AFD3C
:100840000120009001900020029002200390694650
:10085000024800F015FD05B000BD00000010024088
:1008600070B50024FFF7D0FF124D04E0641CE4B221
:10087000012003F0DDFA0121284600F0F9FD10B156
:10088000642CF3D30FE0642C0DD2002404E0641C2C
:10089000E4B2012003F0CCFA0121284600F0E8FD83
:1008A00018B1F02C04D3012070BDF02CEFD3FAE77F
:1008B000002070BD001002402DE9F0410026124FCB
:1008C000354600BFFFF7B6FF00220121384600F091
:1008D000D4FD0A2003F0ACFAFFF796FF0121384659
:1008E00000F0C6FD01280DD000242D2003F0A0FA51
:1008F000AC4034436D1CEDB2E6B2082DE2D3304675
:10090000BDE8F0810124F0E70010024010B5FFF7C8
:1009100091FF0A4C00220121204600F0AEFD40F27A
:10092000EE2003F085FA01221146204600F0A5FDD5
:10093000BDE810400F2003F07BBA00000010024019
:1009400070B50546FFF776FF144E002415F0010F31
:100950004FEA55054FF000024FF0010130460BD031
:1009600000F08BFD082003F063FA012211463046A7
:1009700000F083FD3A200AE000F07FFD462003F0FE
:1009800057FA01221146304600F077FD022003F0AD
:100990004FFA641CE4B2082CD8D370BD001002409A
:1009A0000648016841F0807101600548016841F026
:1009B000010101600021416070470000FCED00E092
:1009C000001000E0704700002DE9F047044616785B
:1009D00003F00700DFF85481089D91460F46082870
:1009E00005D2DFE800F00416293C4F627588300616
:1009F00002D598F81C2006E098F81C00012801D0C8
:100A0000012200E00022B9B2A0B202F08BFB6D1E01
:100A100076D0700602D598F81C2006E098F81C00E5
:100A2000012801D0012200E00022601CB9B280B28E
:100A300002F078FB6D1E76D0B00602D598F81C2027
:100A400006E098F81C00012801D0012200E00022F5
:100A5000A01CB9B280B202F065FB6D1E63D0F00637
:100A600002D598F81C2006E098F81C00012801D057
:100A7000012200E00022E01CB9B280B202F052FB79
:100A80006D1E50D0300702D598F81C2006E098F86B
:100A90001C00012801D0012200E00022201DB9B273
:100AA00080B202F03FFB6D1E3DD0700702D598F872
:100AB0001C2006E098F81C00012801D0012200E06B
:100AC0000022601DB9B280B202F02CFB6D1E2AD04C
:100AD000B00702D598F81C2006E098F81C00012801
:100AE00001D0012200E00022A01DB9B280B202F0C4
:100AF00019FB6D1E17D0F00703D098F81C2007E0F3
:100B000011E098F81C00012801D0012200E0002229
:100B1000E01DB9B280B202F005FB6D1E03D019F8DA
:100B2000016F083463E7BDE8F0870000884F0020BC
:100B300072B6FEE7002200F001B8000030B50E4B9F
:100B4000054601205C7A002C14D1587A1C54587A3E
:100B500003EB800045605D7A03F108002A54587A5F
:100B6000421C5A72303008703A2048702F2088702A
:100B7000CC70002030BD0000A85300200A2805D00A
:100B80000D2805D0034909690968084700F088B8AD
:100B900070470000884F00207CB51E4C0546294652
:100BA0002069806900F038F8002831D04168008859
:100BB000281A01EBC0056968A878CDE90001206911
:100BC0002A78B4F91610037DB4F9140001F03CFF43
:100BD0002169487D097D884212D9227F012A01D0EE
:100BE000012200E000220092A28A2B78E68A1A44B1
:100BF000304483B2701881B292B2A08A02F0E2F956
:100C00002269B4F914006978927D11FB0200A08278
:100C10007CBD0000884F002006E002888A4202D88E
:100C200042888A4202D280680028F6D170470000CC
:100C300070B5094D0446214628698069FFF7ECFF2D
:100C4000002808D041680088201A11F8300029696E
:100C5000897D10FB01F070BD884F002001200880C5
:100C6000704710B58069FFF7D7FF002800D001203A
:100C700010BD10B50021084600F0D6F840238022B0
:100C80000021BDE810400846AFF3008038B50024CD
:100C90009BB292B289B280B2009402F093F938BD4F
:100CA00000B500F0A5F80249CA8A1044C88200BD08
:100CB000884F00202DE9FC47060054D000F098F83A
:100CC000374C8146B4F9148000F098F8E18A074661
:100CD000C81BE0823DE000BF47F6FF71304600F0E0
:100CE00016F982460146304600F0F8F80546A07E27
:100CF00000F0030001283CD0022836D00020A18A51
:100D00006A46081AA082ADF80000691E0844ADF8D2
:100D10000400E08AADF80200A9F101010844ADF831
:100D200006005146304600F0BFF8BDF80200E082F0
:100D30005146304600F0B0F8064430780A281AD000
:100D40000D2818D0BDF800002844A082307818B1D2
:100D5000761C30780028BFD1E08A3844E082608B6E
:100D600020F003006083BDE8FC8705EBD5704010E0
:100D7000C5E72846C3E7A07E00F0030001280BD09A
:100D8000022809D00020A08230780A28DED1E18A2A
:100D900001EB0900E082D9E7A4F81480F4E7000031
:100DA000884F0020024B9982DA82FFF783BF000050
:100DB000884F002070B50646094813460D46B0F925
:100DC0001A0040F0020000F05FF804461A46294677
:100DD0003046FFF7E7FF2046BDE8704000F054B80A
:100DE000884F00200149096949680847884F002059
:100DF00001480069407D7047884F00200949002064
:100E0000897E01F00C020749042A096906D0082AE4
:100E100001D00C2A01D1087D40087047087D401E92
:100E200070470000884F002070B50D4602F056FF55
:100E30000446284602F058FF204370BD0B4910B508
:100E40002E2008700A4800217F2201804180828084
:100E50003F22C2808182C182064901610121417223
:100E6000017702F0E3F9002010BD0000D00000205F
:100E7000884F002074730008024A116900B11061A4
:100E800008467047884F0020024AB2F91A10508372
:100E900008467047884F0020002000E0401C491E93
:100EA000FCD2704702F06AB970B50B4B1268044669
:100EB0009A821214DA820D460BE000BF14F8010B7F
:100EC0007F2804D914F8011B6D1E41EA0020FFF7AA
:100ED00055FE6D1EF2D570BD884F002070B50D46D1
:100EE00004004FF000060CD10FE0641C6D1E7F283B
:100EF00004D914F8011B6D1E41EA0020FFF772FFB0
:100F00000644207808B1002DEFDA304670BD00228B
:100F100008E0401C7F2B02D9401C521C01E00A2B28
:100F200004D0521C03780BB18A42F2DB10467047A2
:100F30002DE9F0410446876D00F0A4FA064694F8C6
:100F400035000025022806D08020606584F83450E2
:100F50000120BDE8F0812068016821F016010160E0
:100F60002068416921F080014161206C08B9A06CC2
:100F700020B12068016821F0080101602068016843
:100F800021F0010101600CE000F07CFA801B0528D3
:100F900007D920206065032084F8350084F8345098
:100FA000D7E720680068C007EED194F85C103F20B6
:100FB0008840B860012084F8350084F8345000205F
:100FC000C7E790F83510022903D080214165012040
:100FD0007047052180F835100068016821F0010193
:100FE00001600020704700002DE9F84304464FF0EF
:100FF0000009CDF8009063484FF41651A56D0068C4
:10100000B0FBF1F72E6894F85C10082000FA01F1AB
:1010100031420FD021680A6852070BD50A6822F0C6
:1010200004020A6094F85C108840A860606D40F08B
:101030000100606594F85C104FF0010808FA01F0B7
:10104000304208D021684969090604D5A860606D5E
:1010500040F00200606594F85C1004208840304243
:1010600008D021680968890704D5A860606D40F040
:101070000400606594F85C1010208840304218D05D
:1010800021680968090714D5A86020680168490328
:1010900004D50068000308D5A16C07E00168C90504
:1010A00003D4016821F008010160216C09B12046D8
:1010B000884794F85C1020208840304231D0216865
:1010C0000968C9062DD5A86094F835000528206860
:1010D000016806D0490347D5006800031DD4616C40
:1010E0001CE021F0160101602068416921F08001B7
:1010F0004161206C08B9A06C20B12068016821F022
:101100000801016094F85C103F208840A86084F8D2
:10111000358084F83490216D1FE0E16B09B12046E1
:101120008847606D00282BD0606DC00714D0052063
:1011300084F835002068016821F001010160009801
:10114000401C0090B84203D820680068C007F6D160
:1011500084F8358084F83490E16C002910D001B017
:101160002046BDE8F04308470168C905D5D40168A9
:1011700021F01001016084F8358084F83490CCE7C8
:10118000BDE8F8834C0000202DE9F041044600F052
:1011900079F906465CB1022084F83500002584F810
:1011A00034502068016821F0010101600DE0012048
:1011B000BDE8F08100F066F9801B052805D92020E4
:1011C0006065032084F83500F2E720680068C007F6
:1011D000F0D12268116820480140D4E90103184386
:1011E000D4E903363343184363691843A3691843AA
:1011F000E3691843236A18430843616A042903D149
:10120000D4E90B1319430843106020684069666AEB
:1012100020F0070130460E43012704280CD1A06AB4
:101220000643E06A40B12046FFF7C4FA20B14020EF
:10123000606584F83570BAE7206846612046FFF79C
:10124000A5FA94F85C203F2191408160656584F89F
:1012500035700020ACE700003F8010F070B5044608
:1012600000F010F90546601C02D0044800780444E0
:1012700000F008F9401BA042FAD370BD40000020E6
:101280002DE9F84FDFF8BCA10022012503264FF01D
:101290000F090AF1040BAAF1040E00BF0B6805FA4E
:1012A00002F42340A34270D10F7907F00307012F06
:1012B00001D0022F16D187684FEA420806FA08FCCF
:1012C00027EA0C07D1F80CC00CFA08FC4CEA070C12
:1012D000C0F808C04768A7430C79C4F300149440D1
:1012E0003C4344600C79E443A4070AD0C4684FEA45
:1012F000420C06FA0CF7BC438F6807FA0CF7274339
:10130000C7600C7904F00304022C12D1D40800EB5E
:10131000840CDCF820405707FF0E09FA07F824EA8E
:101320000804D1F8108008FA07F848EA0408CCF855
:10133000208004684FEA420C06FA0CF7BC430F7990
:1013400007F0030707FA0CF7274307604C6814F40B
:10135000403F70D03C4C276847F4804727602468A2
:1013600022F0030704F480440094384C07EB040C8B
:10137000DCF8084897074FEA177809FA08F7BC43E2
:10138000334FB84202D1002724E054E0314FB84235
:1013900001D101271EE0304FB84201D1022719E0E8
:1013A0002E4FB84201D1032714E02D4FB84201D18E
:1013B00004270FE02B4FB84201D105270AE02A4F3E
:1013C000B84201D1062705E0284FB84201D10727CE
:1013D00000E0082707FA08F72743CCF80878DAF87E
:1013E00000405746D1F804C09C435FEACC2C00D59E
:1013F0001C433C60DBF800405F46D1F804C09C43CE
:101400005FEA8C2C00D51C433C60DEF80040774638
:10141000D1F804C09C435FEA8C3C00D51C433C607F
:10142000084F083F3C68D1F804C09C435FEACC3CBD
:1014300000D51C433C60521C102AFFF42FAFBDE8BE
:10144000F88F0000083C0140443802400030014061
:10145000000002400004024000080240000C02406C
:10146000001002400014024000180240001C02401C
:101470000069084000D0012070470AB181617047BF
:101480000904FBE701488068704700004000002025
:101490000248816802781144816070474000002052
:1014A0000B4810B5016841F400710160016841F416
:1014B00080610160016841F480710160032000F0E7
:1014C0009FF80F2000F006F800F050F8002010BD43
:1014D000003C024030B505461F4887B00024016833
:1014E00041F020010160006806A900F02000009092
:1014F00001A800F0CFF90498A8B100F0EBF9400082
:101500001649174AB0FBF1F11648491E026040F235
:10151000E732C0E90324C0E90114846100F0C0FE91
:10152000040003D015E000F0D5F9E9E70D4800F01C
:10153000E5FE04000DD1372000F034F8102D07D25D
:1015400000222946372000F03BF80748056000E0FC
:10155000012407B0204630BD4038024040420F0011
:10156000001400406C060020440000200C4882B0AB
:10157000016841F480410160006800F480400090FF
:101580000748001F016841F0805101600068002297
:1015900000F0805000900F21901E02B000F010B8B3
:1015A00044380240002809DB00F01F02012191406D
:1015B0004009800000F1E020C0F8001170470000F1
:1015C000F0B40E4B1B680C46C3F30223C3F10705AE
:1015D000042D00D90425191D072901D2002300E09C
:1015E000DB1E012606FA05F1491E214099409E4066
:1015F000761E16403143F0BC02F08CBB0CED00E0CF
:10160000064900F0070208684FF6FF03184040EA59
:101610000220034A10430860704700000CED00E010
:101620000000FA052DE9F843054600684FF001096E
:10163000C1074FF0000601D1400727D5DFF80C8124
:10164000C8F86860FFF71EFF0746414C05E000BF81
:10165000FFF718FFC01B022857D820680001F7D4F5
:1016600068688101287A41EA00703949843108604C
:10167000C8F86890FFF706FF074604E0FFF702FF8F
:10168000C01B022841D820680001F7D528788007C0
:1016900052D52F484030016841F080510160006808
:1016A0002C4C00F080500090206840F48070206046
:1016B000FFF7E8FE074604E0FFF7E4FEC01B022840
:1016C00023D82068C005F7D5214C7034206810F469
:1016D000407020D0A98901F4407181421BD020685C
:1016E0001D4920F44070C1F800900E602060206811
:1016F000C00710D0FFF7C6FE064641F2883707E064
:10170000FFF7C0FE801BB84202D90320BDE8F88372
:1017100020688007F4D5E9680D48C1F3012208303C
:10172000032A0BD0016821F4F81101602068A9890F
:10173000C1F30B01084320600020E7E70268074B74
:1017400022F4F81219400A430260EFE70000474212
:101750000038024000700040400E4742FFFCFF0F7F
:101760002DE9F0470E46050065D0DFF81481D8F862
:101770000000F7B200F00700B04207D288F800700E
:10178000D8F8000000F00700B04254D128683D4C62
:10179000810712D5400703D5206840F4E05020604F
:1017A0002878000703D5206840F460402060206856
:1017B000A96820F0F000084320602878C0072DD0E9
:1017C000304968680839012812D0022813D003284C
:1017D00011D00968890700292DDA216821F0030159
:1017E00001432160FFF74EFE814641F2883A0EE048
:1017F00009688903EFE709688901ECE7FFF742FE12
:10180000A0EB0901514502D90320BDE8F08720680B
:10181000696800F00C00B0EB810FEFD1D8F8001030
:10182000404601F00701B14207D90770006800F097
:101830000700B04201D00120E7E72878400705D52E
:101840002068E96820F4E050084320602878000709
:1018500006D52068296920F4604040EAC100206074
:1018600000F058F82168084AC1F30311515CC840E0
:101870000649086006480068FFF72CFE0020C4E710
:10188000003C024008380240606D00084C00002017
:10189000440000200F2202600C4A136803F0030387
:1018A0004360136803F0F0038360136803F4E053AC
:1018B000C36012684FF4E05303EAD20202610448A5
:1018C000006800F007000860704700000838024018
:1018D000003C02400448054900680968044AC1F315
:1018E0008221515CC84070474C00002008380240FB
:1018F000706D00080448054900680968044AC1F38E
:101900004231515CC84070474C000020083802400A
:10191000706D0008154810B5006810F00C021448EE
:1019200013D04110042A0FD0082A0ED10F4C241FC7
:101930002268236802F03F025B0207D52068C0F3EB
:101940008810A0FB010106E0084610BD2168C1F324
:101950008811A1FB00010023FEF792FC2168C1F36E
:101960000141491C4900B0FBF1F010BD08380240AC
:101970000024F4002DE9F84F04006ED02078DFF841
:101980004C93C007A9F104054AD009F1040001688D
:10199000C1F38101012908D00068C0F38100022849
:1019A0000AD1D9F80000400206D52868800337D54F
:1019B00060680028E1D033E06068B0F5803F10D067
:1019C000B0F5A02F286810D020F480302860286857
:1019D00020F4802028606068A8B1FFF753FD064618
:1019E0000DE0286840F48030F4E740F4802028605F
:1019F000F7E700BFFFF746FD801B642873D828680F
:101A00008003F7D50CE0FFF73DFD064605E000BF7B
:101A1000FFF738FD801B6428F0D828688003F7D4CE
:101A20002078DFF8AC8280074FF0000A3ED5A74847
:101A3000001D016811F00C0F08D00068C0F3810090
:101A400002280BD1D9F80000400207D4286880078B
:101A500016D5E068012800D112E033E1E068B8B1A2
:101A60000120C8F80000FFF70DFD064605E000BFA5
:101A7000FFF708FD801B0228C0D828688007F7D52B
:101A80002868216920F0F80040EAC10028600DE0D4
:101A9000C8F800A0FFF7F6FC064604E0FFF7F2FCEA
:101AA000801B02281FD828688007F7D420780007F9
:101AB00022D5864F87486169703771B10121016075
:101AC000FFF7E0FC064604E0FFF7DCFC801B022881
:101AD00009D838688007F7D50EE0C0F800A0FFF7F6
:101AE000D1FC064605E082E0FFF7CCFC801B022813
:101AF0007DD838688007F7D42078400768D5DFF8AC
:101B0000CCB100270BF13C0BDBF80000C0000BD47C
:101B1000DBF8001041F08051CBF80010DBF800003A
:101B2000012700F0805000906B4E3068C00510D443
:101B3000306840F480703060FFF7A4FC009005E04E
:101B4000FFF7A0FC0099401A022850D83068C00561
:101B5000F6D55E4EA0686C3601280FD00528306897
:101B600010D020F001003060306820F004003060B8
:101B7000A068B8B1FFF786FC00900FE0306840F035
:101B80000100F4E740F004003060F7E7FFF77AFC6B
:101B90000099411A41F28830814266D83068800746
:101BA000F4D50EE0FFF76EFC009007E0FFF76AFC4B
:101BB0000099411A41F28830814256D83068800736
:101BC000F4D42FB1DBF8001021F08051CBF80010D5
:101BD000A069C8B33D49091D0968C1F38101022903
:101BE0004AD00228504607D0C8F8600000E03CE028
:101BF000FFF748FC04463BE04746C8F86000FFF7A3
:101C000041FC064605E000BFFFF73CFC801B0228B4
:101C10002BD828688001F7D4D4E907010843A16ACA
:101C20002E4A490802EB0141626A41EA82110843E7
:101C300094F82C1040EA0161C9F8001001203866C0
:101C4000FFF720FC044606E03EE000BFFFF71AFC69
:101C5000001B022809D828688001F7D534E000BFAE
:101C6000FFF710FC001B022802D90320BDE8F88F03
:101C700028688001F4D427E00128F7D0D9F80000C3
:101C8000E26900F4800191421CD1226A00F03F0118
:101C9000914217D147F6C071626A0140B1EB821FD1
:101CA00010D1A26A4FF0FF3300F4403103EB52022F
:101CB000B1EB024F06D194F82C1000F07060B0EB3D
:101CC000016F01D00120D1E70020CFE704380240A6
:101CD00000004742800E4742007000400000FFFFB6
:101CE000704700002DE9F84389463D494FF4FA4C0E
:101CF0004FF47A730F68B7FBFCF159430091017FF1
:101D0000012965D001250577022141770368CA21A1
:101D1000596203685321596201688B684FF0FF04D0
:101D20005FEA43584FF000034FF003060CD500BFA5
:101D3000DDF80080B8F10108CDF800804AD0D1F874
:101D40000C805FEA4878F3D4D1F8088028F48068E2
:101D5000C1F808800168D1F80C8008F0800868F4A8
:101D60009068C1F80C80B7FBFCF14FF47A777943A7
:101D700000910168009F7F1E00972BD0CF687F07DE
:101D8000F8D58E6826F007068E6001688E681643C7
:101D90008E600268C2F8149012490A6842F4800208
:101DA0000A60104908310A6842F480020A6001683A
:101DB0008A6842F480428A6001688A6842F48062DC
:101DC0008A6001684C62457703770020BDE8F8839C
:101DD0000220FBE74C62467703770320F6E700001A
:101DE0004C000020003C01407047000010B50A493B
:101DF00004464FF4800008602068C168490508D592
:101E0000C16801F0800161F49061C1602046FFF774
:101E1000EBFF0120607710BD143C014070470000CB
:101E200010B5144904464FF40030086020688168FA
:101E3000C9040BD5C168C90508D5C16801F0800186
:101E400061F4C071C1602046FFF7E8FF2068816837
:101E500089040BD5C168890508D5C16801F08001E6
:101E600061F42071C1602046FFF73AFF01206077DE
:101E700010BD0000143C014010B5040002D0607F8A
:101E800010B106E0012010BD00202077204600F0B0
:101E900041F8022060772068C168C943C90632D57D
:101EA000CA214162216853204862204601F04AF865
:101EB00020BB20688168164A1140816021688868CB
:101EC00062681043D4E904231A43104388602168F0
:101ED000E068086120680169228941EA02410161E4
:101EE000204601F053F848B921680A6C22F4802298
:101EF0000A6421680A6CA3691A430A642268FF21F4
:101F0000516208B110BD00200121617710BD0000B1
:101F1000BFFF8FFF1FB50021009101910291039136
:101F20000068104988421CD10220009000020390F2
:101F30006846FFF777FB08B1FEF7FAFD0A49012072
:101F40000860002205210320FFF73AFB0320FFF77A
:101F500029FB002205212920FFF732FB2920FFF76A
:101F600021FB1FBD002800403C0E47422DE9F843ED
:101F7000644E03464FF4FA4730680C46B0FBF7F066
:101F8000791148430090187F012877D04FF001095C
:101F900083F81C900220587718680025002A806872
:101FA0004FEA40606CD0002800DBE570A078227812
:101FB00094F803C040EA02406278E169120242EA02
:101FC0008C52104394F8202040EA02600843616973
:101FD000A26908436168D3F800C01143CA22CCF853
:101FE0002420D3F800C05322CCF82420626AFF24B6
:101FF000B2F5807F1A684FF0030C5CD0D2F80880ED
:1020000028F40078C2F808801A68D2F80C8008F02A
:10201000800868F42078C2F80C8032684FF47A7631
:10202000B2FBF7F2724300921A68009E761E009689
:1020300061D0D668B607F8D5106218688164186850
:10204000816841F4007181601868816841F4005131
:1020500081602D48016841F4003101602A48083050
:10206000016841F4003101601868446283F81D90F2
:102070001D770020BDE8F88300E001E00220F9E7C9
:10208000002800DBE570207800F050FF0204607843
:1020900000F04CFF42EA0022A07800F047FF024324
:1020A000E07842EA805294F8200000F03FFF42EAD4
:1020B0000060E1698AE7966826F4807696601A687F
:1020C000D66806F0800666F4C076D6601A68009E70
:1020D000761E00960FD0D668F607F8D0D061186843
:1020E00041641868816841F4807181601868816872
:1020F00041F48051ACE7546283F81DC01D77032082
:10210000B8E700004C000020003C014070B50446D8
:10211000007F0B46012819D0012626770220607720
:10212000B2B19878D97840EA014558781978000218
:1021300040EA413005432168CA20486221685320A3
:102140004862204600F0FEFED0B122E0022070BDC1
:102150005878C10603D500F0EF000A305870D878DF
:1021600000F0E4FE0204587800F0E0FE42EA0022AB
:10217000987800F0DBFE0243187842EA4035DAE74F
:102180000748054020684560204600F0FFFE00B982
:1021900066772268FF2151620021217770BD00001F
:1021A0003FFFFF002DE9F0410446007F0D46012866
:1021B00023D04FF0010884F81C800220607720684B
:1021C000002780684FEA4060D2B1002800DBEF7042
:1021D000A878297840EA01466878E978000240EA60
:1021E000815006432168CA20486221685320486212
:1021F000204600F0A7FEB8B12CE00220BDE8F08137
:10220000002800DBEF70287800F090FE0204687868
:1022100000F08CFE42EA0022A87800F087FE02431C
:10222000E87842EA8056DDE70D48064020680660FF
:102230002068816821F480218160D5E90301084389
:1022400021688A6810438860204600F09FFE08B924
:1022500084F81D802268FF2151622777CEE70000B5
:102260007F7F7F0070B504460B482168C860FFF788
:1022700009F905464FF47A7607E000BFFFF702F947
:10228000401BB04201D9032070BD2068C0688006A1
:10229000F4D5002070BD00005F7F010070477047DB
:1022A00010B5040003D094F83D0010B107E0012000
:1022B00010BD002084F83C00204600F01EF80220EB
:1022C00084F83D00211D206801F06EFA012084F899
:1022D000460084F83E0084F83F0084F8400084F80B
:1022E000410084F8420084F8430084F8440084F8F4
:1022F000450084F83D00002010BD704790F83D1067
:10230000012901D001207047022180F83D100168A9
:10231000CA6842F00102CA6000681149884214D0BC
:10232000B0F1804F11D00F4988420ED00E4988423B
:102330000BD00E49884208D00D49884205D00D497E
:10234000884202D00C49884204D1816801F007011B
:10235000062903D0016841F00101016000207047A7
:10236000000001400004004000080040000C004054
:1023700000040140004001400018004070472DE972
:10238000F04104460068C66805694FF00007A907D8
:1023900013D5B10711D5F91E0161012020772068FE
:1023A00080698007204602D0FFF7E8FF04E000F0D4
:1023B0007EF8204600F07CF82777680716D570076E
:1023C00014D521686FF0040008610220207720688E
:1023D000806910F4407F204602D0FFF7CFFF04E071
:1023E00000F065F8204600F063F82777280715D538
:1023F000300713D521686FF00800086104202077AA
:102400002068C0698007204602D0FFF7B7FF04E0CC
:1024100000F04DF8204600F04BF82777E80616D577
:10242000F00614D521686FF01000086108202077AD
:102430002068C06910F4407F204602D0FFF79EFF5D
:1024400004E000F034F8204600F032F82777E8077F
:1024500008D0F00706D021686FF00100086120461F
:1024600000F028F8280608D5300606D521686FF058
:10247000800008612046FFF711FF680608D5700646
:1024800006D521686FF040000861204600F01CF876
:10249000A8060AD5B00608D521686FF020000861AB
:1024A0002046BDE8F041FFF7FABEBDE8F081704775
:1024B0007047000000680349884201D1FEF7E8BF79
:1024C0007047000000140040704718B5034690F8AC
:1024D0004200202801D0022018BD61B15AB101206C
:1024E000186300205863184601F0E0FA0028F3D181
:1024F000196B012901D0012018BD19680A684968C3
:10250000009119680C3151E8002F42F0100241E8A7
:102510000024002CF5D118BD2DE9F04105461648E0
:102520000024164F0E464FF4007885420ED1144811
:102530000023014684551A46786B01F0BBFD85F8EF
:10254000404042460E490C48FFF7BFFF0D48854208
:1025500010D10D480023014684551A46B86B01F08E
:10256000A9FD85F840404246BDE8F04106490548CE
:10257000FFF7ABBFBDE8F0811C0500200000002084
:10258000FC00002064050020FC02002070470000D1
:10259000F8B5016804460868CA684B6910F00F0F67
:1025A0004FF000055AD003F0010602F4907737434C
:1025B00065D0C10705D0D10503D5616C41F001019B
:1025C0006164410705D5D90703D0616C41F0020170
:1025D0006164810705D5D90703D0616C41F004011E
:1025E0006164010707D502F02001314303D0616C1B
:1025F00041F008016164616C00293BD0800604D57C
:10260000900602D5204601F06AF920684069616CA5
:10261000C0F3801001F00801014320462BD001F0E7
:1026200037F920684069400621D52068143050E809
:10263000001F21F0400140E80012002AF5D1E06BB4
:10264000A8B16E490165E06BFEF7BBFC002811D014
:10265000E06B016D01B0BDE8F040084783060ED580
:1026600093060CD52046BDE8F84001F038B9204665
:10267000FFF78CFFF8BDFFF789FF6564F8BD266B97
:102680002023012E7DD1C6067BD5D60679D50868D4
:102690004868009048694FF00206400641D5E16B5A
:1026A000086840680004000CE8D0A28D8242E5D999
:1026B000E085C869B0F5807F2DD020680C3050E8E7
:1026C000001F21F4807140E80012002AF5D1216832
:1026D000143151E8000F20F0010041E80002002A07
:1026E000F5D12068143050E8001F21F0400140E887
:1026F0000012002AF5D184F84230256320680C309E
:1027000050E8001F21F0100140E80012002AF5D126
:10271000E06BFEF70DFC6663A08DE18D401A81B27F
:102720002AE0A08DE18D401A81B2E08D0028A5D06D
:102730000029A3D022680C3252E8000F20F49070D8
:1027400042E80007002FF5D12068143050E8002F30
:1027500022F0010240E80027002FF5D184F8423032
:10276000256320680C3050E8002F22F0100240E86A
:102770000023002BF5D166632046FFF7CDFEF8BDA0
:10278000FFE705062BD5150629D594F84100212829
:10279000F5D1A068B0F5805F01D12069B0B1206AA1
:1027A000411C2162216800784860E08C401E0004D2
:1027B000000CE084E3D12068C16821F08001C16091
:1027C0002068C16841F04001C160D8E7206A0088F4
:1027D000C0F308004860206A801C2062E5E74006DC
:1027E000CDD55006CBD5CA68204622F04002CA603B
:1027F00084F8413000F01FF9C1E70000813800087B
:1028000070B5040004D094F84100002510B106E032
:10281000012070BD84F84050204600F023F82420A9
:1028200084F841002068C16821F40051C16020464D
:1028300001F0B6F82068016921F490410161206837
:10284000416921F02A0141612068C16841F40051C9
:10285000C1606564202084F8410084F8420065630B
:10286000002070BD2DE9F04186B00646142168466F
:10287000FDF750FD4148404F356840491438022269
:1028800003230024BD4220D10D6845F010050D60E2
:10289000096801F010010591016841F00101016032
:1028A0000068694600F00100059058028DE81500A7
:1028B0000720CDE903303248FEF7E2FC0022052173
:1028C0002520FEF77DFE252051E02E4FBD4250D140
:1028D0000D6845F020050D60096801F020010591A3
:1028E000016841F0040101600068694600F00400DD
:1028F0000590C0208DE815000820CDE9033022485E
:10290000FEF7BEFC224D21484FF480688705286001
:10291000C5E90174C5E903486C61AC61EC612C62E6
:1029200028466C62FEF730FC08B1FEF701F9F5634A
:10293000AE63174D154860357830E5E80207402052
:10294000A5E81101124845F814496030AC61EC610A
:102950002C626C62FEF718FC08B1FEF7E9F8B5636B
:10296000002205214720AE63FEF72AFE4720FEF72E
:1029700019FE06B0BDE8F081001001404438024065
:102980000000024000140140000802402864024098
:10299000AC05002070472DE9F843044690F841004B
:1029A000984616460D46202802D00220BDE8F8833E
:1029B00085B17EB100206064212084F84100FEF7DB
:1029C00061FDA6848146E684A0682027B0F5805F7B
:1029D00002D003E00120E9E7206910B12E4600256E
:1029E0000EE000260CE08021204601F07AF8A8B91C
:1029F000C6B116F8010B21684860E08C401EE084E7
:102A0000E08C4B464FF00002CDF800800028EAD160
:102A10004FF04001204601F064F840B184F8417065
:102A20000320C3E735F8020BC0F30800E3E784F89E
:102A300041700020BAE77047FEE708B50A20009011
:102A4000401E0090FCD108BD2DE9FE43DFF87C90CC
:102A5000DDE90A65B9F90280871801EB030C7F1ED6
:102A6000A8EB0104ACF1010C002C05DD1B1B002BB5
:102A70002ADD04FB06554146B9F906804C46ACEB0D
:102A8000080CBCF1000F03DDA3EB0C03002B1BDDD6
:102A9000B4F904C0A7EB0C07002F00DDD21BB9F975
:102AA00000400027844208DD241A24F00707384438
:102AB000121B05EBE40504F00707002A04DDCDE94D
:102AC0000065029700F004F8BDE8FE83884F0020FF
:102AD0002DE9F84F1E46DDE90A95174688468346DC
:102AE0000024DDF830A009E004EB080153462A4633
:102AF00058460097FDF768FF4D44641CB442F3DB71
:102B0000BDE8F88F0D4808B5016841F48001016007
:102B10000068002200F48000009005213920FEF7B3
:102B20004FFD3920FEF73EFD002205214520FEF72E
:102B300047FDBDE808404520FEF734BD303802406F
:102B400010B504490448FDF7F5FF0249491E087015
:102B500010BD0000F1000020DC00002070B5012154
:102B60004D021F4A284601F079FA1E4C1C4A0121E9
:102B700060631832284601F071FA194AA063FC3AE2
:102B80000021194801F004FB154AA061D83A002140
:102B9000164801F0FDFA124AE061B43A00211448E7
:102BA00001F0F6FA0E4A2062903A0021114801F035
:102BB000EFFA0B4A60626C3A00210F4801F0E8FA24
:102BC000074AA062483A00210C4801F0E1FA044AA1
:102BD000E062243A00210A4801F0DAFA206370BD6D
:102BE000286D000800000020B9340008C93400082E
:102BF00019350008CD350008D1360008C134000869
:102C00009D3500082DE9F04186B014216846FDF796
:102C100081FB2F480024016841F010010160016828
:102C200001F010010591016841F0040101600168A3
:102C300001F004010591016841F080010160016823
:102C400001F080010591016841F001010160016816
:102C500001F001010591016841F002010160006885
:102C60001C4F00F002004FF601760590002231461D
:102C70003846FEF702FCDFF860800022C0214046A3
:102C8000FEF7FBFB1E2001258DE831006946384622
:102C9000FEF7F6FA6020CDE90004022002906946B2
:102CA0003846FEF7EDFA0096CDE9015469463846FC
:102CB0000394FEF7E5FAC0200090CDE9015469467F
:102CC00040460394FEF7DCFA06B0BDE8F081000050
:102CD00030380240001002400004024030B591B08C
:102CE00014210AA8FDF716FB0024282168460F943A
:102CF000FDF710FB2B482A49C0E900147F218160B1
:102D0000FF21C0E9031444618461FFF7B5F808B1FD
:102D1000FDF70EFF8DF828408DF829408DF82A40E8
:102D20000D9401220AA91F480E94FFF73BFA08B13F
:102D3000FDF7FEFE01258DF83C508DF83D508DF8D5
:102D40003E508DF83F402A460FA91648FFF7DEF99E
:102D500008B1FDF7EDFE8DF800408DF801400494B8
:102D60004FF480708DF8024001940394099005940B
:102D7000069407948DF82050012269460948FFF710
:102D8000F5F808B1FDF7D4FE002211460548FEF71C
:102D9000A9FF002801D0FDF7CBFE11B030BD000027
:102DA00000280040FC0400200C4810B50A490160CE
:102DB0004FF4E1314160002181600C22C160C0E923
:102DC00004128161C161FFF71BFD002803D0BDE83B
:102DD0001040FDF7ADBE10BD001001401C050020E5
:102DE0000C4810B50A4901604FF4E13141600021FF
:102DF00081600C22C160C0E904128161C161FFF7EA
:102E0000FFFC002803D0BDE81040FDF791BE10BDC7
:102E10000014014064050020FEE7FEE710B50B4CEE
:102E2000012280212046FEF728FBFFF706FE012243
:102E300040212046FEF721FBFFF7FFFD2046002240
:102E4000BDE810404021FEF718BB0000000402401E
:102E500070B5144E0546002240213046FEF70DFBAA
:102E60000024280601D5012200E0002280213046FE
:102E7000FEF703FB6806050EFFF7DFFD0122402188
:102E80003046FEF7FAFAFFF7D8FD0022402130461F
:102E9000FEF7F3FAFFF7D1FD641CE4B2082CE0D38F
:102EA00070BD00000004024010B50D4C01228021CD
:102EB0002046FEF7E2FA012240212046FEF7DDFA25
:102EC000FFF7BBFD002280212046FEF7D6FAFFF770
:102ED000B4FD20460022BDE810404021FEF7CDBAE7
:102EE0000004024010B50D4C002240212046FEF7A0
:102EF000C4FA002280212046FEF7BFFAFFF79DFDAD
:102F0000012240212046FEF7B8FA01228021204606
:102F1000FEF7B3FABDE81040FFF78FBD0004024092
:102F20000148FEF77DBF0000FC040020002102E004
:102F30000A38C0B2491C0A28FAD2090740EA1160CF
:102F4000704700002DE9F041044600680025C16883
:102F5000490618D4C16841F08001C160FEF792FAB9
:102F600006464FF47A78042707E000BFFEF78AFA96
:102F7000801B404501D9677701252068C06840065D
:102F800001D4002DF2D02846BDE8F08170B504468A
:102F900000680025C16821F08001C1602068806858
:102FA000800606D42046FFF75DF910B10420607753
:102FB0000125284670BD00000148FEF717BF00003C
:102FC000FC0400202DE9F8431F46DDF820900D4653
:102FD000064680281FD2402D1DD2B018802802D36B
:102FE000C6F1800082B2E819402802D3C5F1400042
:102FF00087B2002406EB02080BE0281983B281B2E5
:103000001FFA88F23046CDF8009000F006F8641CF4
:10301000E4B2BC42F1D9BDE8F8832DE9FC4F1D466E
:1030200014460E460746802800D37F27802C00D305
:103030007F24402E00D33F26402D00D33F25A742BA
:1030400001D2E01B00E0381B0FFA80F9AE4201D23A
:10305000A81B00E0701B0FFA80FA4FF0FF30A74268
:1030600001D2012100E001460191AE4200D20120CF
:1030700083464846D14501DCCAF1000000EBD07020
:1030800040F34F08B9F1000F23D0BAF1000F35D04B
:10309000C9F100000090314638460B9A00F042F822
:1030A000A74201D1AE4227D000994046884506DDAF
:1030B000A8EB0A010FFA81F8019939448FB2504503
:1030C000E9DA08EB09000FFA80F806EB0B0086B28C
:1030D000E1E7B54202D22846354686B2BC4200D26C
:1030E000A7B234B206E0A1B238460B9A00F01AF843
:1030F000641C24B2AC42F6DDBDE8FC8FB54200D2C0
:10310000AEB2BC4202D220463C4687B23DB206E097
:10311000A8B231460B9A00F005F86D1C2DB2A542FD
:10312000F6DDE9E770B5802813D2402911D20B4BA8
:10313000012401F007051E79AC40094BC90800EBDA
:10314000C1100EB132B101E0012A03D0195CA143D4
:10315000195470BD195C2143FAE70000D200002029
:10316000A84F002028B1FF224FF480610248FDF7EC
:10317000CAB80022F8E70000A84F002070B50E4D35
:10318000002400BF04F1B000C0B2002100F016F826
:103190000021084600F012F80021102000F00EF87F
:1031A00005EBC4104022802100F020F8641CE4B23A
:1031B000082CE7D370BD0000A84F002070B50D4665
:1031C0000446FFF771FE7820FFF742FEFFF726FE68
:1031D0002846FFF73DFEFFF721FE2046FFF738FEA9
:1031E000FFF71CFEBDE87040FFF77CBE70B51446CB
:1031F0000D460646FFF758FE7820FFF729FEFFF739
:103200000DFE2046FFF724FEFFF708FE002406E02F
:10321000305DFFF71DFEFFF701FE641CA4B2AC4257
:10322000F6D3BDE87040FFF75DBE000010B5642026
:10323000FEF714F80021AE20FFF7C0FF0021202088
:10324000FFF7BCFF00211020FFF7B8FF0021B020DE
:10325000FFF7B4FF0021C820FFF7B0FF00210846A8
:10326000FFF7ACFF00211020FFF7A8FF002140204E
:10327000FFF7A4FF00218120FFF7A0FF0021FF201E
:10328000FFF79CFF0021A020FFF798FF0021C0203E
:10329000FFF794FF0021A620FFF790FF0021A82050
:1032A000FFF78CFF00213F20FFF788FF0021A420BB
:1032B000FFF784FF0021D320FFF780FF002108469D
:1032C000FFF77CFF0021D520FFF778FF0021F020D9
:1032D000FFF774FF0021D920FFF770FF00212220A3
:1032E000FFF76CFF0021DA20FFF768FF00211220B2
:1032F000FFF764FF0021DB20FFF760FF00212020A3
:10330000FFF75CFF00218D20FFF758FF00211420FC
:10331000FFF754FF0021AF20FFF750FF0020FFF719
:1033200021FFFFF72BFF034800210180418001218D
:10333000417110BDD200002070B5324E0024022130
:103340003046FEF795F800B9022404213046FEF716
:103350008FF808B944F0040408213046FEF788F8D5
:1033600008B944F0080410213046FEF781F808B986
:1033700044F0100420213046FEF77AF8012801D1EC
:1033800044F0200440213046FEF772F8012801D1B4
:1033900044F04004002C31D00A2000F0EBFD002561
:1033A00002213046FEF764F800B9022504213046B8
:1033B000FEF75EF808B945F0040508213046FEF72F
:1033C00057F808B945F0080510213046FEF750F8C7
:1033D00008B945F0100520213046FEF749F80128CC
:1033E00001D145F0200540213046FEF741F8012883
:1033F00001D145F04005AC4201D1204670BD00200E
:1034000070BD00000010024070B50446294D000652
:103410004FF4807101D5002200E001222846FEF71A
:103420002CF860064FF4007101D5002200E0012263
:103430002846FEF722F8A0064FF4806101D500224D
:1034400000E001222846FEF718F8E0064FF400617C
:1034500001D5002200E001222846FEF70EF82007E1
:103460004FF4805101D5002200E001222846FEF7EA
:1034700004F860074FF4005101D5002200E001225A
:103480002846FDF7FAFFA0074FF4804101D500223E
:1034900000E001222846FDF7F0FFE0074FF400416D
:1034A00001D0002200E001222846BDE87040FDF76F
:1034B000E4BF000000100240012000F05BFDFBE7CC
:1034C000012000F057FDFBE7FDF7B8FC1048FDF7C1
:1034D000D3FC104C2078072816D2DFE800F0040750
:1034E000150A0D10130000F0B5FB0DE000F032FBE3
:1034F0000AE000F06DFB07E000F08AFB04E000F05A
:1035000099FB01E000F074FB0A2000F033FDE1E7D5
:103510000C6C00080000002004261F4CFFF70CFF75
:10352000050007D0FFF708FF0028FBD12946A06956
:1035300000F0F4FD102D13D006DC022D07D0042D71
:1035400026D0082D24D107E0202D21D10EE02078AF
:1035500003281DD1052007E0207803280DD017E0AF
:103560002078032814D10620207011E0207820B1A3
:10357000012802D0042802D00AE0267008E0607812
:1035800010B1012802D003E0012000E000206070AB
:10359000012000F0EFFCC1E700000020002400F053
:1035A0005FFC094D00F0F3FCA04209D300F57A74EA
:1035B00000F084FC00EE100AB8EEC00A85ED050AA2
:1035C000012000F0D7FCEDE700000020ADF5007D04
:1035D0004FF4007422462C492C48FEF776FF224611
:1035E0002B492C48FEF771FF2B4D0A230022694618
:1035F000686B00F001FD68B9694628A000F07AFB0D
:103600006846FCF7A4FE82B24FF6FF736946214874
:10361000FFF7C1F90A2300226946A86B00F0ECFC11
:1036200068BB694620A000F065FB6C4621A12046DE
:10363000FCF77BFEA04203D92046FCF78FFE6860B2
:103640001EA12046FCF771FEA04202D94FF0FF30C8
:1036500068601CA12046FCF768FEA04204D9401D0A
:10366000017809B1401CFBE718A12046FCF75DFE7C
:10367000A04204D3801F017809B1401CFBE7012060
:1036800000F078FCB1E70000FC0000201C050020E1
:10369000FC02002064050020000000205541525427
:1036A000313A25730000000055415254363A2573D3
:1036B00000000000434F4E4E45435400434C4F53CF
:1036C00045440000446973703A000000474D5400BF
:1036D000012000F04FFCFBE710B54FF0E02000693F
:1036E00002F0A8F8012803D0BDE8104001F076BC34
:1036F00010BD000030B593B030216846FCF70AFEDB
:1037000014210CA8FCF706FE1E480025016841F0B4
:1037100080510160006800F0805011901A480168E3
:1037200041F4804101600068022400F4804011905F
:10373000092000904FF4803001900120CDE905046C
:103740008005079008AA0420A82182E813000B90A6
:103750006846FEF70FF908B172B6FEE70CA90F2014
:1037600081E831004FF4A0500F904FF4805010903A
:1037700005210CA8FDF7F4FF002801D072B6FEE782
:1037800013B030BD4038024000700040024801686C
:1037900041F470010160704788ED00E00148FEF7D8
:1037A000EEBD00006C060020F0B50268294C2A4DE1
:1037B0002A4E2B4F2B4B4FF0804CA04209D0604536
:1037C00007D0A84205D0B04203D0B84201D09842F9
:1037D00004D122F0700E4A6842EA0E02A0421BD0C9
:1037E000604519D0A84217D0B04215D0B84213D0C6
:1037F000984211D01C4DA8420ED01C4DA8420BD0AF
:103800001B4DA84208D01B4DA84205D01A4DA84216
:1038100002D01A4DA84203D122F44075CA682A4347
:103820004D6922F080022A4302608A68C2620A68F7
:103830008262A04201D0984201D10969016301214D
:1038400041610169C90703D0016921F001010161EA
:10385000F0BD0000000001400004004000080040EE
:10386000000C0040000401400040014000440140C1
:103870000048014000180040001C004000200040AB
:1038800010B5806B0021C185C184FEF77FFE10BD9D
:1038900001680C3151E8002F22F4907241E80023B6
:1038A000002BF5D10168143151E8002F22F00102FC
:1038B00041E80023002BF5D1016B012909D10168F2
:1038C0000C3151E8002F22F0100241E80023002BB8
:1038D000F5D1202180F8421000210163704708B51E
:1038E00090F84210222901D0022008BD82684FF4CE
:1038F00080539A4201D1016921B1816A9A421BD059
:103900004AB10AE00268816A5268C2F308020A807A
:10391000816A891C08E0026972B10268526802F08B
:103920007F020A70816A491C8162C18D491E0904A7
:10393000090CC18503D01BE002685268F1E70168F9
:10394000CA6822F02002CA600168CA6822F4807244
:10395000CA6001684A6922F001024A61202180F8A8
:10396000421000214163026B012A03D0FFF712F8D5
:10397000002008BD016301680C3151E8002F22F0DE
:10398000100241E80023002BF5D101680A68D20635
:1039900002D50A6849680091818DFEF7BDFDE7E711
:1039A00070B5044600680169E26821F44051114392
:1039B00001612169A068E269084361691143084314
:1039C0002168CA6849F20C639A430243CA602068BE
:1039D0004169A26921F44071114341613149206874
:1039E000884202D03049884202D1FDF783FF01E0CE
:1039F000FDF770FFE2690023192164253226B2F534
:103A0000004F626828D0A0FB0101930F9200FCF7E1
:103A100037FC0146B0FBF5F06FF01802504301EBA4
:103A2000800006EB0010B0FBF5F000F0F002B1FBF7
:103A3000F5F002EB0012B1FBF5F06FF018035843FC
:103A400001EB800006EB0010B0FBF5F000F00F007A
:103A500021681044886070BDA0FB010192185B4191
:103A6000FCF70EFC0146B0FBF5F00201B1FBF5F0EE
:103A70006FF01803584301EB800006EBC000B0FB69
:103A8000F5F000F0F80002EB4002B1FBF5F058430E
:103A900001EB800006EBC000B0FBF5F000F0070082
:103AA000D6E70000001001400014014081628285C9
:103AB000C28500214164222180F84210016921B1B0
:103AC0000168CA6842F48072CA6001684A6942F0BB
:103AD00001024A610068C16841F02001C160002014
:103AE00070472DE9F843984617460D460446089E50
:103AF00024E0701C22D0FDF7C5FCA0EB0800B0420A
:103B00001AD8CEB12068C168490717D5802D15D0C5
:103B1000402D13D00168C94309070FD4016800255F
:103B2000406800902046FFF7B3FE0820606484F8E8
:103B300040500120BDE8F8830320FBE720680068BF
:103B400035EA000004D00020B842D2D00020F1E7CE
:103B50000120F9E710B5154CE06810B900F017FA2C
:103B6000E060FDF786F80022402111A0FDF722F960
:103B7000102240210FA0FDF71DF92022402110A0A6
:103B8000FDF718F9302240210EA0FDF713F9FDF7DB
:103B900089F900F0FCF9E16801F6B831884203D3F5
:103BA000022020700020E06010BD00000000002016
:103BB00053595A003232303431333034000000006F
:103BC0005758590032323034303830340000000059
:103BD00010B5FDF74EF80022402103A0FDF7EAF8EA
:103BE000BDE81040FDF75EB94D61696E0000000050
:103BF00010B5FDF73EF80022402103A0FDF7DAF8EA
:103C0000BDE81040FDF74EB95061726173657400F4
:103C100010B5FDF72EF80022402103A0FDF7CAF8E9
:103C2000BDE81040FDF73EB95265636F7264696E7E
:103C30006700000010B5FDF71CF80022402103A02A
:103C4000FDF7B8F8BDE81040FDF72CB954696D6573
:103C50007365740010B50D4CA06810B900F097F9A9
:103C6000A060FDF706F80022402109A0FDF7A2F8A8
:103C7000FDF718F900F08BF9A16801F5FA618842A7
:103C800003D3012020700020A06010BD00000020A0
:103C90004D4652000148FEF77BBC00001C05002089
:103CA0000148FEF775BC00006405002002480121B0
:103CB0000170007870470000D80000200120704794
:103CC0000020704702480121017000787047000011
:103CD000D800002000207047FEE7000001498882DC
:103CE00000207047884F00200149C882002070479B
:103CF000884F00200FB4054B10B503A9044A029861
:103D000000F02BF810BC5DF814FB0000293F000800
:103D10003C0000200907090E002804DB00F1E02028
:103D200080F80014704700F00F0000F1E02080F8E8
:103D3000141D704700487047F800002002E008C8D2
:103D4000121F08C1002AFAD170477047002001E015
:103D500001C1121F002AFBD170472DE9F84F994687
:103D6000924688460546002706E025280AD0514697
:103D70004A4690476D1C7F1C28780028F5D13846AC
:103D8000BDE8F88F002315F8011F18462E2915D11C
:103D900015F8011F04232A290DD06FF02F0229786E
:103DA000A1F13004092C09D800EB800002EB40009F
:103DB00008446D1CF3E758F8040B6D1C2A78002AA0
:103DC000DDD0632A07D0732A0FD0104651464A46E9
:103DD00090477F1C2AE018F8042B8DF80020002162
:103DE0008DF801106E46012103E058F8046B4FF086
:103DF000FF315A074FF0000401D409E0641C8442EB
:103E00000BDA8C42FADB325D002AF7D105E0641C44
:103E10008C42FCDB305D0028F9D1274404E016F821
:103E2000010B51464A469047641EF8D26D1CA3E729
:103E30000CB50849084A0968B1FBF2F1414307484B
:103E40000091416801914168019A891A009A914252
:103E5000F9D30CBD4C00002040420F00001000E0E0
:103E600010B586B0FCF79CFD14216846FCF752FAA9
:103E700010480021026842F01002026000680E4CF7
:103E800000F01000059001200090CDE90101022012
:103E9000039069462046FDF7F3F9012211462046BA
:103EA000FDF7EBFAFCF732FD06B0BDE81040FCF779
:103EB000D7BC0000303802400010024010B52DED94
:103EC000028BFCF723FDFCF7CBFCCC20FCF738FD84
:103ED0004420FCF735FDFCF719FDFCF7C1FCCC20B4
:103EE000FCF72EFDBE20FCF72BFDFCF7E5FC04469D
:103EF000FCF7E2FC000201B29FED098B51EA0400DD
:103F000001D5C043401CFCF7A8FA53EC182BFCF772
:103F100032FAFCF7B3FABDEC028B00EE100A10BDCA
:103F2000000000000000B03F13B54FF6FF73012200
:103F300069460248FEF72FFD00981CBD1C050020B5
:103F4000FDF7AEFAFFF7D6FBFEF75CFEFEF7DAFDF3
:103F5000FEF7F6FDFEF744FFFEF7C0FEFEF724FF76
:103F60000020FFF751FA00F019F8FEF7F7FD00F016
:103F700027F8FEE710B5EFF3058111B16FF00504E6
:103F800003E0002408B100F0C9FE204610BDEFF3A5
:103F9000058008B101F062BC01F05ABCEFF3058066
:103FA00010B16FF0050070470448016811B14FF07F
:103FB000FF3070470121016000207047A000002001
:103FC00010B5EFF3058010B16FF0050010BD084883
:103FD0000168012902D04FF0FF3010BD054A0021D1
:103FE00082F8141D0221016000F000FF002010BDC6
:103FF000A00000200BE000E0F8B51D466FF00302C2
:104000006FF002064FF00004EFF30583A3B1F0B1A7
:10401000E9B1E5B9002200926A4601F039FA0128B7
:1040200017D10098B0B10C494FF080500860BFF331
:104030004F8FBFF36F8F0DE048B141B12A4601F0B9
:104040008BF9012806D025B16FF0010402E0144677
:1040500000E034462046F8BD04ED00E0F8B5144613
:104060004FF00005EFF3058212BB08B301B3A4B112
:10407000D4E9023263B1502A1AD32269C2B1676906
:1040800000FB01F6B74213D3009500F0DEFF07E016
:1040900072B9226962B9626952B9002200F0B4FFB4
:1040A000050005D00CB1216800E0002100F000FE01
:1040B0002846F8BDF8B51D466FF003026FF0020602
:1040C0004FF00004EFF30583ABB100B3F9B1F5B9DC
:1040D0000022134600926A4601F0DEF8012818D14A
:1040E0000098B8B10C494FF080500860BFF34F8F73
:1040F000BFF36F8F0EE050B149B100232A4601F0A3
:104100001BF8012806D025B16FF0010402E0144627
:1041100000E034462046F8BD04ED00E03EB5040062
:1041200001D0002903DA6FF0030001902BE04FF07B
:10413000FF300190EFF30580D0B1002502A8009078
:104140002B4601220295204601F0F2FA002201AB33
:1041500011462046009501F0EBFA029898B10B4900
:104160004FF080500860BFF34F8FBFF36F8F0AE0AE
:1041700000230122204601F06BFA002201AB114618
:10418000204601F065FA01983EBD000004ED00E014
:104190002DE9FF410B464FF00005EFF30581039534
:1041A00049BB40B38027182100244AB3166806B1E2
:1041B000344696691EB13146761E382E02D21679E3
:1041C000F60703D0002004B0BDE8F081566906B1BF
:1041D000B708D2F808C0BCF1000F0DD0D5685C2D2F
:1041E00018D312693AB136B18DE806103A46214625
:1041F00001F003FA03900DE0D6685EB912694AB97E
:1042000003AACDE90012BAB2214601F0C9F901288A
:1042100000D003950398D6E72DE9F041134C0F46E3
:104220000546E6682068001D00F044FC681C07D1C4
:1042300037B12168BDE8F0410D48091D00F08ABC86
:1042400020683544B5424560216805D2A06BBDE8C1
:10425000F041091D00F066BC606B091D00F062FCB6
:10426000A06A854200D2A562BDE8F081500000201E
:10427000A40B00202DE9F041054600F077FC2D4C01
:10428000A068401CA06020682B4F10B1606930B35B
:104290002BE02560A068012827D1002606EB8600C8
:1042A00007EB800000F030FC761C382EF6D3234854
:1042B00000F02AFC2148143000F026FC1F4828306A
:1042C00000F022FC1D483C3000F01EFC1B48503022
:1042D00000F01AFC194860631430A06305E0206800
:1042E000E96AC06A884200D82560606A401C606242
:1042F0006864E86A2169884200D9206100EB800087
:1043000007EB8000291D00F025FC00F04FFC6069E0
:1043100000280CD02068E96AC06A884207D20849A0
:104320004FF080500860BFF34F8FBFF36F8FBDE831
:10433000F081000050000020F4060020540B002003
:1043400004ED00E038B500F011FC104C2068C8B94D
:104350000F4800F0D9FB0E48143000F0D5FB0C4894
:10436000E060143020610A4B0020F03B009003F124
:10437000500210210A2000F068FE206010B105A153
:1043800000F096FCBDE8384000F010BC8C00002026
:10439000A80C0020546D72510000000030B4026C73
:1043A0000B46002A0BD0C1681144C1608468A14249
:1043B00001D30168C16030BC1846FBF792BF30BC26
:1043C00070472DE9F041856B174604460026026CC4
:1043D00082B1C7B1E068FBF784FFE168206C091A7D
:1043E000E1602268914202D2A168081AE060022FBF
:1043F00016D017E02068A8B9A06801F09BFA06461D
:104400000020A0600EE06068FBF76BFF216C606825
:1044100008446060A168884204D32068606001E0BD
:1044200005B16D1E6D1CA5633046BDE8F08110B569
:10443000044690F8590058B101280CD002280FD03A
:10444000502080F31188BFF34F8FBFF36F8FFEE7CB
:10445000206B00F0BFFB2046BDE8104000F0BABB67
:1044600010BD000010484FF47051420706D0C01D27
:104470000D4920F00700411AC1F570510B4A002385
:104480000144C2E900030839183A21F0070111601C
:104490004B600B600B1AC0E9001393604FF00040B3
:1044A000536050617047000088130020BC0000205A
:1044B000144E154CA6F29C474FF08058DFF84C90F4
:1044C00012E000BF00F052FBF068C568281D00F044
:1044D000F1FAA068401EA0606068401E606000F0B5
:1044E00065FB2846FFF7A3FF60680028EAD138681B
:1044F0000128F9D9C9F80080BFF34F8FBFF36F8F40
:10450000F2E70000900B00205000002004ED00E0D6
:1045100070B51D46049C51B1C4F80020C4E90F01D8
:104520000121204600F0C4FD84F84C5070BD246089
:10453000F4E700002DE9F05F8846DDE90B941546AD
:10454000834691009A460A9EA522206BFBF7DBFE6C
:104550006FF00301206B01EB8501084420F0070791
:10456000780707D0502080F31188BFF34F8FBFF337
:104570006F8FFEE70025B8F1000F0FD05FF000004D
:10458000221818F8001082F8341018F8001011B131
:10459000401C1028F4D384F8435001E084F83450D0
:1045A000382E00D33726E662C4E91365201D00F0DB
:1045B000B6FA04F1180000F0B2FA2461C6F138002E
:1045C0006462A061656584F8585052465946384681
:1045D00000F05AFA2060B9F1000F01D0C9F800408C
:1045E000BDE8F09F30B5114900E011460A688242EB
:1045F000FBD34B685C18844203D140681844486080
:10460000084643681C18944209D1084C183C246899
:10461000A24209D052681A4442600A6812680260D5
:10462000814200D0086030BD0460F9E7BC00002082
:1046300070B5002441600B4D0061914206D8D11A3B
:104640008269914206D2011D286907E09A4203D28D
:10465000994201D3012403E0011DE86800F062FAE9
:10466000204670BD8C00002010B5044600F07EFA94
:10467000A06B28B15FF0000400F098FA204610BD4E
:104680000124F9E730B589B03C4D6EE0049800286C
:1046900006DADDE90601059A90470498002864DBF4
:1046A000069C606910B1201D00F004FA03A800F018
:1046B000D7F8024604980A2857D2DFE800F005052B
:1046C000052D334A05052D3394F8280040F00100EC
:1046D00084F828000599A069059B01442046FFF74E
:1046E000A7FF68B3216A2046884794F8280040074E
:1046F0003BD5002000900598A16900234218194677
:10470000204601F021FAD8B9502080F31188BFF378
:104710004F8FBFF36F8FFEE714F8280F20F00100D2
:10472000207022E094F8280040F0010084F828006E
:104730000598A06128B1811813462046FFF778FF3D
:1047400013E0502080F31188BFF34F8FBFF36F8FBA
:10475000FEE794F82800810703D4204600F03AFAD7
:1047600003E020F0010084F82800002204A9286852
:1047700000F0F2FD002889D109B030BD8C00002086
:104780002DE9FC410F46054600F074FB01A800F03E
:1047900067F80446019818B101F044F9BDE8FC81BE
:1047A000254EAFB130690068D0B30027291B3A46C7
:1047B000306800F091FA01F035F90028EED11F4978
:1047C0004FF080500860BFF34F8FBFF36F8FE5E766
:1047D000A542EBD801F026F9F0682746C068C46806
:1047E000201D00F067F994F82800410719D5A06949
:1047F0002B4641193A462046FFF71AFFA8B1002080
:104800000346014600902A46204601F09DF960B912
:10481000502080F31188BFF34F8FBFF36F8FFEE7F7
:1048200007E020F0010084F82800216A204688472C
:10483000B4E70127BAE700008C00002004ED00E097
:104840000648416B096829B1416BC968C968496864
:10485000816270474FF0FF31FAE7000050000020FE
:1048600070B5054600F0F4FF064E0446B068844279
:1048700003D200F009F8012000E000202860204663
:10488000B46070BD8C000020F8B5194D20E0C06800
:10489000C4680668201D00F00DF9216A204688478B
:1048A00094F82800400713D5A0693044B04206D9D7
:1048B00024616060211DE86800F034F908E0002000
:1048C0000346014600903246204601F03DF938B1DA
:1048D000E86801680029DAD12969C5E90310F8BD43
:1048E000502080F31188BFF34F8FBFF36F8FFEE727
:1048F0008C00002008484068401C4FF0500080F3B6
:10490000118804D0BFF34F8FBFF36F8FFEE7BFF363
:104910004F8FBFF36F8FFEE7C4000020074CE068A5
:10492000016841B1C0680021D0F80000FFF728FFFE
:10493000FFF7A8FEF3E701210020F7E78C00002035
:104940002DE9F041044600F011F994F9455004F1C5
:10495000240609E0606A48B1304601F02BF808B13E
:1049600000F00AFA6D1E6DB2002DF3DC4FF0FF3639
:1049700084F8456000F01AF900F0F8F894F9445012
:1049800004F1100709E0206948B1384601F012F837
:1049900008B100F0F1F96D1E6DB2002DF3DC84F862
:1049A0004460BDE8F04100F001B900002DE9F0419C
:1049B0000546002700F05EFA324E306808B9FFF76E
:1049C00051FD706905424ED1C5B3083568070ED058
:1049D00005F00700C0F108000544680707D0502023
:1049E00080F31188BFF34F8FBFF36F8FFEE72DB3B6
:1049F0007068854237D82348183001460C6801E0BA
:104A000020460C466168A94202D221680029F7D1EC
:104A100031688C4227D007682168016060680837D8
:104A2000411B10290FD96019420708D0502080F38C
:104A30001188BFF34F8FBFF36F8FFEE713E0416024
:104A40006560FFF7CFFD61687068401A7060B268FA
:104A5000904200D2B060706901430020C4E90001B7
:104A6000F068401CF06000F0DDFF780707D05020B0
:104A700080F31188BFF34F8FBFF36F8FFEE7384687
:104A8000BDE8F081A400002010B5031F4FF0807432
:104A90001C601B1F21F001011960191F044B0B60E2
:104AA00014390A60091F6FF0020244380A6010BD11
:104AB000F5480008D0E9013201699A60D0E9012384
:104AC0005A604A68824201D182684A6000220261CB
:104AD0000868401E0860086870470000034B0360C8
:104AE00003F15C000860802010607047D00C00204B
:104AF000044B036003F15C0008604FF480701060A9
:104B0000704700002C0F002000F108014FF0FF3229
:104B1000C0E90112C16001610021016070470021FC
:104B20000161704730B50B685A1C02D000F10802D1
:104B300002E0026904E02246546825689D42FAD9E1
:104B400053684B6099608A60516008610168491C34
:104B5000016030BD42684A6093688B609368596019
:104B6000916008610168491C01607047502080F322
:104B70001188BFF34F8FBFF36F8F0A494868401CFD
:104B8000486001280CD10848006810F0FF0F07D0DA
:104B9000502080F31188BFF34F8FBFF36F8FFEE774
:104BA00070470000C400002004ED00E00849486898
:104BB00028B1401E486001D180F311887047502011
:104BC00080F31188BFF34F8FBFF36F8FFEE70000B4
:104BD000C400002070B500282AD0164DA0F10804AA
:104BE00060686969084207D1502080F31188BFF3DB
:104BF0004F8FBFF36F8FFEE722683AB1502080F3EA
:104C00001188BFF34F8FBFF36F8FFEE7884360605B
:104C100000F030F960686968084468602046FFF772
:104C2000E1FC2869401C2861BDE8704000F0FABE34
:104C300070BD0000A40000204FF0E02000210161C1
:104C4000816105494FF47A720968B1FBF2F1491E9E
:104C500041610721016170474C00002010B5FBF74E
:104C6000F9FA114910280ED300F1E02090F8F00372
:104C70000A78904207D2502080F31188BFF34F8FFB
:104C8000BFF36F8FFEE709480068896800F4E060B1
:104C9000884207D9502080F31188BFF34F8FBFF3AC
:104CA0006F8FFEE710BD0000C40000200CED00E097
:104CB00010B5084B002200BF53F832401CB1521C03
:104CC000082AF9D310BD43F8321003EBC201486043
:104CD00010BD0000B406002070B515460E4604460F
:104CE000FFF744FF94F944100020491C01D184F8D7
:104CF000440094F94510491C01D184F84500FFF7A0
:104D000055FFA06B28B92A46314604F1240000F073
:104D100051F82046BDE87040FFF712BE10B5020002
:104D200014D00F48006B38B1502080F31188BFF3C6
:104D30004F8FBFF36F8FFEE700F09CF80021104605
:104D4000FFF76AFA00F06EFE002807D105494FF020
:104D500080500860BFF34F8FBFF36F8F10BD00000E
:104D60005000002004ED00E002490A6A0260C968B0
:104D7000416070475000002001490120C861704720
:104D80005000002010B50C4650B10949096818318F
:104D9000FFF7C8FE2046BDE810400121FFF73CBAEE
:104DA000502080F31188BFF34F8FBFF36F8FFEE762
:104DB0005000002070B514460D4668B10A490968D4
:104DC0001831FFF7C7FE0CB14FF0FF3521462846DA
:104DD000BDE87040FFF720BA502080F31188BFF380
:104DE0004F8FBFF36F8FFEE75000002030B587B0C4
:104DF0000024039405AA04A903A80494FFF76EFEF7
:104E0000DDE903010094CDE90110002315A1174845
:104E1000059A00F0F2FB164D0028E8621FD000F062
:104E200063FE012809D0401C19D1502080F311885D
:104E3000BFF34F8FBFF36F8FFEE7502080F31188D1
:104E4000BFF34F8FBFF36F8F4FF0FF30A862012089
:104E50006861EC6007B0BDE8304000F045B807B0CD
:104E600030BD000049444C4500000000B14400083A
:104E7000500000200248016B491C0163704700008C
:104E800050000020164810B5016B11B10121C1611D
:104E900010BD0021C1610169124A01E0B9B1491E8A
:104EA00001EB810352F82330002BF7D001EB810393
:104EB00002EB830202F1080453685B685360A3426B
:104EC00001D15B685360DA680260016110BD502057
:104ED00080F31188BFF34F8FBFF36F8FFEE70000A1
:104EE00050000020F40600201CB537480168374AFE
:104EF000914207D1502080F31188BFF34F8FBFF349
:104F00006F8FFEE700683149491E884207D1502063
:104F100080F31188BFF34F8FBFF36F8FFEE72C49EB
:104F200008780190FF20087008788DF800009DF83F
:104F300000009DF8002000F0F000904207D05020C3
:104F400080F31188BFF34F8FBFF36F8FFEE79DF89B
:104F50000000204C00F0500020700720A06005E009
:104F60009DF8002052008DF80020401E9DF8002082
:104F70001206F5D4A060032807D0502080F31188D2
:104F8000BFF34F8FBFF36F8FFEE74FF44070A06009
:104F9000019808700C482030016841F470010160EC
:104FA000016841F070410160FFF746FE002060603B
:104FB000FBF718F90848016841F040410160FBF730
:104FC000FDF800201CBD000000ED00E071C20F41A3
:104FD00000E400E0C400002034EF00E010B55020F1
:104FE00080F31188BFF34F8FBFF36F8F00F03EFC4B
:104FF00018B104494FF080500860002080F31188F8
:1050000010BD000004ED00E0F8B517460E4605009F
:1050100013D005FB06F05030FFF7C8FC04000AD09F
:10502000002084F8460004F150023B4631462846F1
:105030000094FFF76DFA2046F8BD502080F31188E8
:10504000BFF34F8FBFF36F8FFEE738B5049D18B1E4
:1050500053B1CAB181B120E0502080F31188BFF371
:105060004F8FBFF36F8FFEE7502080F31188BFF39F
:105070004F8FBFF36F8FFEE7502080F31188BFF38F
:105080004F8FBFF36F8FFEE739B1502080F3118847
:10509000BFF34F8FBFF36F8FFEE750241C460123F1
:1050A00084F846302B460094FFF732FA204638BD8C
:1050B00070B50D46040025D0FFF758FDD4E90F2048
:1050C000216802FB0011A1600021A16321686160D9
:1050D0000A46D4E90F01401E00FB0121E160214690
:1050E0004FF0FF3001F8440F487004F110008DB10B
:1050F000FFF70AFD04F12400FFF706FDFFF756FD58
:10510000012070BD502080F31188BFF34F8FBFF393
:105110006F8FFEE721690029F0D000F04BFC0028DA
:10512000ECD004494FF080500860BFF34F8FBFF3BD
:105130006F8FE3E704ED00E02DE9FF4782B01D46E5
:105140008A464FF00008040003D0BAF1000F08D0DF
:1051500011E0502080F31188BFF34F8FBFF36F8FA2
:10516000FEE7206C38B1502080F31188BFF34F8FD9
:10517000BFF36F8FFEE7022D0AD1E06B012807D045
:10518000502080F31188BFF34F8FBFF36F8FFEE77E
:1051900000F050FB3F4F4FF000094FF0805648B9E8
:1051A000049838B1502080F31188BFF34F8FBFF3BC
:1051B0006F8FFEE7FFF7DAFCA06BE16B884207D345
:1051C000022D05D00498D0B1B8F1000F1AD01EE01E
:1051D0002A4651462046FFF7F4F8616A19B104F1F6
:1051E000240000F0E7FB20B13E60BFF34F8FBFF318
:1051F0006F8FFFF7DBFC012006B0BDE8F087FFF7FB
:10520000D5FC22E06846FFF7AFFD4FF00108FFF73D
:10521000CDFCFFF72FFEFFF7A9FC94F94400401CDA
:1052200001D184F8449094F94500401C01D184F8E0
:105230004590FFF7BBFC04A9684600F077F930B150
:105240002046FFF77DFB00F0EDFB0020D4E7FFF7E1
:105250008DFCA06BE16B884213D1FFF7A7FC04F132
:1052600010000499FFF78EFD2046FFF769FB00F060
:10527000D9FB00289ED13E60BFF34F8FBFF36F8FE5
:1052800098E7FFF793FC2046FFF75AFB00F0CAFBB4
:1052900090E7000004ED00E02DE9F0471F4690463E
:1052A0008946040003D0B9F1000F08D011E0502066
:1052B00080F31188BFF34F8FBFF36F8FFEE7206C31
:1052C00038B1502080F31188BFF34F8FBFF36F8F39
:1052D000FEE7022F0AD1E06B012807D0502080F3AF
:1052E0001188BFF34F8FBFF36F8FFEE7FFF7B6FC58
:1052F0005020EFF3118680F31188BFF34F8FBFF377
:105300006F8FA06BE16B884206D3022F04D0002080
:1053100086F31188BDE8F08794F94550A06B3A46B2
:1053200049462046FFF74DF8681C04D06D1C84F8F0
:1053300045500120ECE7606A0028FAD004F124000F
:1053400000F038FB0028F4D0B8F1000FF1D00121B3
:10535000C8F80010EDE700002DE9F747002683B0FC
:105360008A46040003D0BAF1000F08D011E05020A3
:1053700080F31188BFF34F8FBFF36F8FFEE7206C70
:1053800038B1502080F31188BFF34F8FBFF36F8F78
:10539000FEE700F04FFADFF8F4804FF000094FF01D
:1053A000805748B9059838B1502080F31188BFF371
:1053B0004F8FBFF36F8FFEE7FFF7D8FBA56BC5B12B
:1053C00051462046FEF7EAFF6D1EA563206950B1E5
:1053D00004F1100000F0EEFA28B1C8F80070BFF335
:1053E0004F8FBFF36F8FFFF7E1FB012006B0BDE8E1
:1053F000F087059808B11EB106E0FFF7D7FB27E05C
:105400006846FFF7B1FC0126FFF7D0FBFFF732FD3E
:10541000FFF7ACFB94F94400401C01D184F84490A0
:1054200094F94500401C01D184F84590FFF7BEFB7C
:1054300005A9684600F07AF8002820460AD0FFF750
:105440007FFA00F0EFFA2046FFF70EF90028B3D0FC
:105450000020CBE7FFF708F990B104F1240005998B
:10546000FFF790FC2046FFF76BFA00F0DBFA00280C
:10547000A2D1C8F80070BFF34F8FBFF36F8F9BE7C7
:105480002046FFF75DFA00F0CDFA95E704ED00E065
:105490002DE9F04790468946040003D0B9F1000F8A
:1054A00008D011E0502080F31188BFF34F8FBFF375
:1054B0006F8FFEE7206C38B1502080F31188BFF366
:1054C0004F8FBFF36F8FFEE7FFF7C8FB5020EFF35E
:1054D000118680F31188BFF34F8FBFF36F8FA76BD7
:1054E000F7B194F9445049462046FEF757FF7F1E16
:1054F000A763681C04D06D1C84F84450012010E0A0
:1055000020690028FAD004F1100000F053FA0028B6
:10551000F4D0B8F1000FF1D00121C8F80010EDE788
:10552000002086F31188BDE8F08700002DE9F041E6
:105530000C46050011D0C4B1FFF718FB174BDA6811
:105540006E682068911B471C17D02F681B6A9F420A
:1055500019D0964217D8012410E0502080F311880A
:10556000BFF34F8FBFF36F8FFEE7502080F311889A
:10557000BFF34F8FBFF36F8FFEE70024FFF716FBDB
:105580002046BDE8F081884205D9401A20602846AF
:10559000FFF7EAFBF1E700202060DCE75000002085
:1055A0002DE9FF5F8346DDE90E87994616468A4658
:1055B0009000FFF7FBF905001CD05C20FFF7F6F91F
:1055C000040014D00020256384F85900CDE902407E
:1055D000CDE900874B46324651465846FEF7AAFFB2
:1055E0002046FEF747FE012004B0BDE8F09F2846A4
:1055F000FFF7F0FA4FF0FF30F6E7F0B585B0DDE9E0
:105600000B640A9DA6B1DCB15C27009726630226D5
:1056100084F85960002604AFCDE90246CDE9005771
:10562000FEF788FF2046FEF725FE049805B0F0BD82
:10563000502080F31188BFF34F8FBFF36F8FFEE7C9
:10564000502080F31188BFF34F8FBFF36F8FFEE7B9
:105650002DE9F0411F4690460D46012690B10446C3
:10566000FFF784FA0FB1606D386094F8580002219A
:1056700084F85810B8F1050F19D2DFE808F0230BB1
:105680000E141200502080F31188BFF34F8FBFF328
:105690006F8FFEE7616D294301E0616D491C616513
:1056A00010E0022801D065650CE0002634E0616D51
:1056B000491C07D0502080F31188BFF34F8FBFF3F0
:1056C0006F8FFEE7012827D1201DFFF7F3F9154D55
:1056D000E06A2969884200D92861134900EB8000FB
:1056E00001EB8000211DFFF735FAA06A38B1502088
:1056F00080F31188BFF34F8FBFF36F8FFEE7E06A2F
:105700002968C96A884207D908494FF08050086063
:10571000BFF34F8FBFF36F8FFFF748FA3046BDE8F6
:10572000F081000050000020F406002004ED00E0AD
:105730002DE9F0471F46DDF8209092460D46040003
:105740004FF001081AD0FFF789FA5020EFF31186C5
:1057500080F31188BFF34F8FBFF36F8F0FB1606D70
:10576000386094F85800022184F85810BAF1050FF7
:105770001AD2DFE80AF0240B0E141200502080F336
:105780001188BFF34F8FBFF36F8FFEE7616D294321
:1057900001E0616D491C616511E0022801D0656579
:1057A0000DE04FF0000839E0616D491C07D0502032
:1057B00080F31188BFF34F8FBFF36F8FFEE701288F
:1057C0002CD1A06A38B1502080F31188BFF34F8FDD
:1057D000BFF36F8FFEE7144D286B18B104F1180169
:1057E00012480DE0201DFFF765F9E06A296988423B
:1057F00000D928610E4900EB800001EB8000211DDB
:10580000FFF7A8F9E06A2968C96A884206D9012029
:10581000B9F1000F01D0C9F80000E86186F31188E2
:105820004046BDE8F0870000500000207C0B0020BF
:10583000F40600200548416919B1006B18B1002039
:105840007047012070470220704700005000002080
:105850000148C068704700005000002010B5FFF7F5
:10586000FDF90148C06810BD500000202DE9F0414D
:105870002E4C0027206B28B1A069401CA06138463F
:10588000BDE8F081E668761CE66013D1606B0068C5
:1058900038B1502080F31188BFF34F8FBFF36F8F63
:1058A000FEE7606BA16B6163A063206A401C20620D
:1058B000FEF7C6FFA06ADFF87880864209D3606BE6
:1058C0000068A0B1606BC068C5686868864211D284
:1058D000A0622068C06A00EB800158F8210001280E
:1058E00000D90127E0690028C9D00127C7E74FF098
:1058F000FF30EDE7281DFFF7DDF8A86A18B105F1C4
:105900001800FFF7D7F8E86A2169884200D92061BA
:1059100000EB800108EB8100291DFFF71BF9E86A05
:105920002168C96A8842CAD30127C8E7500000200D
:10593000F406002070B504004FF0000133D01B4D79
:105940002868844207D0502080F31188BFF34F8F1E
:10595000BFF36F8FFEE7206D38B1401E2065E36C0A
:10596000E26A9A421FD040B11DE0502080F31188B6
:10597000BFF34F8FBFF36F8FFEE7201DFFF79AF83D
:10598000E06CE062C0F13800A061E06A29698842F9
:1059900000D92861064900EB800001EB8000211D41
:1059A000FFF7D8F80121084670BD00005000002024
:1059B000F406002070B5C068C46854B104F1180042
:1059C0000646FFF777F8144D286B50B1314613485F
:1059D00015E0502080F31188BFF34F8FBFF36F8F16
:1059E000FEE7201DFFF766F8E06A2969884200D9C2
:1059F00028610B4900EB800001EB8000211DFFF7BF
:105A0000A9F8E06A2968C96A884202D90120E861D8
:105A100070BD002070BD0000500000207C0B0020F5
:105A2000F40600202DE9F0472C4D00242746286B72
:105A300038B1FFF79BF8286B401E2863286B40B1F4
:105A400046E0502080F31188BFF34F8FBFF36F8F74
:105A5000FEE7A968224E0120D1B3A6F591698046E0
:105A60003068E0B1F068C46804F11800FFF722F86C
:105A7000201DFFF71FF8E06A2969884200D92861D4
:105A800000EB800109EB8100211DFFF763F8E06A5C
:105A90002968C96A8842E3D3C5F81C80E0E70CB1E5
:105AA000FEF7CEFEAC694CB14FEA0806FFF7DEFE0A
:105AB00000B1EE61641EF9D10020A861E86938B137
:105AC0000849012738070860BFF34F8FBFF36F8F76
:105AD000FFF76CF83846BDE8F08700005000002062
